{
	"data": {
		"bytecode": {
			"linkReferences": {},
			"object": "608060405260016008553480156200001657600080fd5b506040518060400160405280600a81526020017f426974417070734e4654000000000000000000000000000000000000000000008152506040518060400160405280600481526020017f424e465400000000000000000000000000000000000000000000000000000000815250816000908162000094919062000329565b508060019081620000a6919062000329565b50505062000410565b600081519050919050565b7f4e487b7100000000000000000000000000000000000000000000000000000000600052604160045260246000fd5b7f4e487b7100000000000000000000000000000000000000000000000000000000600052602260045260246000fd5b600060028204905060018216806200013157607f821691505b602082108103620001475762000146620000e9565b5b50919050565b60008190508160005260206000209050919050565b60006020601f8301049050919050565b600082821b905092915050565b600060088302620001b17fffffffffffffffffffffffffffffffffffffffffffffffffffffffffffffffff8262000172565b620001bd868362000172565b95508019841693508086168417925050509392505050565b6000819050919050565b6000819050919050565b60006200020a62000204620001fe84620001d5565b620001df565b620001d5565b9050919050565b6000819050919050565b6200022683620001e9565b6200023e620002358262000211565b8484546200017f565b825550505050565b600090565b6200025562000246565b620002628184846200021b565b505050565b5b818110156200028a576200027e6000826200024b565b60018101905062000268565b5050565b601f821115620002d957620002a3816200014d565b620002ae8462000162565b81016020851015620002be578190505b620002d6620002cd8562000162565b83018262000267565b50505b505050565b600082821c905092915050565b6000620002fe60001984600802620002de565b1980831691505092915050565b6000620003198383620002eb565b9150826002028217905092915050565b6200033482620000af565b67ffffffffffffffff81111562000350576200034f620000ba565b5b6200035c825462000118565b620003698282856200028e565b600060209050601f831160018114620003a157600084156200038c578287015190505b6200039885826200030b565b86555062000408565b601f198416620003b1866200014d565b60005b82811015620003db57848901518255600182019150602085019450602081019050620003b4565b86831015620003fb5784890151620003f7601f891682620002eb565b8355505b6001600288020188555050505b505050505050565b612da580620004206000396000f3fe608060405234801561001057600080fd5b50600436106101425760003560e01c806370a08231116100b8578063b3154c081161007c578063b3154c0814610385578063b88d4fde146103b5578063c87b56dd146103d1578063c8df116614610401578063d082e38114610431578063e985e9c51461044f57610142565b806370a08231146102cf57806371f0442e146102ff57806395d89b411461032f578063990711901461034d578063a22cb4651461036957610142565b806323b872dd1161010a57806323b872dd14610211578063246a908b1461022d57806342842e0e146102495780636352211e1461026557806364140ec0146102955780636e02007d146102b157610142565b806301ffc9a71461014757806306fdde0314610177578063081812fc14610195578063095ea7b3146101c557806310795dcc146101e1575b600080fd5b610161600480360381019061015c9190611b2b565b61047f565b60405161016e9190611b73565b60405180910390f35b61017f610561565b60405161018c9190611c1e565b60405180910390f35b6101af60048036038101906101aa9190611c76565b6105f3565b6040516101bc9190611ce4565b60405180910390f35b6101df60048036038101906101da9190611d2b565b610639565b005b6101fb60048036038101906101f69190611c76565b610750565b6040516102089190611c1e565b60405180910390f35b61022b60048036038101906102269190611d6b565b6107f0565b005b61024760048036038101906102429190611ef3565b610850565b005b610263600480360381019061025e9190611d6b565b610875565b005b61027f600480360381019061027a9190611c76565b610895565b60405161028c9190611ce4565b60405180910390f35b6102af60048036038101906102aa9190611ef3565b610946565b005b6102b961096b565b6040516102c69190611f5e565b60405180910390f35b6102e960048036038101906102e49190611f79565b610981565b6040516102f69190611f5e565b60405180910390f35b61031960048036038101906103149190611c76565b610a38565b6040516103269190611c1e565b60405180910390f35b610337610add565b6040516103449190611c1e565b60405180910390f35b61036760048036038101906103629190611fa6565b610b6f565b005b610383600480360381019061037e919061205d565b610bde565b005b61039f600480360381019061039a9190611c76565b610bf4565b6040516103ac9190611c1e565b60405180910390f35b6103cf60048036038101906103ca919061213e565b610c99565b005b6103eb60048036038101906103e69190611c76565b610cfb565b6040516103f89190611c1e565b60405180910390f35b61041b60048036038101906104169190611c76565b610d63565b6040516104289190611c1e565b60405180910390f35b610439610e03565b6040516104469190611f5e565b60405180910390f35b610469600480360381019061046491906121c1565b610e09565b6040516104769190611b73565b60405180910390f35b60007f80ac58cd000000000000000000000000000000000000000000000000000000007bffffffffffffffffffffffffffffffffffffffffffffffffffffffff1916827bffffffffffffffffffffffffffffffffffffffffffffffffffffffff1916148061054a57507f5b5e139f000000000000000000000000000000000000000000000000000000007bffffffffffffffffffffffffffffffffffffffffffffffffffffffff1916827bffffffffffffffffffffffffffffffffffffffffffffffffffffffff1916145b8061055a575061055982610e9d565b5b9050919050565b60606000805461057090612230565b80601f016020809104026020016040519081016040528092919081815260200182805461059c90612230565b80156105e95780601f106105be576101008083540402835291602001916105e9565b820191906000526020600020905b8154815290600101906020018083116105cc57829003601f168201915b5050505050905090565b60006105fe82610f07565b6004600083815260200190815260200160002060009054906101000a900473ffffffffffffffffffffffffffffffffffffffff169050919050565b600061064482610895565b90508073ffffffffffffffffffffffffffffffffffffffff168373ffffffffffffffffffffffffffffffffffffffff16036106b4576040517f08c379a00000000000000000000000000000000000000000000000000000000081526004016106ab906122d3565b60405180910390fd5b8073ffffffffffffffffffffffffffffffffffffffff166106d3610f52565b73ffffffffffffffffffffffffffffffffffffffff1614806107025750610701816106fc610f52565b610e09565b5b610741576040517f08c379a000000000000000000000000000000000000000000000000000000000815260040161073890612365565b60405180910390fd5b61074b8383610f5a565b505050565b6007602052806000526040600020600091509050805461076f90612230565b80601f016020809104026020016040519081016040528092919081815260200182805461079b90612230565b80156107e85780601f106107bd576101008083540402835291602001916107e8565b820191906000526020600020905b8154815290600101906020018083116107cb57829003601f168201915b505050505081565b6108016107fb610f52565b82611013565b610840576040517f08c379a0000000000000000000000000000000000000000000000000000000008152600401610837906123f7565b60405180910390fd5b61084b8383836110a8565b505050565b8060066000848152602001908152602001600020908161087091906125c3565b505050565b61089083838360405180602001604052806000815250610c99565b505050565b6000806002600084815260200190815260200160002060009054906101000a900473ffffffffffffffffffffffffffffffffffffffff169050600073ffffffffffffffffffffffffffffffffffffffff168173ffffffffffffffffffffffffffffffffffffffff160361093d576040517f08c379a0000000000000000000000000000000000000000000000000000000008152600401610934906126e1565b60405180910390fd5b80915050919050565b8060076000848152602001908152602001600020908161096691906125c3565b505050565b6000600160085461097c9190612730565b905090565b60008073ffffffffffffffffffffffffffffffffffffffff168273ffffffffffffffffffffffffffffffffffffffff16036109f1576040517f08c379a00000000000000000000000000000000000000000000000000000000081526004016109e8906127d6565b60405180910390fd5b600360008373ffffffffffffffffffffffffffffffffffffffff1673ffffffffffffffffffffffffffffffffffffffff168152602001908152602001600020549050919050565b6060600760008381526020019081526020016000208054610a5890612230565b80601f0160208091040260200160405190810160405280929190818152602001828054610a8490612230565b8015610ad15780601f10610aa657610100808354040283529160200191610ad1565b820191906000526020600020905b815481529060010190602001808311610ab457829003601f168201915b50505050509050919050565b606060018054610aec90612230565b80601f0160208091040260200160405190810160405280929190818152602001828054610b1890612230565b8015610b655780601f10610b3a57610100808354040283529160200191610b65565b820191906000526020600020905b815481529060010190602001808311610b4857829003601f168201915b5050505050905090565b610b7b8360085461130e565b60086000815480929190610b8e906127f6565b9190505550816006600060085481526020019081526020016000209081610bb591906125c3565b50806007600060085481526020019081526020016000209081610bd891906125c3565b50505050565b610bf0610be9610f52565b838361132c565b5050565b6060600660008381526020019081526020016000208054610c1490612230565b80601f0160208091040260200160405190810160405280929190818152602001828054610c4090612230565b8015610c8d5780601f10610c6257610100808354040283529160200191610c8d565b820191906000526020600020905b815481529060010190602001808311610c7057829003601f168201915b50505050509050919050565b610caa610ca4610f52565b83611013565b610ce9576040517f08c379a0000000000000000000000000000000000000000000000000000000008152600401610ce0906123f7565b60405180910390fd5b610cf584848484611498565b50505050565b6060610d0682610f07565b6000610d106114f4565b90506000815111610d305760405180602001604052806000815250610d5b565b80610d3a8461150b565b604051602001610d4b92919061287a565b6040516020818303038152906040525b915050919050565b60066020528060005260406000206000915090508054610d8290612230565b80601f0160208091040260200160405190810160405280929190818152602001828054610dae90612230565b8015610dfb5780601f10610dd057610100808354040283529160200191610dfb565b820191906000526020600020905b815481529060010190602001808311610dde57829003601f168201915b505050505081565b60085481565b6000600560008473ffffffffffffffffffffffffffffffffffffffff1673ffffffffffffffffffffffffffffffffffffffff16815260200190815260200160002060008373ffffffffffffffffffffffffffffffffffffffff1673ffffffffffffffffffffffffffffffffffffffff16815260200190815260200160002060009054906101000a900460ff16905092915050565b60007f01ffc9a7000000000000000000000000000000000000000000000000000000007bffffffffffffffffffffffffffffffffffffffffffffffffffffffff1916827bffffffffffffffffffffffffffffffffffffffffffffffffffffffff1916149050919050565b610f108161166b565b610f4f576040517f08c379a0000000000000000000000000000000000000000000000000000000008152600401610f46906126e1565b60405180910390fd5b50565b600033905090565b816004600083815260200190815260200160002060006101000a81548173ffffffffffffffffffffffffffffffffffffffff021916908373ffffffffffffffffffffffffffffffffffffffff160217905550808273ffffffffffffffffffffffffffffffffffffffff16610fcd83610895565b73ffffffffffffffffffffffffffffffffffffffff167f8c5be1e5ebec7d5bd14f71427d1e84f3dd0314c0f7b2291e5b200ac8c7c3b92560405160405180910390a45050565b60008061101f83610895565b90508073ffffffffffffffffffffffffffffffffffffffff168473ffffffffffffffffffffffffffffffffffffffff16148061106157506110608185610e09565b5b8061109f57508373ffffffffffffffffffffffffffffffffffffffff16611087846105f3565b73ffffffffffffffffffffffffffffffffffffffff16145b91505092915050565b8273ffffffffffffffffffffffffffffffffffffffff166110c882610895565b73ffffffffffffffffffffffffffffffffffffffff161461111e576040517f08c379a000000000000000000000000000000000000000000000000000000000815260040161111590612910565b60405180910390fd5b600073ffffffffffffffffffffffffffffffffffffffff168273ffffffffffffffffffffffffffffffffffffffff160361118d576040517f08c379a0000000000000000000000000000000000000000000000000000000008152600401611184906129a2565b60405180910390fd5b6111988383836116d7565b6111a3600082610f5a565b6001600360008573ffffffffffffffffffffffffffffffffffffffff1673ffffffffffffffffffffffffffffffffffffffff16815260200190815260200160002060008282546111f39190612730565b925050819055506001600360008473ffffffffffffffffffffffffffffffffffffffff1673ffffffffffffffffffffffffffffffffffffffff168152602001908152602001600020600082825461124a91906129c2565b92505081905550816002600083815260200190815260200160002060006101000a81548173ffffffffffffffffffffffffffffffffffffffff021916908373ffffffffffffffffffffffffffffffffffffffff160217905550808273ffffffffffffffffffffffffffffffffffffffff168473ffffffffffffffffffffffffffffffffffffffff167fddf252ad1be2c89b69c2b068fc378daa952ba7f163c4a11628f55a4df523b3ef60405160405180910390a46113098383836116dc565b505050565b6113288282604051806020016040528060008152506116e1565b5050565b8173ffffffffffffffffffffffffffffffffffffffff168373ffffffffffffffffffffffffffffffffffffffff160361139a576040517f08c379a000000000000000000000000000000000000000000000000000000000815260040161139190612a42565b60405180910390fd5b80600560008573ffffffffffffffffffffffffffffffffffffffff1673ffffffffffffffffffffffffffffffffffffffff16815260200190815260200160002060008473ffffffffffffffffffffffffffffffffffffffff1673ffffffffffffffffffffffffffffffffffffffff16815260200190815260200160002060006101000a81548160ff0219169083151502179055508173ffffffffffffffffffffffffffffffffffffffff168373ffffffffffffffffffffffffffffffffffffffff167f17307eab39ab6107e8899845ad3d59bd9653f200f220920489ca2b5937696c318360405161148b9190611b73565b60405180910390a3505050565b6114a38484846110a8565b6114af8484848461173c565b6114ee576040517f08c379a00000000000000000000000000000000000000000000000000000000081526004016114e590612ad4565b60405180910390fd5b50505050565b606060405180602001604052806000815250905090565b606060008203611552576040518060400160405280600181526020017f30000000000000000000000000000000000000000000000000000000000000008152509050611666565b600082905060005b6000821461158457808061156d906127f6565b915050600a8261157d9190612b23565b915061155a565b60008167ffffffffffffffff8111156115a05761159f611dc8565b5b6040519080825280601f01601f1916602001820160405280156115d25781602001600182028036833780820191505090505b5090505b6000851461165f576001826115eb9190612730565b9150600a856115fa9190612b54565b603061160691906129c2565b60f81b81838151811061161c5761161b612b85565b5b60200101907effffffffffffffffffffffffffffffffffffffffffffffffffffffffffffff1916908160001a905350600a856116589190612b23565b94506115d6565b8093505050505b919050565b60008073ffffffffffffffffffffffffffffffffffffffff166002600084815260200190815260200160002060009054906101000a900473ffffffffffffffffffffffffffffffffffffffff1673ffffffffffffffffffffffffffffffffffffffff1614159050919050565b505050565b505050565b6116eb83836118c3565b6116f8600084848461173c565b611737576040517f08c379a000000000000000000000000000000000000000000000000000000000815260040161172e90612ad4565b60405180910390fd5b505050565b600061175d8473ffffffffffffffffffffffffffffffffffffffff16611a9c565b156118b6578373ffffffffffffffffffffffffffffffffffffffff1663150b7a02611786610f52565b8786866040518563ffffffff1660e01b81526004016117a89493929190612c09565b6020604051808303816000875af19250505080156117e457506040513d601f19601f820116820180604052508101906117e19190612c6a565b60015b611866573d8060008114611814576040519150601f19603f3d011682016040523d82523d6000602084013e611819565b606091505b50600081510361185e576040517f08c379a000000000000000000000000000000000000000000000000000000000815260040161185590612ad4565b60405180910390fd5b805181602001fd5b63150b7a0260e01b7bffffffffffffffffffffffffffffffffffffffffffffffffffffffff1916817bffffffffffffffffffffffffffffffffffffffffffffffffffffffff1916149150506118bb565b600190505b949350505050565b600073ffffffffffffffffffffffffffffffffffffffff168273ffffffffffffffffffffffffffffffffffffffff1603611932576040517f08c379a000000000000000000000000000000000000000000000000000000000815260040161192990612ce3565b60405180910390fd5b61193b8161166b565b1561197b576040517f08c379a000000000000000000000000000000000000000000000000000000000815260040161197290612d4f565b60405180910390fd5b611987600083836116d7565b6001600360008473ffffffffffffffffffffffffffffffffffffffff1673ffffffffffffffffffffffffffffffffffffffff16815260200190815260200160002060008282546119d791906129c2565b92505081905550816002600083815260200190815260200160002060006101000a81548173ffffffffffffffffffffffffffffffffffffffff021916908373ffffffffffffffffffffffffffffffffffffffff160217905550808273ffffffffffffffffffffffffffffffffffffffff16600073ffffffffffffffffffffffffffffffffffffffff167fddf252ad1be2c89b69c2b068fc378daa952ba7f163c4a11628f55a4df523b3ef60405160405180910390a4611a98600083836116dc565b5050565b6000808273ffffffffffffffffffffffffffffffffffffffff163b119050919050565b6000604051905090565b600080fd5b600080fd5b60007fffffffff0000000000000000000000000000000000000000000000000000000082169050919050565b611b0881611ad3565b8114611b1357600080fd5b50565b600081359050611b2581611aff565b92915050565b600060208284031215611b4157611b40611ac9565b5b6000611b4f84828501611b16565b91505092915050565b60008115159050919050565b611b6d81611b58565b82525050565b6000602082019050611b886000830184611b64565b92915050565b600081519050919050565b600082825260208201905092915050565b60005b83811015611bc8578082015181840152602081019050611bad565b60008484015250505050565b6000601f19601f8301169050919050565b6000611bf082611b8e565b611bfa8185611b99565b9350611c0a818560208601611baa565b611c1381611bd4565b840191505092915050565b60006020820190508181036000830152611c388184611be5565b905092915050565b6000819050919050565b611c5381611c40565b8114611c5e57600080fd5b50565b600081359050611c7081611c4a565b92915050565b600060208284031215611c8c57611c8b611ac9565b5b6000611c9a84828501611c61565b91505092915050565b600073ffffffffffffffffffffffffffffffffffffffff82169050919050565b6000611cce82611ca3565b9050919050565b611cde81611cc3565b82525050565b6000602082019050611cf96000830184611cd5565b92915050565b611d0881611cc3565b8114611d1357600080fd5b50565b600081359050611d2581611cff565b92915050565b60008060408385031215611d4257611d41611ac9565b5b6000611d5085828601611d16565b9250506020611d6185828601611c61565b9150509250929050565b600080600060608486031215611d8457611d83611ac9565b5b6000611d9286828701611d16565b9350506020611da386828701611d16565b9250506040611db486828701611c61565b9150509250925092565b600080fd5b600080fd5b7f4e487b7100000000000000000000000000000000000000000000000000000000600052604160045260246000fd5b611e0082611bd4565b810181811067ffffffffffffffff82111715611e1f57611e1e611dc8565b5b80604052505050565b6000611e32611abf565b9050611e3e8282611df7565b919050565b600067ffffffffffffffff821115611e5e57611e5d611dc8565b5b611e6782611bd4565b9050602081019050919050565b82818337600083830152505050565b6000611e96611e9184611e43565b611e28565b905082815260208101848484011115611eb257611eb1611dc3565b5b611ebd848285611e74565b509392505050565b600082601f830112611eda57611ed9611dbe565b5b8135611eea848260208601611e83565b91505092915050565b60008060408385031215611f0a57611f09611ac9565b5b6000611f1885828601611c61565b925050602083013567ffffffffffffffff811115611f3957611f38611ace565b5b611f4585828601611ec5565b9150509250929050565b611f5881611c40565b82525050565b6000602082019050611f736000830184611f4f565b92915050565b600060208284031215611f8f57611f8e611ac9565b5b6000611f9d84828501611d16565b91505092915050565b600080600060608486031215611fbf57611fbe611ac9565b5b6000611fcd86828701611d16565b935050602084013567ffffffffffffffff811115611fee57611fed611ace565b5b611ffa86828701611ec5565b925050604084013567ffffffffffffffff81111561201b5761201a611ace565b5b61202786828701611ec5565b9150509250925092565b61203a81611b58565b811461204557600080fd5b50565b60008135905061205781612031565b92915050565b6000806040838503121561207457612073611ac9565b5b600061208285828601611d16565b925050602061209385828601612048565b9150509250929050565b600067ffffffffffffffff8211156120b8576120b7611dc8565b5b6120c182611bd4565b9050602081019050919050565b60006120e16120dc8461209d565b611e28565b9050828152602081018484840111156120fd576120fc611dc3565b5b612108848285611e74565b509392505050565b600082601f83011261212557612124611dbe565b5b81356121358482602086016120ce565b91505092915050565b6000806000806080858703121561215857612157611ac9565b5b600061216687828801611d16565b945050602061217787828801611d16565b935050604061218887828801611c61565b925050606085013567ffffffffffffffff8111156121a9576121a8611ace565b5b6121b587828801612110565b91505092959194509250565b600080604083850312156121d8576121d7611ac9565b5b60006121e685828601611d16565b92505060206121f785828601611d16565b9150509250929050565b7f4e487b7100000000000000000000000000000000000000000000000000000000600052602260045260246000fd5b6000600282049050600182168061224857607f821691505b60208210810361225b5761225a612201565b5b50919050565b7f4552433732313a20617070726f76616c20746f2063757272656e74206f776e6560008201527f7200000000000000000000000000000000000000000000000000000000000000602082015250565b60006122bd602183611b99565b91506122c882612261565b604082019050919050565b600060208201905081810360008301526122ec816122b0565b9050919050565b7f4552433732313a20617070726f76652063616c6c6572206973206e6f7420746f60008201527f6b656e206f776e6572206e6f7220617070726f76656420666f7220616c6c0000602082015250565b600061234f603e83611b99565b915061235a826122f3565b604082019050919050565b6000602082019050818103600083015261237e81612342565b9050919050565b7f4552433732313a2063616c6c6572206973206e6f7420746f6b656e206f776e6560008201527f72206e6f7220617070726f766564000000000000000000000000000000000000602082015250565b60006123e1602e83611b99565b91506123ec82612385565b604082019050919050565b60006020820190508181036000830152612410816123d4565b9050919050565b60008190508160005260206000209050919050565b60006020601f8301049050919050565b600082821b905092915050565b6000600883026124797fffffffffffffffffffffffffffffffffffffffffffffffffffffffffffffffff8261243c565b612483868361243c565b95508019841693508086168417925050509392505050565b6000819050919050565b60006124c06124bb6124b684611c40565b61249b565b611c40565b9050919050565b6000819050919050565b6124da836124a5565b6124ee6124e6826124c7565b848454612449565b825550505050565b600090565b6125036124f6565b61250e8184846124d1565b505050565b5b81811015612532576125276000826124fb565b600181019050612514565b5050565b601f8211156125775761254881612417565b6125518461242c565b81016020851015612560578190505b61257461256c8561242c565b830182612513565b50505b505050565b600082821c905092915050565b600061259a6000198460080261257c565b1980831691505092915050565b60006125b38383612589565b9150826002028217905092915050565b6125cc82611b8e565b67ffffffffffffffff8111156125e5576125e4611dc8565b5b6125ef8254612230565b6125fa828285612536565b600060209050601f83116001811461262d576000841561261b578287015190505b61262585826125a7565b86555061268d565b601f19841661263b86612417565b60005b828110156126635784890151825560018201915060208501945060208101905061263e565b86831015612680578489015161267c601f891682612589565b8355505b6001600288020188555050505b505050505050565b7f4552433732313a20696e76616c696420746f6b656e2049440000000000000000600082015250565b60006126cb601883611b99565b91506126d682612695565b602082019050919050565b600060208201905081810360008301526126fa816126be565b9050919050565b7f4e487b7100000000000000000000000000000000000000000000000000000000600052601160045260246000fd5b600061273b82611c40565b915061274683611c40565b925082820390508181111561275e5761275d612701565b5b92915050565b7f4552433732313a2061646472657373207a65726f206973206e6f74206120766160008201527f6c6964206f776e65720000000000000000000000000000000000000000000000602082015250565b60006127c0602983611b99565b91506127cb82612764565b604082019050919050565b600060208201905081810360008301526127ef816127b3565b9050919050565b600061280182611c40565b91507fffffffffffffffffffffffffffffffffffffffffffffffffffffffffffffffff820361283357612832612701565b5b600182019050919050565b600081905092915050565b600061285482611b8e565b61285e818561283e565b935061286e818560208601611baa565b80840191505092915050565b60006128868285612849565b91506128928284612849565b91508190509392505050565b7f4552433732313a207472616e736665722066726f6d20696e636f72726563742060008201527f6f776e6572000000000000000000000000000000000000000000000000000000602082015250565b60006128fa602583611b99565b91506129058261289e565b604082019050919050565b60006020820190508181036000830152612929816128ed565b9050919050565b7f4552433732313a207472616e7366657220746f20746865207a65726f2061646460008201527f7265737300000000000000000000000000000000000000000000000000000000602082015250565b600061298c602483611b99565b915061299782612930565b604082019050919050565b600060208201905081810360008301526129bb8161297f565b9050919050565b60006129cd82611c40565b91506129d883611c40565b92508282019050808211156129f0576129ef612701565b5b92915050565b7f4552433732313a20617070726f766520746f2063616c6c657200000000000000600082015250565b6000612a2c601983611b99565b9150612a37826129f6565b602082019050919050565b60006020820190508181036000830152612a5b81612a1f565b9050919050565b7f4552433732313a207472616e7366657220746f206e6f6e20455243373231526560008201527f63656976657220696d706c656d656e7465720000000000000000000000000000602082015250565b6000612abe603283611b99565b9150612ac982612a62565b604082019050919050565b60006020820190508181036000830152612aed81612ab1565b9050919050565b7f4e487b7100000000000000000000000000000000000000000000000000000000600052601260045260246000fd5b6000612b2e82611c40565b9150612b3983611c40565b925082612b4957612b48612af4565b5b828204905092915050565b6000612b5f82611c40565b9150612b6a83611c40565b925082612b7a57612b79612af4565b5b828206905092915050565b7f4e487b7100000000000000000000000000000000000000000000000000000000600052603260045260246000fd5b600081519050919050565b600082825260208201905092915050565b6000612bdb82612bb4565b612be58185612bbf565b9350612bf5818560208601611baa565b612bfe81611bd4565b840191505092915050565b6000608082019050612c1e6000830187611cd5565b612c2b6020830186611cd5565b612c386040830185611f4f565b8181036060830152612c4a8184612bd0565b905095945050505050565b600081519050612c6481611aff565b92915050565b600060208284031215612c8057612c7f611ac9565b5b6000612c8e84828501612c55565b91505092915050565b7f4552433732313a206d696e7420746f20746865207a65726f2061646472657373600082015250565b6000612ccd602083611b99565b9150612cd882612c97565b602082019050919050565b60006020820190508181036000830152612cfc81612cc0565b9050919050565b7f4552433732313a20746f6b656e20616c7265616479206d696e74656400000000600082015250565b6000612d39601c83611b99565b9150612d4482612d03565b602082019050919050565b60006020820190508181036000830152612d6881612d2c565b905091905056fea2646970667358221220f55302a010750eb970a97b47417f951856d456e53acf2778b9aa98276148531c64736f6c63430008110033",
			"opcodes": "PUSH1 0x80 PUSH1 0x40 MSTORE PUSH1 0x1 PUSH1 0x8 SSTORE CALLVALUE DUP1 ISZERO PUSH3 0x16 JUMPI PUSH1 0x0 DUP1 REVERT JUMPDEST POP PUSH1 0x40 MLOAD DUP1 PUSH1 0x40 ADD PUSH1 0x40 MSTORE DUP1 PUSH1 0xA DUP2 MSTORE PUSH1 0x20 ADD PUSH32 0x426974417070734E465400000000000000000000000000000000000000000000 DUP2 MSTORE POP PUSH1 0x40 MLOAD DUP1 PUSH1 0x40 ADD PUSH1 0x40 MSTORE DUP1 PUSH1 0x4 DUP2 MSTORE PUSH1 0x20 ADD PUSH32 0x424E465400000000000000000000000000000000000000000000000000000000 DUP2 MSTORE POP DUP2 PUSH1 0x0 SWAP1 DUP2 PUSH3 0x94 SWAP2 SWAP1 PUSH3 0x329 JUMP JUMPDEST POP DUP1 PUSH1 0x1 SWAP1 DUP2 PUSH3 0xA6 SWAP2 SWAP1 PUSH3 0x329 JUMP JUMPDEST POP POP POP PUSH3 0x410 JUMP JUMPDEST PUSH1 0x0 DUP2 MLOAD SWAP1 POP SWAP2 SWAP1 POP JUMP JUMPDEST PUSH32 0x4E487B7100000000000000000000000000000000000000000000000000000000 PUSH1 0x0 MSTORE PUSH1 0x41 PUSH1 0x4 MSTORE PUSH1 0x24 PUSH1 0x0 REVERT JUMPDEST PUSH32 0x4E487B7100000000000000000000000000000000000000000000000000000000 PUSH1 0x0 MSTORE PUSH1 0x22 PUSH1 0x4 MSTORE PUSH1 0x24 PUSH1 0x0 REVERT JUMPDEST PUSH1 0x0 PUSH1 0x2 DUP3 DIV SWAP1 POP PUSH1 0x1 DUP3 AND DUP1 PUSH3 0x131 JUMPI PUSH1 0x7F DUP3 AND SWAP2 POP JUMPDEST PUSH1 0x20 DUP3 LT DUP2 SUB PUSH3 0x147 JUMPI PUSH3 0x146 PUSH3 0xE9 JUMP JUMPDEST JUMPDEST POP SWAP2 SWAP1 POP JUMP JUMPDEST PUSH1 0x0 DUP2 SWAP1 POP DUP2 PUSH1 0x0 MSTORE PUSH1 0x20 PUSH1 0x0 KECCAK256 SWAP1 POP SWAP2 SWAP1 POP JUMP JUMPDEST PUSH1 0x0 PUSH1 0x20 PUSH1 0x1F DUP4 ADD DIV SWAP1 POP SWAP2 SWAP1 POP JUMP JUMPDEST PUSH1 0x0 DUP3 DUP3 SHL SWAP1 POP SWAP3 SWAP2 POP POP JUMP JUMPDEST PUSH1 0x0 PUSH1 0x8 DUP4 MUL PUSH3 0x1B1 PUSH32 0xFFFFFFFFFFFFFFFFFFFFFFFFFFFFFFFFFFFFFFFFFFFFFFFFFFFFFFFFFFFFFFFF DUP3 PUSH3 0x172 JUMP JUMPDEST PUSH3 0x1BD DUP7 DUP4 PUSH3 0x172 JUMP JUMPDEST SWAP6 POP DUP1 NOT DUP5 AND SWAP4 POP DUP1 DUP7 AND DUP5 OR SWAP3 POP POP POP SWAP4 SWAP3 POP POP POP JUMP JUMPDEST PUSH1 0x0 DUP2 SWAP1 POP SWAP2 SWAP1 POP JUMP JUMPDEST PUSH1 0x0 DUP2 SWAP1 POP SWAP2 SWAP1 POP JUMP JUMPDEST PUSH1 0x0 PUSH3 0x20A PUSH3 0x204 PUSH3 0x1FE DUP5 PUSH3 0x1D5 JUMP JUMPDEST PUSH3 0x1DF JUMP JUMPDEST PUSH3 0x1D5 JUMP JUMPDEST SWAP1 POP SWAP2 SWAP1 POP JUMP JUMPDEST PUSH1 0x0 DUP2 SWAP1 POP SWAP2 SWAP1 POP JUMP JUMPDEST PUSH3 0x226 DUP4 PUSH3 0x1E9 JUMP JUMPDEST PUSH3 0x23E PUSH3 0x235 DUP3 PUSH3 0x211 JUMP JUMPDEST DUP5 DUP5 SLOAD PUSH3 0x17F JUMP JUMPDEST DUP3 SSTORE POP POP POP POP JUMP JUMPDEST PUSH1 0x0 SWAP1 JUMP JUMPDEST PUSH3 0x255 PUSH3 0x246 JUMP JUMPDEST PUSH3 0x262 DUP2 DUP5 DUP5 PUSH3 0x21B JUMP JUMPDEST POP POP POP JUMP JUMPDEST JUMPDEST DUP2 DUP2 LT ISZERO PUSH3 0x28A JUMPI PUSH3 0x27E PUSH1 0x0 DUP3 PUSH3 0x24B JUMP JUMPDEST PUSH1 0x1 DUP2 ADD SWAP1 POP PUSH3 0x268 JUMP JUMPDEST POP POP JUMP JUMPDEST PUSH1 0x1F DUP3 GT ISZERO PUSH3 0x2D9 JUMPI PUSH3 0x2A3 DUP2 PUSH3 0x14D JUMP JUMPDEST PUSH3 0x2AE DUP5 PUSH3 0x162 JUMP JUMPDEST DUP2 ADD PUSH1 0x20 DUP6 LT ISZERO PUSH3 0x2BE JUMPI DUP2 SWAP1 POP JUMPDEST PUSH3 0x2D6 PUSH3 0x2CD DUP6 PUSH3 0x162 JUMP JUMPDEST DUP4 ADD DUP3 PUSH3 0x267 JUMP JUMPDEST POP POP JUMPDEST POP POP POP JUMP JUMPDEST PUSH1 0x0 DUP3 DUP3 SHR SWAP1 POP SWAP3 SWAP2 POP POP JUMP JUMPDEST PUSH1 0x0 PUSH3 0x2FE PUSH1 0x0 NOT DUP5 PUSH1 0x8 MUL PUSH3 0x2DE JUMP JUMPDEST NOT DUP1 DUP4 AND SWAP2 POP POP SWAP3 SWAP2 POP POP JUMP JUMPDEST PUSH1 0x0 PUSH3 0x319 DUP4 DUP4 PUSH3 0x2EB JUMP JUMPDEST SWAP2 POP DUP3 PUSH1 0x2 MUL DUP3 OR SWAP1 POP SWAP3 SWAP2 POP POP JUMP JUMPDEST PUSH3 0x334 DUP3 PUSH3 0xAF JUMP JUMPDEST PUSH8 0xFFFFFFFFFFFFFFFF DUP2 GT ISZERO PUSH3 0x350 JUMPI PUSH3 0x34F PUSH3 0xBA JUMP JUMPDEST JUMPDEST PUSH3 0x35C DUP3 SLOAD PUSH3 0x118 JUMP JUMPDEST PUSH3 0x369 DUP3 DUP3 DUP6 PUSH3 0x28E JUMP JUMPDEST PUSH1 0x0 PUSH1 0x20 SWAP1 POP PUSH1 0x1F DUP4 GT PUSH1 0x1 DUP2 EQ PUSH3 0x3A1 JUMPI PUSH1 0x0 DUP5 ISZERO PUSH3 0x38C JUMPI DUP3 DUP8 ADD MLOAD SWAP1 POP JUMPDEST PUSH3 0x398 DUP6 DUP3 PUSH3 0x30B JUMP JUMPDEST DUP7 SSTORE POP PUSH3 0x408 JUMP JUMPDEST PUSH1 0x1F NOT DUP5 AND PUSH3 0x3B1 DUP7 PUSH3 0x14D JUMP JUMPDEST PUSH1 0x0 JUMPDEST DUP3 DUP2 LT ISZERO PUSH3 0x3DB JUMPI DUP5 DUP10 ADD MLOAD DUP3 SSTORE PUSH1 0x1 DUP3 ADD SWAP2 POP PUSH1 0x20 DUP6 ADD SWAP5 POP PUSH1 0x20 DUP2 ADD SWAP1 POP PUSH3 0x3B4 JUMP JUMPDEST DUP7 DUP4 LT ISZERO PUSH3 0x3FB JUMPI DUP5 DUP10 ADD MLOAD PUSH3 0x3F7 PUSH1 0x1F DUP10 AND DUP3 PUSH3 0x2EB JUMP JUMPDEST DUP4 SSTORE POP JUMPDEST PUSH1 0x1 PUSH1 0x2 DUP9 MUL ADD DUP9 SSTORE POP POP POP JUMPDEST POP POP POP POP POP POP JUMP JUMPDEST PUSH2 0x2DA5 DUP1 PUSH3 0x420 PUSH1 0x0 CODECOPY PUSH1 0x0 RETURN INVALID PUSH1 0x80 PUSH1 0x40 MSTORE CALLVALUE DUP1 ISZERO PUSH2 0x10 JUMPI PUSH1 0x0 DUP1 REVERT JUMPDEST POP PUSH1 0x4 CALLDATASIZE LT PUSH2 0x142 JUMPI PUSH1 0x0 CALLDATALOAD PUSH1 0xE0 SHR DUP1 PUSH4 0x70A08231 GT PUSH2 0xB8 JUMPI DUP1 PUSH4 0xB3154C08 GT PUSH2 0x7C JUMPI DUP1 PUSH4 0xB3154C08 EQ PUSH2 0x385 JUMPI DUP1 PUSH4 0xB88D4FDE EQ PUSH2 0x3B5 JUMPI DUP1 PUSH4 0xC87B56DD EQ PUSH2 0x3D1 JUMPI DUP1 PUSH4 0xC8DF1166 EQ PUSH2 0x401 JUMPI DUP1 PUSH4 0xD082E381 EQ PUSH2 0x431 JUMPI DUP1 PUSH4 0xE985E9C5 EQ PUSH2 0x44F JUMPI PUSH2 0x142 JUMP JUMPDEST DUP1 PUSH4 0x70A08231 EQ PUSH2 0x2CF JUMPI DUP1 PUSH4 0x71F0442E EQ PUSH2 0x2FF JUMPI DUP1 PUSH4 0x95D89B41 EQ PUSH2 0x32F JUMPI DUP1 PUSH4 0x99071190 EQ PUSH2 0x34D JUMPI DUP1 PUSH4 0xA22CB465 EQ PUSH2 0x369 JUMPI PUSH2 0x142 JUMP JUMPDEST DUP1 PUSH4 0x23B872DD GT PUSH2 0x10A JUMPI DUP1 PUSH4 0x23B872DD EQ PUSH2 0x211 JUMPI DUP1 PUSH4 0x246A908B EQ PUSH2 0x22D JUMPI DUP1 PUSH4 0x42842E0E EQ PUSH2 0x249 JUMPI DUP1 PUSH4 0x6352211E EQ PUSH2 0x265 JUMPI DUP1 PUSH4 0x64140EC0 EQ PUSH2 0x295 JUMPI DUP1 PUSH4 0x6E02007D EQ PUSH2 0x2B1 JUMPI PUSH2 0x142 JUMP JUMPDEST DUP1 PUSH4 0x1FFC9A7 EQ PUSH2 0x147 JUMPI DUP1 PUSH4 0x6FDDE03 EQ PUSH2 0x177 JUMPI DUP1 PUSH4 0x81812FC EQ PUSH2 0x195 JUMPI DUP1 PUSH4 0x95EA7B3 EQ PUSH2 0x1C5 JUMPI DUP1 PUSH4 0x10795DCC EQ PUSH2 0x1E1 JUMPI JUMPDEST PUSH1 0x0 DUP1 REVERT JUMPDEST PUSH2 0x161 PUSH1 0x4 DUP1 CALLDATASIZE SUB DUP2 ADD SWAP1 PUSH2 0x15C SWAP2 SWAP1 PUSH2 0x1B2B JUMP JUMPDEST PUSH2 0x47F JUMP JUMPDEST PUSH1 0x40 MLOAD PUSH2 0x16E SWAP2 SWAP1 PUSH2 0x1B73 JUMP JUMPDEST PUSH1 0x40 MLOAD DUP1 SWAP2 SUB SWAP1 RETURN JUMPDEST PUSH2 0x17F PUSH2 0x561 JUMP JUMPDEST PUSH1 0x40 MLOAD PUSH2 0x18C SWAP2 SWAP1 PUSH2 0x1C1E JUMP JUMPDEST PUSH1 0x40 MLOAD DUP1 SWAP2 SUB SWAP1 RETURN JUMPDEST PUSH2 0x1AF PUSH1 0x4 DUP1 CALLDATASIZE SUB DUP2 ADD SWAP1 PUSH2 0x1AA SWAP2 SWAP1 PUSH2 0x1C76 JUMP JUMPDEST PUSH2 0x5F3 JUMP JUMPDEST PUSH1 0x40 MLOAD PUSH2 0x1BC SWAP2 SWAP1 PUSH2 0x1CE4 JUMP JUMPDEST PUSH1 0x40 MLOAD DUP1 SWAP2 SUB SWAP1 RETURN JUMPDEST PUSH2 0x1DF PUSH1 0x4 DUP1 CALLDATASIZE SUB DUP2 ADD SWAP1 PUSH2 0x1DA SWAP2 SWAP1 PUSH2 0x1D2B JUMP JUMPDEST PUSH2 0x639 JUMP JUMPDEST STOP JUMPDEST PUSH2 0x1FB PUSH1 0x4 DUP1 CALLDATASIZE SUB DUP2 ADD SWAP1 PUSH2 0x1F6 SWAP2 SWAP1 PUSH2 0x1C76 JUMP JUMPDEST PUSH2 0x750 JUMP JUMPDEST PUSH1 0x40 MLOAD PUSH2 0x208 SWAP2 SWAP1 PUSH2 0x1C1E JUMP JUMPDEST PUSH1 0x40 MLOAD DUP1 SWAP2 SUB SWAP1 RETURN JUMPDEST PUSH2 0x22B PUSH1 0x4 DUP1 CALLDATASIZE SUB DUP2 ADD SWAP1 PUSH2 0x226 SWAP2 SWAP1 PUSH2 0x1D6B JUMP JUMPDEST PUSH2 0x7F0 JUMP JUMPDEST STOP JUMPDEST PUSH2 0x247 PUSH1 0x4 DUP1 CALLDATASIZE SUB DUP2 ADD SWAP1 PUSH2 0x242 SWAP2 SWAP1 PUSH2 0x1EF3 JUMP JUMPDEST PUSH2 0x850 JUMP JUMPDEST STOP JUMPDEST PUSH2 0x263 PUSH1 0x4 DUP1 CALLDATASIZE SUB DUP2 ADD SWAP1 PUSH2 0x25E SWAP2 SWAP1 PUSH2 0x1D6B JUMP JUMPDEST PUSH2 0x875 JUMP JUMPDEST STOP JUMPDEST PUSH2 0x27F PUSH1 0x4 DUP1 CALLDATASIZE SUB DUP2 ADD SWAP1 PUSH2 0x27A SWAP2 SWAP1 PUSH2 0x1C76 JUMP JUMPDEST PUSH2 0x895 JUMP JUMPDEST PUSH1 0x40 MLOAD PUSH2 0x28C SWAP2 SWAP1 PUSH2 0x1CE4 JUMP JUMPDEST PUSH1 0x40 MLOAD DUP1 SWAP2 SUB SWAP1 RETURN JUMPDEST PUSH2 0x2AF PUSH1 0x4 DUP1 CALLDATASIZE SUB DUP2 ADD SWAP1 PUSH2 0x2AA SWAP2 SWAP1 PUSH2 0x1EF3 JUMP JUMPDEST PUSH2 0x946 JUMP JUMPDEST STOP JUMPDEST PUSH2 0x2B9 PUSH2 0x96B JUMP JUMPDEST PUSH1 0x40 MLOAD PUSH2 0x2C6 SWAP2 SWAP1 PUSH2 0x1F5E JUMP JUMPDEST PUSH1 0x40 MLOAD DUP1 SWAP2 SUB SWAP1 RETURN JUMPDEST PUSH2 0x2E9 PUSH1 0x4 DUP1 CALLDATASIZE SUB DUP2 ADD SWAP1 PUSH2 0x2E4 SWAP2 SWAP1 PUSH2 0x1F79 JUMP JUMPDEST PUSH2 0x981 JUMP JUMPDEST PUSH1 0x40 MLOAD PUSH2 0x2F6 SWAP2 SWAP1 PUSH2 0x1F5E JUMP JUMPDEST PUSH1 0x40 MLOAD DUP1 SWAP2 SUB SWAP1 RETURN JUMPDEST PUSH2 0x319 PUSH1 0x4 DUP1 CALLDATASIZE SUB DUP2 ADD SWAP1 PUSH2 0x314 SWAP2 SWAP1 PUSH2 0x1C76 JUMP JUMPDEST PUSH2 0xA38 JUMP JUMPDEST PUSH1 0x40 MLOAD PUSH2 0x326 SWAP2 SWAP1 PUSH2 0x1C1E JUMP JUMPDEST PUSH1 0x40 MLOAD DUP1 SWAP2 SUB SWAP1 RETURN JUMPDEST PUSH2 0x337 PUSH2 0xADD JUMP JUMPDEST PUSH1 0x40 MLOAD PUSH2 0x344 SWAP2 SWAP1 PUSH2 0x1C1E JUMP JUMPDEST PUSH1 0x40 MLOAD DUP1 SWAP2 SUB SWAP1 RETURN JUMPDEST PUSH2 0x367 PUSH1 0x4 DUP1 CALLDATASIZE SUB DUP2 ADD SWAP1 PUSH2 0x362 SWAP2 SWAP1 PUSH2 0x1FA6 JUMP JUMPDEST PUSH2 0xB6F JUMP JUMPDEST STOP JUMPDEST PUSH2 0x383 PUSH1 0x4 DUP1 CALLDATASIZE SUB DUP2 ADD SWAP1 PUSH2 0x37E SWAP2 SWAP1 PUSH2 0x205D JUMP JUMPDEST PUSH2 0xBDE JUMP JUMPDEST STOP JUMPDEST PUSH2 0x39F PUSH1 0x4 DUP1 CALLDATASIZE SUB DUP2 ADD SWAP1 PUSH2 0x39A SWAP2 SWAP1 PUSH2 0x1C76 JUMP JUMPDEST PUSH2 0xBF4 JUMP JUMPDEST PUSH1 0x40 MLOAD PUSH2 0x3AC SWAP2 SWAP1 PUSH2 0x1C1E JUMP JUMPDEST PUSH1 0x40 MLOAD DUP1 SWAP2 SUB SWAP1 RETURN JUMPDEST PUSH2 0x3CF PUSH1 0x4 DUP1 CALLDATASIZE SUB DUP2 ADD SWAP1 PUSH2 0x3CA SWAP2 SWAP1 PUSH2 0x213E JUMP JUMPDEST PUSH2 0xC99 JUMP JUMPDEST STOP JUMPDEST PUSH2 0x3EB PUSH1 0x4 DUP1 CALLDATASIZE SUB DUP2 ADD SWAP1 PUSH2 0x3E6 SWAP2 SWAP1 PUSH2 0x1C76 JUMP JUMPDEST PUSH2 0xCFB JUMP JUMPDEST PUSH1 0x40 MLOAD PUSH2 0x3F8 SWAP2 SWAP1 PUSH2 0x1C1E JUMP JUMPDEST PUSH1 0x40 MLOAD DUP1 SWAP2 SUB SWAP1 RETURN JUMPDEST PUSH2 0x41B PUSH1 0x4 DUP1 CALLDATASIZE SUB DUP2 ADD SWAP1 PUSH2 0x416 SWAP2 SWAP1 PUSH2 0x1C76 JUMP JUMPDEST PUSH2 0xD63 JUMP JUMPDEST PUSH1 0x40 MLOAD PUSH2 0x428 SWAP2 SWAP1 PUSH2 0x1C1E JUMP JUMPDEST PUSH1 0x40 MLOAD DUP1 SWAP2 SUB SWAP1 RETURN JUMPDEST PUSH2 0x439 PUSH2 0xE03 JUMP JUMPDEST PUSH1 0x40 MLOAD PUSH2 0x446 SWAP2 SWAP1 PUSH2 0x1F5E JUMP JUMPDEST PUSH1 0x40 MLOAD DUP1 SWAP2 SUB SWAP1 RETURN JUMPDEST PUSH2 0x469 PUSH1 0x4 DUP1 CALLDATASIZE SUB DUP2 ADD SWAP1 PUSH2 0x464 SWAP2 SWAP1 PUSH2 0x21C1 JUMP JUMPDEST PUSH2 0xE09 JUMP JUMPDEST PUSH1 0x40 MLOAD PUSH2 0x476 SWAP2 SWAP1 PUSH2 0x1B73 JUMP JUMPDEST PUSH1 0x40 MLOAD DUP1 SWAP2 SUB SWAP1 RETURN JUMPDEST PUSH1 0x0 PUSH32 0x80AC58CD00000000000000000000000000000000000000000000000000000000 PUSH28 0xFFFFFFFFFFFFFFFFFFFFFFFFFFFFFFFFFFFFFFFFFFFFFFFFFFFFFFFF NOT AND DUP3 PUSH28 0xFFFFFFFFFFFFFFFFFFFFFFFFFFFFFFFFFFFFFFFFFFFFFFFFFFFFFFFF NOT AND EQ DUP1 PUSH2 0x54A JUMPI POP PUSH32 0x5B5E139F00000000000000000000000000000000000000000000000000000000 PUSH28 0xFFFFFFFFFFFFFFFFFFFFFFFFFFFFFFFFFFFFFFFFFFFFFFFFFFFFFFFF NOT AND DUP3 PUSH28 0xFFFFFFFFFFFFFFFFFFFFFFFFFFFFFFFFFFFFFFFFFFFFFFFFFFFFFFFF NOT AND EQ JUMPDEST DUP1 PUSH2 0x55A JUMPI POP PUSH2 0x559 DUP3 PUSH2 0xE9D JUMP JUMPDEST JUMPDEST SWAP1 POP SWAP2 SWAP1 POP JUMP JUMPDEST PUSH1 0x60 PUSH1 0x0 DUP1 SLOAD PUSH2 0x570 SWAP1 PUSH2 0x2230 JUMP JUMPDEST DUP1 PUSH1 0x1F ADD PUSH1 0x20 DUP1 SWAP2 DIV MUL PUSH1 0x20 ADD PUSH1 0x40 MLOAD SWAP1 DUP2 ADD PUSH1 0x40 MSTORE DUP1 SWAP3 SWAP2 SWAP1 DUP2 DUP2 MSTORE PUSH1 0x20 ADD DUP3 DUP1 SLOAD PUSH2 0x59C SWAP1 PUSH2 0x2230 JUMP JUMPDEST DUP1 ISZERO PUSH2 0x5E9 JUMPI DUP1 PUSH1 0x1F LT PUSH2 0x5BE JUMPI PUSH2 0x100 DUP1 DUP4 SLOAD DIV MUL DUP4 MSTORE SWAP2 PUSH1 0x20 ADD SWAP2 PUSH2 0x5E9 JUMP JUMPDEST DUP3 ADD SWAP2 SWAP1 PUSH1 0x0 MSTORE PUSH1 0x20 PUSH1 0x0 KECCAK256 SWAP1 JUMPDEST DUP2 SLOAD DUP2 MSTORE SWAP1 PUSH1 0x1 ADD SWAP1 PUSH1 0x20 ADD DUP1 DUP4 GT PUSH2 0x5CC JUMPI DUP3 SWAP1 SUB PUSH1 0x1F AND DUP3 ADD SWAP2 JUMPDEST POP POP POP POP POP SWAP1 POP SWAP1 JUMP JUMPDEST PUSH1 0x0 PUSH2 0x5FE DUP3 PUSH2 0xF07 JUMP JUMPDEST PUSH1 0x4 PUSH1 0x0 DUP4 DUP2 MSTORE PUSH1 0x20 ADD SWAP1 DUP2 MSTORE PUSH1 0x20 ADD PUSH1 0x0 KECCAK256 PUSH1 0x0 SWAP1 SLOAD SWAP1 PUSH2 0x100 EXP SWAP1 DIV PUSH20 0xFFFFFFFFFFFFFFFFFFFFFFFFFFFFFFFFFFFFFFFF AND SWAP1 POP SWAP2 SWAP1 POP JUMP JUMPDEST PUSH1 0x0 PUSH2 0x644 DUP3 PUSH2 0x895 JUMP JUMPDEST SWAP1 POP DUP1 PUSH20 0xFFFFFFFFFFFFFFFFFFFFFFFFFFFFFFFFFFFFFFFF AND DUP4 PUSH20 0xFFFFFFFFFFFFFFFFFFFFFFFFFFFFFFFFFFFFFFFF AND SUB PUSH2 0x6B4 JUMPI PUSH1 0x40 MLOAD PUSH32 0x8C379A000000000000000000000000000000000000000000000000000000000 DUP2 MSTORE PUSH1 0x4 ADD PUSH2 0x6AB SWAP1 PUSH2 0x22D3 JUMP JUMPDEST PUSH1 0x40 MLOAD DUP1 SWAP2 SUB SWAP1 REVERT JUMPDEST DUP1 PUSH20 0xFFFFFFFFFFFFFFFFFFFFFFFFFFFFFFFFFFFFFFFF AND PUSH2 0x6D3 PUSH2 0xF52 JUMP JUMPDEST PUSH20 0xFFFFFFFFFFFFFFFFFFFFFFFFFFFFFFFFFFFFFFFF AND EQ DUP1 PUSH2 0x702 JUMPI POP PUSH2 0x701 DUP2 PUSH2 0x6FC PUSH2 0xF52 JUMP JUMPDEST PUSH2 0xE09 JUMP JUMPDEST JUMPDEST PUSH2 0x741 JUMPI PUSH1 0x40 MLOAD PUSH32 0x8C379A000000000000000000000000000000000000000000000000000000000 DUP2 MSTORE PUSH1 0x4 ADD PUSH2 0x738 SWAP1 PUSH2 0x2365 JUMP JUMPDEST PUSH1 0x40 MLOAD DUP1 SWAP2 SUB SWAP1 REVERT JUMPDEST PUSH2 0x74B DUP4 DUP4 PUSH2 0xF5A JUMP JUMPDEST POP POP POP JUMP JUMPDEST PUSH1 0x7 PUSH1 0x20 MSTORE DUP1 PUSH1 0x0 MSTORE PUSH1 0x40 PUSH1 0x0 KECCAK256 PUSH1 0x0 SWAP2 POP SWAP1 POP DUP1 SLOAD PUSH2 0x76F SWAP1 PUSH2 0x2230 JUMP JUMPDEST DUP1 PUSH1 0x1F ADD PUSH1 0x20 DUP1 SWAP2 DIV MUL PUSH1 0x20 ADD PUSH1 0x40 MLOAD SWAP1 DUP2 ADD PUSH1 0x40 MSTORE DUP1 SWAP3 SWAP2 SWAP1 DUP2 DUP2 MSTORE PUSH1 0x20 ADD DUP3 DUP1 SLOAD PUSH2 0x79B SWAP1 PUSH2 0x2230 JUMP JUMPDEST DUP1 ISZERO PUSH2 0x7E8 JUMPI DUP1 PUSH1 0x1F LT PUSH2 0x7BD JUMPI PUSH2 0x100 DUP1 DUP4 SLOAD DIV MUL DUP4 MSTORE SWAP2 PUSH1 0x20 ADD SWAP2 PUSH2 0x7E8 JUMP JUMPDEST DUP3 ADD SWAP2 SWAP1 PUSH1 0x0 MSTORE PUSH1 0x20 PUSH1 0x0 KECCAK256 SWAP1 JUMPDEST DUP2 SLOAD DUP2 MSTORE SWAP1 PUSH1 0x1 ADD SWAP1 PUSH1 0x20 ADD DUP1 DUP4 GT PUSH2 0x7CB JUMPI DUP3 SWAP1 SUB PUSH1 0x1F AND DUP3 ADD SWAP2 JUMPDEST POP POP POP POP POP DUP2 JUMP JUMPDEST PUSH2 0x801 PUSH2 0x7FB PUSH2 0xF52 JUMP JUMPDEST DUP3 PUSH2 0x1013 JUMP JUMPDEST PUSH2 0x840 JUMPI PUSH1 0x40 MLOAD PUSH32 0x8C379A000000000000000000000000000000000000000000000000000000000 DUP2 MSTORE PUSH1 0x4 ADD PUSH2 0x837 SWAP1 PUSH2 0x23F7 JUMP JUMPDEST PUSH1 0x40 MLOAD DUP1 SWAP2 SUB SWAP1 REVERT JUMPDEST PUSH2 0x84B DUP4 DUP4 DUP4 PUSH2 0x10A8 JUMP JUMPDEST POP POP POP JUMP JUMPDEST DUP1 PUSH1 0x6 PUSH1 0x0 DUP5 DUP2 MSTORE PUSH1 0x20 ADD SWAP1 DUP2 MSTORE PUSH1 0x20 ADD PUSH1 0x0 KECCAK256 SWAP1 DUP2 PUSH2 0x870 SWAP2 SWAP1 PUSH2 0x25C3 JUMP JUMPDEST POP POP POP JUMP JUMPDEST PUSH2 0x890 DUP4 DUP4 DUP4 PUSH1 0x40 MLOAD DUP1 PUSH1 0x20 ADD PUSH1 0x40 MSTORE DUP1 PUSH1 0x0 DUP2 MSTORE POP PUSH2 0xC99 JUMP JUMPDEST POP POP POP JUMP JUMPDEST PUSH1 0x0 DUP1 PUSH1 0x2 PUSH1 0x0 DUP5 DUP2 MSTORE PUSH1 0x20 ADD SWAP1 DUP2 MSTORE PUSH1 0x20 ADD PUSH1 0x0 KECCAK256 PUSH1 0x0 SWAP1 SLOAD SWAP1 PUSH2 0x100 EXP SWAP1 DIV PUSH20 0xFFFFFFFFFFFFFFFFFFFFFFFFFFFFFFFFFFFFFFFF AND SWAP1 POP PUSH1 0x0 PUSH20 0xFFFFFFFFFFFFFFFFFFFFFFFFFFFFFFFFFFFFFFFF AND DUP2 PUSH20 0xFFFFFFFFFFFFFFFFFFFFFFFFFFFFFFFFFFFFFFFF AND SUB PUSH2 0x93D JUMPI PUSH1 0x40 MLOAD PUSH32 0x8C379A000000000000000000000000000000000000000000000000000000000 DUP2 MSTORE PUSH1 0x4 ADD PUSH2 0x934 SWAP1 PUSH2 0x26E1 JUMP JUMPDEST PUSH1 0x40 MLOAD DUP1 SWAP2 SUB SWAP1 REVERT JUMPDEST DUP1 SWAP2 POP POP SWAP2 SWAP1 POP JUMP JUMPDEST DUP1 PUSH1 0x7 PUSH1 0x0 DUP5 DUP2 MSTORE PUSH1 0x20 ADD SWAP1 DUP2 MSTORE PUSH1 0x20 ADD PUSH1 0x0 KECCAK256 SWAP1 DUP2 PUSH2 0x966 SWAP2 SWAP1 PUSH2 0x25C3 JUMP JUMPDEST POP POP POP JUMP JUMPDEST PUSH1 0x0 PUSH1 0x1 PUSH1 0x8 SLOAD PUSH2 0x97C SWAP2 SWAP1 PUSH2 0x2730 JUMP JUMPDEST SWAP1 POP SWAP1 JUMP JUMPDEST PUSH1 0x0 DUP1 PUSH20 0xFFFFFFFFFFFFFFFFFFFFFFFFFFFFFFFFFFFFFFFF AND DUP3 PUSH20 0xFFFFFFFFFFFFFFFFFFFFFFFFFFFFFFFFFFFFFFFF AND SUB PUSH2 0x9F1 JUMPI PUSH1 0x40 MLOAD PUSH32 0x8C379A000000000000000000000000000000000000000000000000000000000 DUP2 MSTORE PUSH1 0x4 ADD PUSH2 0x9E8 SWAP1 PUSH2 0x27D6 JUMP JUMPDEST PUSH1 0x40 MLOAD DUP1 SWAP2 SUB SWAP1 REVERT JUMPDEST PUSH1 0x3 PUSH1 0x0 DUP4 PUSH20 0xFFFFFFFFFFFFFFFFFFFFFFFFFFFFFFFFFFFFFFFF AND PUSH20 0xFFFFFFFFFFFFFFFFFFFFFFFFFFFFFFFFFFFFFFFF AND DUP2 MSTORE PUSH1 0x20 ADD SWAP1 DUP2 MSTORE PUSH1 0x20 ADD PUSH1 0x0 KECCAK256 SLOAD SWAP1 POP SWAP2 SWAP1 POP JUMP JUMPDEST PUSH1 0x60 PUSH1 0x7 PUSH1 0x0 DUP4 DUP2 MSTORE PUSH1 0x20 ADD SWAP1 DUP2 MSTORE PUSH1 0x20 ADD PUSH1 0x0 KECCAK256 DUP1 SLOAD PUSH2 0xA58 SWAP1 PUSH2 0x2230 JUMP JUMPDEST DUP1 PUSH1 0x1F ADD PUSH1 0x20 DUP1 SWAP2 DIV MUL PUSH1 0x20 ADD PUSH1 0x40 MLOAD SWAP1 DUP2 ADD PUSH1 0x40 MSTORE DUP1 SWAP3 SWAP2 SWAP1 DUP2 DUP2 MSTORE PUSH1 0x20 ADD DUP3 DUP1 SLOAD PUSH2 0xA84 SWAP1 PUSH2 0x2230 JUMP JUMPDEST DUP1 ISZERO PUSH2 0xAD1 JUMPI DUP1 PUSH1 0x1F LT PUSH2 0xAA6 JUMPI PUSH2 0x100 DUP1 DUP4 SLOAD DIV MUL DUP4 MSTORE SWAP2 PUSH1 0x20 ADD SWAP2 PUSH2 0xAD1 JUMP JUMPDEST DUP3 ADD SWAP2 SWAP1 PUSH1 0x0 MSTORE PUSH1 0x20 PUSH1 0x0 KECCAK256 SWAP1 JUMPDEST DUP2 SLOAD DUP2 MSTORE SWAP1 PUSH1 0x1 ADD SWAP1 PUSH1 0x20 ADD DUP1 DUP4 GT PUSH2 0xAB4 JUMPI DUP3 SWAP1 SUB PUSH1 0x1F AND DUP3 ADD SWAP2 JUMPDEST POP POP POP POP POP SWAP1 POP SWAP2 SWAP1 POP JUMP JUMPDEST PUSH1 0x60 PUSH1 0x1 DUP1 SLOAD PUSH2 0xAEC SWAP1 PUSH2 0x2230 JUMP JUMPDEST DUP1 PUSH1 0x1F ADD PUSH1 0x20 DUP1 SWAP2 DIV MUL PUSH1 0x20 ADD PUSH1 0x40 MLOAD SWAP1 DUP2 ADD PUSH1 0x40 MSTORE DUP1 SWAP3 SWAP2 SWAP1 DUP2 DUP2 MSTORE PUSH1 0x20 ADD DUP3 DUP1 SLOAD PUSH2 0xB18 SWAP1 PUSH2 0x2230 JUMP JUMPDEST DUP1 ISZERO PUSH2 0xB65 JUMPI DUP1 PUSH1 0x1F LT PUSH2 0xB3A JUMPI PUSH2 0x100 DUP1 DUP4 SLOAD DIV MUL DUP4 MSTORE SWAP2 PUSH1 0x20 ADD SWAP2 PUSH2 0xB65 JUMP JUMPDEST DUP3 ADD SWAP2 SWAP1 PUSH1 0x0 MSTORE PUSH1 0x20 PUSH1 0x0 KECCAK256 SWAP1 JUMPDEST DUP2 SLOAD DUP2 MSTORE SWAP1 PUSH1 0x1 ADD SWAP1 PUSH1 0x20 ADD DUP1 DUP4 GT PUSH2 0xB48 JUMPI DUP3 SWAP1 SUB PUSH1 0x1F AND DUP3 ADD SWAP2 JUMPDEST POP POP POP POP POP SWAP1 POP SWAP1 JUMP JUMPDEST PUSH2 0xB7B DUP4 PUSH1 0x8 SLOAD PUSH2 0x130E JUMP JUMPDEST PUSH1 0x8 PUSH1 0x0 DUP2 SLOAD DUP1 SWAP3 SWAP2 SWAP1 PUSH2 0xB8E SWAP1 PUSH2 0x27F6 JUMP JUMPDEST SWAP2 SWAP1 POP SSTORE POP DUP2 PUSH1 0x6 PUSH1 0x0 PUSH1 0x8 SLOAD DUP2 MSTORE PUSH1 0x20 ADD SWAP1 DUP2 MSTORE PUSH1 0x20 ADD PUSH1 0x0 KECCAK256 SWAP1 DUP2 PUSH2 0xBB5 SWAP2 SWAP1 PUSH2 0x25C3 JUMP JUMPDEST POP DUP1 PUSH1 0x7 PUSH1 0x0 PUSH1 0x8 SLOAD DUP2 MSTORE PUSH1 0x20 ADD SWAP1 DUP2 MSTORE PUSH1 0x20 ADD PUSH1 0x0 KECCAK256 SWAP1 DUP2 PUSH2 0xBD8 SWAP2 SWAP1 PUSH2 0x25C3 JUMP JUMPDEST POP POP POP POP JUMP JUMPDEST PUSH2 0xBF0 PUSH2 0xBE9 PUSH2 0xF52 JUMP JUMPDEST DUP4 DUP4 PUSH2 0x132C JUMP JUMPDEST POP POP JUMP JUMPDEST PUSH1 0x60 PUSH1 0x6 PUSH1 0x0 DUP4 DUP2 MSTORE PUSH1 0x20 ADD SWAP1 DUP2 MSTORE PUSH1 0x20 ADD PUSH1 0x0 KECCAK256 DUP1 SLOAD PUSH2 0xC14 SWAP1 PUSH2 0x2230 JUMP JUMPDEST DUP1 PUSH1 0x1F ADD PUSH1 0x20 DUP1 SWAP2 DIV MUL PUSH1 0x20 ADD PUSH1 0x40 MLOAD SWAP1 DUP2 ADD PUSH1 0x40 MSTORE DUP1 SWAP3 SWAP2 SWAP1 DUP2 DUP2 MSTORE PUSH1 0x20 ADD DUP3 DUP1 SLOAD PUSH2 0xC40 SWAP1 PUSH2 0x2230 JUMP JUMPDEST DUP1 ISZERO PUSH2 0xC8D JUMPI DUP1 PUSH1 0x1F LT PUSH2 0xC62 JUMPI PUSH2 0x100 DUP1 DUP4 SLOAD DIV MUL DUP4 MSTORE SWAP2 PUSH1 0x20 ADD SWAP2 PUSH2 0xC8D JUMP JUMPDEST DUP3 ADD SWAP2 SWAP1 PUSH1 0x0 MSTORE PUSH1 0x20 PUSH1 0x0 KECCAK256 SWAP1 JUMPDEST DUP2 SLOAD DUP2 MSTORE SWAP1 PUSH1 0x1 ADD SWAP1 PUSH1 0x20 ADD DUP1 DUP4 GT PUSH2 0xC70 JUMPI DUP3 SWAP1 SUB PUSH1 0x1F AND DUP3 ADD SWAP2 JUMPDEST POP POP POP POP POP SWAP1 POP SWAP2 SWAP1 POP JUMP JUMPDEST PUSH2 0xCAA PUSH2 0xCA4 PUSH2 0xF52 JUMP JUMPDEST DUP4 PUSH2 0x1013 JUMP JUMPDEST PUSH2 0xCE9 JUMPI PUSH1 0x40 MLOAD PUSH32 0x8C379A000000000000000000000000000000000000000000000000000000000 DUP2 MSTORE PUSH1 0x4 ADD PUSH2 0xCE0 SWAP1 PUSH2 0x23F7 JUMP JUMPDEST PUSH1 0x40 MLOAD DUP1 SWAP2 SUB SWAP1 REVERT JUMPDEST PUSH2 0xCF5 DUP5 DUP5 DUP5 DUP5 PUSH2 0x1498 JUMP JUMPDEST POP POP POP POP JUMP JUMPDEST PUSH1 0x60 PUSH2 0xD06 DUP3 PUSH2 0xF07 JUMP JUMPDEST PUSH1 0x0 PUSH2 0xD10 PUSH2 0x14F4 JUMP JUMPDEST SWAP1 POP PUSH1 0x0 DUP2 MLOAD GT PUSH2 0xD30 JUMPI PUSH1 0x40 MLOAD DUP1 PUSH1 0x20 ADD PUSH1 0x40 MSTORE DUP1 PUSH1 0x0 DUP2 MSTORE POP PUSH2 0xD5B JUMP JUMPDEST DUP1 PUSH2 0xD3A DUP5 PUSH2 0x150B JUMP JUMPDEST PUSH1 0x40 MLOAD PUSH1 0x20 ADD PUSH2 0xD4B SWAP3 SWAP2 SWAP1 PUSH2 0x287A JUMP JUMPDEST PUSH1 0x40 MLOAD PUSH1 0x20 DUP2 DUP4 SUB SUB DUP2 MSTORE SWAP1 PUSH1 0x40 MSTORE JUMPDEST SWAP2 POP POP SWAP2 SWAP1 POP JUMP JUMPDEST PUSH1 0x6 PUSH1 0x20 MSTORE DUP1 PUSH1 0x0 MSTORE PUSH1 0x40 PUSH1 0x0 KECCAK256 PUSH1 0x0 SWAP2 POP SWAP1 POP DUP1 SLOAD PUSH2 0xD82 SWAP1 PUSH2 0x2230 JUMP JUMPDEST DUP1 PUSH1 0x1F ADD PUSH1 0x20 DUP1 SWAP2 DIV MUL PUSH1 0x20 ADD PUSH1 0x40 MLOAD SWAP1 DUP2 ADD PUSH1 0x40 MSTORE DUP1 SWAP3 SWAP2 SWAP1 DUP2 DUP2 MSTORE PUSH1 0x20 ADD DUP3 DUP1 SLOAD PUSH2 0xDAE SWAP1 PUSH2 0x2230 JUMP JUMPDEST DUP1 ISZERO PUSH2 0xDFB JUMPI DUP1 PUSH1 0x1F LT PUSH2 0xDD0 JUMPI PUSH2 0x100 DUP1 DUP4 SLOAD DIV MUL DUP4 MSTORE SWAP2 PUSH1 0x20 ADD SWAP2 PUSH2 0xDFB JUMP JUMPDEST DUP3 ADD SWAP2 SWAP1 PUSH1 0x0 MSTORE PUSH1 0x20 PUSH1 0x0 KECCAK256 SWAP1 JUMPDEST DUP2 SLOAD DUP2 MSTORE SWAP1 PUSH1 0x1 ADD SWAP1 PUSH1 0x20 ADD DUP1 DUP4 GT PUSH2 0xDDE JUMPI DUP3 SWAP1 SUB PUSH1 0x1F AND DUP3 ADD SWAP2 JUMPDEST POP POP POP POP POP DUP2 JUMP JUMPDEST PUSH1 0x8 SLOAD DUP2 JUMP JUMPDEST PUSH1 0x0 PUSH1 0x5 PUSH1 0x0 DUP5 PUSH20 0xFFFFFFFFFFFFFFFFFFFFFFFFFFFFFFFFFFFFFFFF AND PUSH20 0xFFFFFFFFFFFFFFFFFFFFFFFFFFFFFFFFFFFFFFFF AND DUP2 MSTORE PUSH1 0x20 ADD SWAP1 DUP2 MSTORE PUSH1 0x20 ADD PUSH1 0x0 KECCAK256 PUSH1 0x0 DUP4 PUSH20 0xFFFFFFFFFFFFFFFFFFFFFFFFFFFFFFFFFFFFFFFF AND PUSH20 0xFFFFFFFFFFFFFFFFFFFFFFFFFFFFFFFFFFFFFFFF AND DUP2 MSTORE PUSH1 0x20 ADD SWAP1 DUP2 MSTORE PUSH1 0x20 ADD PUSH1 0x0 KECCAK256 PUSH1 0x0 SWAP1 SLOAD SWAP1 PUSH2 0x100 EXP SWAP1 DIV PUSH1 0xFF AND SWAP1 POP SWAP3 SWAP2 POP POP JUMP JUMPDEST PUSH1 0x0 PUSH32 0x1FFC9A700000000000000000000000000000000000000000000000000000000 PUSH28 0xFFFFFFFFFFFFFFFFFFFFFFFFFFFFFFFFFFFFFFFFFFFFFFFFFFFFFFFF NOT AND DUP3 PUSH28 0xFFFFFFFFFFFFFFFFFFFFFFFFFFFFFFFFFFFFFFFFFFFFFFFFFFFFFFFF NOT AND EQ SWAP1 POP SWAP2 SWAP1 POP JUMP JUMPDEST PUSH2 0xF10 DUP2 PUSH2 0x166B JUMP JUMPDEST PUSH2 0xF4F JUMPI PUSH1 0x40 MLOAD PUSH32 0x8C379A000000000000000000000000000000000000000000000000000000000 DUP2 MSTORE PUSH1 0x4 ADD PUSH2 0xF46 SWAP1 PUSH2 0x26E1 JUMP JUMPDEST PUSH1 0x40 MLOAD DUP1 SWAP2 SUB SWAP1 REVERT JUMPDEST POP JUMP JUMPDEST PUSH1 0x0 CALLER SWAP1 POP SWAP1 JUMP JUMPDEST DUP2 PUSH1 0x4 PUSH1 0x0 DUP4 DUP2 MSTORE PUSH1 0x20 ADD SWAP1 DUP2 MSTORE PUSH1 0x20 ADD PUSH1 0x0 KECCAK256 PUSH1 0x0 PUSH2 0x100 EXP DUP2 SLOAD DUP2 PUSH20 0xFFFFFFFFFFFFFFFFFFFFFFFFFFFFFFFFFFFFFFFF MUL NOT AND SWAP1 DUP4 PUSH20 0xFFFFFFFFFFFFFFFFFFFFFFFFFFFFFFFFFFFFFFFF AND MUL OR SWAP1 SSTORE POP DUP1 DUP3 PUSH20 0xFFFFFFFFFFFFFFFFFFFFFFFFFFFFFFFFFFFFFFFF AND PUSH2 0xFCD DUP4 PUSH2 0x895 JUMP JUMPDEST PUSH20 0xFFFFFFFFFFFFFFFFFFFFFFFFFFFFFFFFFFFFFFFF AND PUSH32 0x8C5BE1E5EBEC7D5BD14F71427D1E84F3DD0314C0F7B2291E5B200AC8C7C3B925 PUSH1 0x40 MLOAD PUSH1 0x40 MLOAD DUP1 SWAP2 SUB SWAP1 LOG4 POP POP JUMP JUMPDEST PUSH1 0x0 DUP1 PUSH2 0x101F DUP4 PUSH2 0x895 JUMP JUMPDEST SWAP1 POP DUP1 PUSH20 0xFFFFFFFFFFFFFFFFFFFFFFFFFFFFFFFFFFFFFFFF AND DUP5 PUSH20 0xFFFFFFFFFFFFFFFFFFFFFFFFFFFFFFFFFFFFFFFF AND EQ DUP1 PUSH2 0x1061 JUMPI POP PUSH2 0x1060 DUP2 DUP6 PUSH2 0xE09 JUMP JUMPDEST JUMPDEST DUP1 PUSH2 0x109F JUMPI POP DUP4 PUSH20 0xFFFFFFFFFFFFFFFFFFFFFFFFFFFFFFFFFFFFFFFF AND PUSH2 0x1087 DUP5 PUSH2 0x5F3 JUMP JUMPDEST PUSH20 0xFFFFFFFFFFFFFFFFFFFFFFFFFFFFFFFFFFFFFFFF AND EQ JUMPDEST SWAP2 POP POP SWAP3 SWAP2 POP POP JUMP JUMPDEST DUP3 PUSH20 0xFFFFFFFFFFFFFFFFFFFFFFFFFFFFFFFFFFFFFFFF AND PUSH2 0x10C8 DUP3 PUSH2 0x895 JUMP JUMPDEST PUSH20 0xFFFFFFFFFFFFFFFFFFFFFFFFFFFFFFFFFFFFFFFF AND EQ PUSH2 0x111E JUMPI PUSH1 0x40 MLOAD PUSH32 0x8C379A000000000000000000000000000000000000000000000000000000000 DUP2 MSTORE PUSH1 0x4 ADD PUSH2 0x1115 SWAP1 PUSH2 0x2910 JUMP JUMPDEST PUSH1 0x40 MLOAD DUP1 SWAP2 SUB SWAP1 REVERT JUMPDEST PUSH1 0x0 PUSH20 0xFFFFFFFFFFFFFFFFFFFFFFFFFFFFFFFFFFFFFFFF AND DUP3 PUSH20 0xFFFFFFFFFFFFFFFFFFFFFFFFFFFFFFFFFFFFFFFF AND SUB PUSH2 0x118D JUMPI PUSH1 0x40 MLOAD PUSH32 0x8C379A000000000000000000000000000000000000000000000000000000000 DUP2 MSTORE PUSH1 0x4 ADD PUSH2 0x1184 SWAP1 PUSH2 0x29A2 JUMP JUMPDEST PUSH1 0x40 MLOAD DUP1 SWAP2 SUB SWAP1 REVERT JUMPDEST PUSH2 0x1198 DUP4 DUP4 DUP4 PUSH2 0x16D7 JUMP JUMPDEST PUSH2 0x11A3 PUSH1 0x0 DUP3 PUSH2 0xF5A JUMP JUMPDEST PUSH1 0x1 PUSH1 0x3 PUSH1 0x0 DUP6 PUSH20 0xFFFFFFFFFFFFFFFFFFFFFFFFFFFFFFFFFFFFFFFF AND PUSH20 0xFFFFFFFFFFFFFFFFFFFFFFFFFFFFFFFFFFFFFFFF AND DUP2 MSTORE PUSH1 0x20 ADD SWAP1 DUP2 MSTORE PUSH1 0x20 ADD PUSH1 0x0 KECCAK256 PUSH1 0x0 DUP3 DUP3 SLOAD PUSH2 0x11F3 SWAP2 SWAP1 PUSH2 0x2730 JUMP JUMPDEST SWAP3 POP POP DUP2 SWAP1 SSTORE POP PUSH1 0x1 PUSH1 0x3 PUSH1 0x0 DUP5 PUSH20 0xFFFFFFFFFFFFFFFFFFFFFFFFFFFFFFFFFFFFFFFF AND PUSH20 0xFFFFFFFFFFFFFFFFFFFFFFFFFFFFFFFFFFFFFFFF AND DUP2 MSTORE PUSH1 0x20 ADD SWAP1 DUP2 MSTORE PUSH1 0x20 ADD PUSH1 0x0 KECCAK256 PUSH1 0x0 DUP3 DUP3 SLOAD PUSH2 0x124A SWAP2 SWAP1 PUSH2 0x29C2 JUMP JUMPDEST SWAP3 POP POP DUP2 SWAP1 SSTORE POP DUP2 PUSH1 0x2 PUSH1 0x0 DUP4 DUP2 MSTORE PUSH1 0x20 ADD SWAP1 DUP2 MSTORE PUSH1 0x20 ADD PUSH1 0x0 KECCAK256 PUSH1 0x0 PUSH2 0x100 EXP DUP2 SLOAD DUP2 PUSH20 0xFFFFFFFFFFFFFFFFFFFFFFFFFFFFFFFFFFFFFFFF MUL NOT AND SWAP1 DUP4 PUSH20 0xFFFFFFFFFFFFFFFFFFFFFFFFFFFFFFFFFFFFFFFF AND MUL OR SWAP1 SSTORE POP DUP1 DUP3 PUSH20 0xFFFFFFFFFFFFFFFFFFFFFFFFFFFFFFFFFFFFFFFF AND DUP5 PUSH20 0xFFFFFFFFFFFFFFFFFFFFFFFFFFFFFFFFFFFFFFFF AND PUSH32 0xDDF252AD1BE2C89B69C2B068FC378DAA952BA7F163C4A11628F55A4DF523B3EF PUSH1 0x40 MLOAD PUSH1 0x40 MLOAD DUP1 SWAP2 SUB SWAP1 LOG4 PUSH2 0x1309 DUP4 DUP4 DUP4 PUSH2 0x16DC JUMP JUMPDEST POP POP POP JUMP JUMPDEST PUSH2 0x1328 DUP3 DUP3 PUSH1 0x40 MLOAD DUP1 PUSH1 0x20 ADD PUSH1 0x40 MSTORE DUP1 PUSH1 0x0 DUP2 MSTORE POP PUSH2 0x16E1 JUMP JUMPDEST POP POP JUMP JUMPDEST DUP2 PUSH20 0xFFFFFFFFFFFFFFFFFFFFFFFFFFFFFFFFFFFFFFFF AND DUP4 PUSH20 0xFFFFFFFFFFFFFFFFFFFFFFFFFFFFFFFFFFFFFFFF AND SUB PUSH2 0x139A JUMPI PUSH1 0x40 MLOAD PUSH32 0x8C379A000000000000000000000000000000000000000000000000000000000 DUP2 MSTORE PUSH1 0x4 ADD PUSH2 0x1391 SWAP1 PUSH2 0x2A42 JUMP JUMPDEST PUSH1 0x40 MLOAD DUP1 SWAP2 SUB SWAP1 REVERT JUMPDEST DUP1 PUSH1 0x5 PUSH1 0x0 DUP6 PUSH20 0xFFFFFFFFFFFFFFFFFFFFFFFFFFFFFFFFFFFFFFFF AND PUSH20 0xFFFFFFFFFFFFFFFFFFFFFFFFFFFFFFFFFFFFFFFF AND DUP2 MSTORE PUSH1 0x20 ADD SWAP1 DUP2 MSTORE PUSH1 0x20 ADD PUSH1 0x0 KECCAK256 PUSH1 0x0 DUP5 PUSH20 0xFFFFFFFFFFFFFFFFFFFFFFFFFFFFFFFFFFFFFFFF AND PUSH20 0xFFFFFFFFFFFFFFFFFFFFFFFFFFFFFFFFFFFFFFFF AND DUP2 MSTORE PUSH1 0x20 ADD SWAP1 DUP2 MSTORE PUSH1 0x20 ADD PUSH1 0x0 KECCAK256 PUSH1 0x0 PUSH2 0x100 EXP DUP2 SLOAD DUP2 PUSH1 0xFF MUL NOT AND SWAP1 DUP4 ISZERO ISZERO MUL OR SWAP1 SSTORE POP DUP2 PUSH20 0xFFFFFFFFFFFFFFFFFFFFFFFFFFFFFFFFFFFFFFFF AND DUP4 PUSH20 0xFFFFFFFFFFFFFFFFFFFFFFFFFFFFFFFFFFFFFFFF AND PUSH32 0x17307EAB39AB6107E8899845AD3D59BD9653F200F220920489CA2B5937696C31 DUP4 PUSH1 0x40 MLOAD PUSH2 0x148B SWAP2 SWAP1 PUSH2 0x1B73 JUMP JUMPDEST PUSH1 0x40 MLOAD DUP1 SWAP2 SUB SWAP1 LOG3 POP POP POP JUMP JUMPDEST PUSH2 0x14A3 DUP5 DUP5 DUP5 PUSH2 0x10A8 JUMP JUMPDEST PUSH2 0x14AF DUP5 DUP5 DUP5 DUP5 PUSH2 0x173C JUMP JUMPDEST PUSH2 0x14EE JUMPI PUSH1 0x40 MLOAD PUSH32 0x8C379A000000000000000000000000000000000000000000000000000000000 DUP2 MSTORE PUSH1 0x4 ADD PUSH2 0x14E5 SWAP1 PUSH2 0x2AD4 JUMP JUMPDEST PUSH1 0x40 MLOAD DUP1 SWAP2 SUB SWAP1 REVERT JUMPDEST POP POP POP POP JUMP JUMPDEST PUSH1 0x60 PUSH1 0x40 MLOAD DUP1 PUSH1 0x20 ADD PUSH1 0x40 MSTORE DUP1 PUSH1 0x0 DUP2 MSTORE POP SWAP1 POP SWAP1 JUMP JUMPDEST PUSH1 0x60 PUSH1 0x0 DUP3 SUB PUSH2 0x1552 JUMPI PUSH1 0x40 MLOAD DUP1 PUSH1 0x40 ADD PUSH1 0x40 MSTORE DUP1 PUSH1 0x1 DUP2 MSTORE PUSH1 0x20 ADD PUSH32 0x3000000000000000000000000000000000000000000000000000000000000000 DUP2 MSTORE POP SWAP1 POP PUSH2 0x1666 JUMP JUMPDEST PUSH1 0x0 DUP3 SWAP1 POP PUSH1 0x0 JUMPDEST PUSH1 0x0 DUP3 EQ PUSH2 0x1584 JUMPI DUP1 DUP1 PUSH2 0x156D SWAP1 PUSH2 0x27F6 JUMP JUMPDEST SWAP2 POP POP PUSH1 0xA DUP3 PUSH2 0x157D SWAP2 SWAP1 PUSH2 0x2B23 JUMP JUMPDEST SWAP2 POP PUSH2 0x155A JUMP JUMPDEST PUSH1 0x0 DUP2 PUSH8 0xFFFFFFFFFFFFFFFF DUP2 GT ISZERO PUSH2 0x15A0 JUMPI PUSH2 0x159F PUSH2 0x1DC8 JUMP JUMPDEST JUMPDEST PUSH1 0x40 MLOAD SWAP1 DUP1 DUP3 MSTORE DUP1 PUSH1 0x1F ADD PUSH1 0x1F NOT AND PUSH1 0x20 ADD DUP3 ADD PUSH1 0x40 MSTORE DUP1 ISZERO PUSH2 0x15D2 JUMPI DUP2 PUSH1 0x20 ADD PUSH1 0x1 DUP3 MUL DUP1 CALLDATASIZE DUP4 CALLDATACOPY DUP1 DUP3 ADD SWAP2 POP POP SWAP1 POP JUMPDEST POP SWAP1 POP JUMPDEST PUSH1 0x0 DUP6 EQ PUSH2 0x165F JUMPI PUSH1 0x1 DUP3 PUSH2 0x15EB SWAP2 SWAP1 PUSH2 0x2730 JUMP JUMPDEST SWAP2 POP PUSH1 0xA DUP6 PUSH2 0x15FA SWAP2 SWAP1 PUSH2 0x2B54 JUMP JUMPDEST PUSH1 0x30 PUSH2 0x1606 SWAP2 SWAP1 PUSH2 0x29C2 JUMP JUMPDEST PUSH1 0xF8 SHL DUP2 DUP4 DUP2 MLOAD DUP2 LT PUSH2 0x161C JUMPI PUSH2 0x161B PUSH2 0x2B85 JUMP JUMPDEST JUMPDEST PUSH1 0x20 ADD ADD SWAP1 PUSH31 0xFFFFFFFFFFFFFFFFFFFFFFFFFFFFFFFFFFFFFFFFFFFFFFFFFFFFFFFFFFFFFF NOT AND SWAP1 DUP2 PUSH1 0x0 BYTE SWAP1 MSTORE8 POP PUSH1 0xA DUP6 PUSH2 0x1658 SWAP2 SWAP1 PUSH2 0x2B23 JUMP JUMPDEST SWAP5 POP PUSH2 0x15D6 JUMP JUMPDEST DUP1 SWAP4 POP POP POP POP JUMPDEST SWAP2 SWAP1 POP JUMP JUMPDEST PUSH1 0x0 DUP1 PUSH20 0xFFFFFFFFFFFFFFFFFFFFFFFFFFFFFFFFFFFFFFFF AND PUSH1 0x2 PUSH1 0x0 DUP5 DUP2 MSTORE PUSH1 0x20 ADD SWAP1 DUP2 MSTORE PUSH1 0x20 ADD PUSH1 0x0 KECCAK256 PUSH1 0x0 SWAP1 SLOAD SWAP1 PUSH2 0x100 EXP SWAP1 DIV PUSH20 0xFFFFFFFFFFFFFFFFFFFFFFFFFFFFFFFFFFFFFFFF AND PUSH20 0xFFFFFFFFFFFFFFFFFFFFFFFFFFFFFFFFFFFFFFFF AND EQ ISZERO SWAP1 POP SWAP2 SWAP1 POP JUMP JUMPDEST POP POP POP JUMP JUMPDEST POP POP POP JUMP JUMPDEST PUSH2 0x16EB DUP4 DUP4 PUSH2 0x18C3 JUMP JUMPDEST PUSH2 0x16F8 PUSH1 0x0 DUP5 DUP5 DUP5 PUSH2 0x173C JUMP JUMPDEST PUSH2 0x1737 JUMPI PUSH1 0x40 MLOAD PUSH32 0x8C379A000000000000000000000000000000000000000000000000000000000 DUP2 MSTORE PUSH1 0x4 ADD PUSH2 0x172E SWAP1 PUSH2 0x2AD4 JUMP JUMPDEST PUSH1 0x40 MLOAD DUP1 SWAP2 SUB SWAP1 REVERT JUMPDEST POP POP POP JUMP JUMPDEST PUSH1 0x0 PUSH2 0x175D DUP5 PUSH20 0xFFFFFFFFFFFFFFFFFFFFFFFFFFFFFFFFFFFFFFFF AND PUSH2 0x1A9C JUMP JUMPDEST ISZERO PUSH2 0x18B6 JUMPI DUP4 PUSH20 0xFFFFFFFFFFFFFFFFFFFFFFFFFFFFFFFFFFFFFFFF AND PUSH4 0x150B7A02 PUSH2 0x1786 PUSH2 0xF52 JUMP JUMPDEST DUP8 DUP7 DUP7 PUSH1 0x40 MLOAD DUP6 PUSH4 0xFFFFFFFF AND PUSH1 0xE0 SHL DUP2 MSTORE PUSH1 0x4 ADD PUSH2 0x17A8 SWAP5 SWAP4 SWAP3 SWAP2 SWAP1 PUSH2 0x2C09 JUMP JUMPDEST PUSH1 0x20 PUSH1 0x40 MLOAD DUP1 DUP4 SUB DUP2 PUSH1 0x0 DUP8 GAS CALL SWAP3 POP POP POP DUP1 ISZERO PUSH2 0x17E4 JUMPI POP PUSH1 0x40 MLOAD RETURNDATASIZE PUSH1 0x1F NOT PUSH1 0x1F DUP3 ADD AND DUP3 ADD DUP1 PUSH1 0x40 MSTORE POP DUP2 ADD SWAP1 PUSH2 0x17E1 SWAP2 SWAP1 PUSH2 0x2C6A JUMP JUMPDEST PUSH1 0x1 JUMPDEST PUSH2 0x1866 JUMPI RETURNDATASIZE DUP1 PUSH1 0x0 DUP2 EQ PUSH2 0x1814 JUMPI PUSH1 0x40 MLOAD SWAP2 POP PUSH1 0x1F NOT PUSH1 0x3F RETURNDATASIZE ADD AND DUP3 ADD PUSH1 0x40 MSTORE RETURNDATASIZE DUP3 MSTORE RETURNDATASIZE PUSH1 0x0 PUSH1 0x20 DUP5 ADD RETURNDATACOPY PUSH2 0x1819 JUMP JUMPDEST PUSH1 0x60 SWAP2 POP JUMPDEST POP PUSH1 0x0 DUP2 MLOAD SUB PUSH2 0x185E JUMPI PUSH1 0x40 MLOAD PUSH32 0x8C379A000000000000000000000000000000000000000000000000000000000 DUP2 MSTORE PUSH1 0x4 ADD PUSH2 0x1855 SWAP1 PUSH2 0x2AD4 JUMP JUMPDEST PUSH1 0x40 MLOAD DUP1 SWAP2 SUB SWAP1 REVERT JUMPDEST DUP1 MLOAD DUP2 PUSH1 0x20 ADD REVERT JUMPDEST PUSH4 0x150B7A02 PUSH1 0xE0 SHL PUSH28 0xFFFFFFFFFFFFFFFFFFFFFFFFFFFFFFFFFFFFFFFFFFFFFFFFFFFFFFFF NOT AND DUP2 PUSH28 0xFFFFFFFFFFFFFFFFFFFFFFFFFFFFFFFFFFFFFFFFFFFFFFFFFFFFFFFF NOT AND EQ SWAP2 POP POP PUSH2 0x18BB JUMP JUMPDEST PUSH1 0x1 SWAP1 POP JUMPDEST SWAP5 SWAP4 POP POP POP POP JUMP JUMPDEST PUSH1 0x0 PUSH20 0xFFFFFFFFFFFFFFFFFFFFFFFFFFFFFFFFFFFFFFFF AND DUP3 PUSH20 0xFFFFFFFFFFFFFFFFFFFFFFFFFFFFFFFFFFFFFFFF AND SUB PUSH2 0x1932 JUMPI PUSH1 0x40 MLOAD PUSH32 0x8C379A000000000000000000000000000000000000000000000000000000000 DUP2 MSTORE PUSH1 0x4 ADD PUSH2 0x1929 SWAP1 PUSH2 0x2CE3 JUMP JUMPDEST PUSH1 0x40 MLOAD DUP1 SWAP2 SUB SWAP1 REVERT JUMPDEST PUSH2 0x193B DUP2 PUSH2 0x166B JUMP JUMPDEST ISZERO PUSH2 0x197B JUMPI PUSH1 0x40 MLOAD PUSH32 0x8C379A000000000000000000000000000000000000000000000000000000000 DUP2 MSTORE PUSH1 0x4 ADD PUSH2 0x1972 SWAP1 PUSH2 0x2D4F JUMP JUMPDEST PUSH1 0x40 MLOAD DUP1 SWAP2 SUB SWAP1 REVERT JUMPDEST PUSH2 0x1987 PUSH1 0x0 DUP4 DUP4 PUSH2 0x16D7 JUMP JUMPDEST PUSH1 0x1 PUSH1 0x3 PUSH1 0x0 DUP5 PUSH20 0xFFFFFFFFFFFFFFFFFFFFFFFFFFFFFFFFFFFFFFFF AND PUSH20 0xFFFFFFFFFFFFFFFFFFFFFFFFFFFFFFFFFFFFFFFF AND DUP2 MSTORE PUSH1 0x20 ADD SWAP1 DUP2 MSTORE PUSH1 0x20 ADD PUSH1 0x0 KECCAK256 PUSH1 0x0 DUP3 DUP3 SLOAD PUSH2 0x19D7 SWAP2 SWAP1 PUSH2 0x29C2 JUMP JUMPDEST SWAP3 POP POP DUP2 SWAP1 SSTORE POP DUP2 PUSH1 0x2 PUSH1 0x0 DUP4 DUP2 MSTORE PUSH1 0x20 ADD SWAP1 DUP2 MSTORE PUSH1 0x20 ADD PUSH1 0x0 KECCAK256 PUSH1 0x0 PUSH2 0x100 EXP DUP2 SLOAD DUP2 PUSH20 0xFFFFFFFFFFFFFFFFFFFFFFFFFFFFFFFFFFFFFFFF MUL NOT AND SWAP1 DUP4 PUSH20 0xFFFFFFFFFFFFFFFFFFFFFFFFFFFFFFFFFFFFFFFF AND MUL OR SWAP1 SSTORE POP DUP1 DUP3 PUSH20 0xFFFFFFFFFFFFFFFFFFFFFFFFFFFFFFFFFFFFFFFF AND PUSH1 0x0 PUSH20 0xFFFFFFFFFFFFFFFFFFFFFFFFFFFFFFFFFFFFFFFF AND PUSH32 0xDDF252AD1BE2C89B69C2B068FC378DAA952BA7F163C4A11628F55A4DF523B3EF PUSH1 0x40 MLOAD PUSH1 0x40 MLOAD DUP1 SWAP2 SUB SWAP1 LOG4 PUSH2 0x1A98 PUSH1 0x0 DUP4 DUP4 PUSH2 0x16DC JUMP JUMPDEST POP POP JUMP JUMPDEST PUSH1 0x0 DUP1 DUP3 PUSH20 0xFFFFFFFFFFFFFFFFFFFFFFFFFFFFFFFFFFFFFFFF AND EXTCODESIZE GT SWAP1 POP SWAP2 SWAP1 POP JUMP JUMPDEST PUSH1 0x0 PUSH1 0x40 MLOAD SWAP1 POP SWAP1 JUMP JUMPDEST PUSH1 0x0 DUP1 REVERT JUMPDEST PUSH1 0x0 DUP1 REVERT JUMPDEST PUSH1 0x0 PUSH32 0xFFFFFFFF00000000000000000000000000000000000000000000000000000000 DUP3 AND SWAP1 POP SWAP2 SWAP1 POP JUMP JUMPDEST PUSH2 0x1B08 DUP2 PUSH2 0x1AD3 JUMP JUMPDEST DUP2 EQ PUSH2 0x1B13 JUMPI PUSH1 0x0 DUP1 REVERT JUMPDEST POP JUMP JUMPDEST PUSH1 0x0 DUP2 CALLDATALOAD SWAP1 POP PUSH2 0x1B25 DUP2 PUSH2 0x1AFF JUMP JUMPDEST SWAP3 SWAP2 POP POP JUMP JUMPDEST PUSH1 0x0 PUSH1 0x20 DUP3 DUP5 SUB SLT ISZERO PUSH2 0x1B41 JUMPI PUSH2 0x1B40 PUSH2 0x1AC9 JUMP JUMPDEST JUMPDEST PUSH1 0x0 PUSH2 0x1B4F DUP5 DUP3 DUP6 ADD PUSH2 0x1B16 JUMP JUMPDEST SWAP2 POP POP SWAP3 SWAP2 POP POP JUMP JUMPDEST PUSH1 0x0 DUP2 ISZERO ISZERO SWAP1 POP SWAP2 SWAP1 POP JUMP JUMPDEST PUSH2 0x1B6D DUP2 PUSH2 0x1B58 JUMP JUMPDEST DUP3 MSTORE POP POP JUMP JUMPDEST PUSH1 0x0 PUSH1 0x20 DUP3 ADD SWAP1 POP PUSH2 0x1B88 PUSH1 0x0 DUP4 ADD DUP5 PUSH2 0x1B64 JUMP JUMPDEST SWAP3 SWAP2 POP POP JUMP JUMPDEST PUSH1 0x0 DUP2 MLOAD SWAP1 POP SWAP2 SWAP1 POP JUMP JUMPDEST PUSH1 0x0 DUP3 DUP3 MSTORE PUSH1 0x20 DUP3 ADD SWAP1 POP SWAP3 SWAP2 POP POP JUMP JUMPDEST PUSH1 0x0 JUMPDEST DUP4 DUP2 LT ISZERO PUSH2 0x1BC8 JUMPI DUP1 DUP3 ADD MLOAD DUP2 DUP5 ADD MSTORE PUSH1 0x20 DUP2 ADD SWAP1 POP PUSH2 0x1BAD JUMP JUMPDEST PUSH1 0x0 DUP5 DUP5 ADD MSTORE POP POP POP POP JUMP JUMPDEST PUSH1 0x0 PUSH1 0x1F NOT PUSH1 0x1F DUP4 ADD AND SWAP1 POP SWAP2 SWAP1 POP JUMP JUMPDEST PUSH1 0x0 PUSH2 0x1BF0 DUP3 PUSH2 0x1B8E JUMP JUMPDEST PUSH2 0x1BFA DUP2 DUP6 PUSH2 0x1B99 JUMP JUMPDEST SWAP4 POP PUSH2 0x1C0A DUP2 DUP6 PUSH1 0x20 DUP7 ADD PUSH2 0x1BAA JUMP JUMPDEST PUSH2 0x1C13 DUP2 PUSH2 0x1BD4 JUMP JUMPDEST DUP5 ADD SWAP2 POP POP SWAP3 SWAP2 POP POP JUMP JUMPDEST PUSH1 0x0 PUSH1 0x20 DUP3 ADD SWAP1 POP DUP2 DUP2 SUB PUSH1 0x0 DUP4 ADD MSTORE PUSH2 0x1C38 DUP2 DUP5 PUSH2 0x1BE5 JUMP JUMPDEST SWAP1 POP SWAP3 SWAP2 POP POP JUMP JUMPDEST PUSH1 0x0 DUP2 SWAP1 POP SWAP2 SWAP1 POP JUMP JUMPDEST PUSH2 0x1C53 DUP2 PUSH2 0x1C40 JUMP JUMPDEST DUP2 EQ PUSH2 0x1C5E JUMPI PUSH1 0x0 DUP1 REVERT JUMPDEST POP JUMP JUMPDEST PUSH1 0x0 DUP2 CALLDATALOAD SWAP1 POP PUSH2 0x1C70 DUP2 PUSH2 0x1C4A JUMP JUMPDEST SWAP3 SWAP2 POP POP JUMP JUMPDEST PUSH1 0x0 PUSH1 0x20 DUP3 DUP5 SUB SLT ISZERO PUSH2 0x1C8C JUMPI PUSH2 0x1C8B PUSH2 0x1AC9 JUMP JUMPDEST JUMPDEST PUSH1 0x0 PUSH2 0x1C9A DUP5 DUP3 DUP6 ADD PUSH2 0x1C61 JUMP JUMPDEST SWAP2 POP POP SWAP3 SWAP2 POP POP JUMP JUMPDEST PUSH1 0x0 PUSH20 0xFFFFFFFFFFFFFFFFFFFFFFFFFFFFFFFFFFFFFFFF DUP3 AND SWAP1 POP SWAP2 SWAP1 POP JUMP JUMPDEST PUSH1 0x0 PUSH2 0x1CCE DUP3 PUSH2 0x1CA3 JUMP JUMPDEST SWAP1 POP SWAP2 SWAP1 POP JUMP JUMPDEST PUSH2 0x1CDE DUP2 PUSH2 0x1CC3 JUMP JUMPDEST DUP3 MSTORE POP POP JUMP JUMPDEST PUSH1 0x0 PUSH1 0x20 DUP3 ADD SWAP1 POP PUSH2 0x1CF9 PUSH1 0x0 DUP4 ADD DUP5 PUSH2 0x1CD5 JUMP JUMPDEST SWAP3 SWAP2 POP POP JUMP JUMPDEST PUSH2 0x1D08 DUP2 PUSH2 0x1CC3 JUMP JUMPDEST DUP2 EQ PUSH2 0x1D13 JUMPI PUSH1 0x0 DUP1 REVERT JUMPDEST POP JUMP JUMPDEST PUSH1 0x0 DUP2 CALLDATALOAD SWAP1 POP PUSH2 0x1D25 DUP2 PUSH2 0x1CFF JUMP JUMPDEST SWAP3 SWAP2 POP POP JUMP JUMPDEST PUSH1 0x0 DUP1 PUSH1 0x40 DUP4 DUP6 SUB SLT ISZERO PUSH2 0x1D42 JUMPI PUSH2 0x1D41 PUSH2 0x1AC9 JUMP JUMPDEST JUMPDEST PUSH1 0x0 PUSH2 0x1D50 DUP6 DUP3 DUP7 ADD PUSH2 0x1D16 JUMP JUMPDEST SWAP3 POP POP PUSH1 0x20 PUSH2 0x1D61 DUP6 DUP3 DUP7 ADD PUSH2 0x1C61 JUMP JUMPDEST SWAP2 POP POP SWAP3 POP SWAP3 SWAP1 POP JUMP JUMPDEST PUSH1 0x0 DUP1 PUSH1 0x0 PUSH1 0x60 DUP5 DUP7 SUB SLT ISZERO PUSH2 0x1D84 JUMPI PUSH2 0x1D83 PUSH2 0x1AC9 JUMP JUMPDEST JUMPDEST PUSH1 0x0 PUSH2 0x1D92 DUP7 DUP3 DUP8 ADD PUSH2 0x1D16 JUMP JUMPDEST SWAP4 POP POP PUSH1 0x20 PUSH2 0x1DA3 DUP7 DUP3 DUP8 ADD PUSH2 0x1D16 JUMP JUMPDEST SWAP3 POP POP PUSH1 0x40 PUSH2 0x1DB4 DUP7 DUP3 DUP8 ADD PUSH2 0x1C61 JUMP JUMPDEST SWAP2 POP POP SWAP3 POP SWAP3 POP SWAP3 JUMP JUMPDEST PUSH1 0x0 DUP1 REVERT JUMPDEST PUSH1 0x0 DUP1 REVERT JUMPDEST PUSH32 0x4E487B7100000000000000000000000000000000000000000000000000000000 PUSH1 0x0 MSTORE PUSH1 0x41 PUSH1 0x4 MSTORE PUSH1 0x24 PUSH1 0x0 REVERT JUMPDEST PUSH2 0x1E00 DUP3 PUSH2 0x1BD4 JUMP JUMPDEST DUP2 ADD DUP2 DUP2 LT PUSH8 0xFFFFFFFFFFFFFFFF DUP3 GT OR ISZERO PUSH2 0x1E1F JUMPI PUSH2 0x1E1E PUSH2 0x1DC8 JUMP JUMPDEST JUMPDEST DUP1 PUSH1 0x40 MSTORE POP POP POP JUMP JUMPDEST PUSH1 0x0 PUSH2 0x1E32 PUSH2 0x1ABF JUMP JUMPDEST SWAP1 POP PUSH2 0x1E3E DUP3 DUP3 PUSH2 0x1DF7 JUMP JUMPDEST SWAP2 SWAP1 POP JUMP JUMPDEST PUSH1 0x0 PUSH8 0xFFFFFFFFFFFFFFFF DUP3 GT ISZERO PUSH2 0x1E5E JUMPI PUSH2 0x1E5D PUSH2 0x1DC8 JUMP JUMPDEST JUMPDEST PUSH2 0x1E67 DUP3 PUSH2 0x1BD4 JUMP JUMPDEST SWAP1 POP PUSH1 0x20 DUP2 ADD SWAP1 POP SWAP2 SWAP1 POP JUMP JUMPDEST DUP3 DUP2 DUP4 CALLDATACOPY PUSH1 0x0 DUP4 DUP4 ADD MSTORE POP POP POP JUMP JUMPDEST PUSH1 0x0 PUSH2 0x1E96 PUSH2 0x1E91 DUP5 PUSH2 0x1E43 JUMP JUMPDEST PUSH2 0x1E28 JUMP JUMPDEST SWAP1 POP DUP3 DUP2 MSTORE PUSH1 0x20 DUP2 ADD DUP5 DUP5 DUP5 ADD GT ISZERO PUSH2 0x1EB2 JUMPI PUSH2 0x1EB1 PUSH2 0x1DC3 JUMP JUMPDEST JUMPDEST PUSH2 0x1EBD DUP5 DUP3 DUP6 PUSH2 0x1E74 JUMP JUMPDEST POP SWAP4 SWAP3 POP POP POP JUMP JUMPDEST PUSH1 0x0 DUP3 PUSH1 0x1F DUP4 ADD SLT PUSH2 0x1EDA JUMPI PUSH2 0x1ED9 PUSH2 0x1DBE JUMP JUMPDEST JUMPDEST DUP2 CALLDATALOAD PUSH2 0x1EEA DUP5 DUP3 PUSH1 0x20 DUP7 ADD PUSH2 0x1E83 JUMP JUMPDEST SWAP2 POP POP SWAP3 SWAP2 POP POP JUMP JUMPDEST PUSH1 0x0 DUP1 PUSH1 0x40 DUP4 DUP6 SUB SLT ISZERO PUSH2 0x1F0A JUMPI PUSH2 0x1F09 PUSH2 0x1AC9 JUMP JUMPDEST JUMPDEST PUSH1 0x0 PUSH2 0x1F18 DUP6 DUP3 DUP7 ADD PUSH2 0x1C61 JUMP JUMPDEST SWAP3 POP POP PUSH1 0x20 DUP4 ADD CALLDATALOAD PUSH8 0xFFFFFFFFFFFFFFFF DUP2 GT ISZERO PUSH2 0x1F39 JUMPI PUSH2 0x1F38 PUSH2 0x1ACE JUMP JUMPDEST JUMPDEST PUSH2 0x1F45 DUP6 DUP3 DUP7 ADD PUSH2 0x1EC5 JUMP JUMPDEST SWAP2 POP POP SWAP3 POP SWAP3 SWAP1 POP JUMP JUMPDEST PUSH2 0x1F58 DUP2 PUSH2 0x1C40 JUMP JUMPDEST DUP3 MSTORE POP POP JUMP JUMPDEST PUSH1 0x0 PUSH1 0x20 DUP3 ADD SWAP1 POP PUSH2 0x1F73 PUSH1 0x0 DUP4 ADD DUP5 PUSH2 0x1F4F JUMP JUMPDEST SWAP3 SWAP2 POP POP JUMP JUMPDEST PUSH1 0x0 PUSH1 0x20 DUP3 DUP5 SUB SLT ISZERO PUSH2 0x1F8F JUMPI PUSH2 0x1F8E PUSH2 0x1AC9 JUMP JUMPDEST JUMPDEST PUSH1 0x0 PUSH2 0x1F9D DUP5 DUP3 DUP6 ADD PUSH2 0x1D16 JUMP JUMPDEST SWAP2 POP POP SWAP3 SWAP2 POP POP JUMP JUMPDEST PUSH1 0x0 DUP1 PUSH1 0x0 PUSH1 0x60 DUP5 DUP7 SUB SLT ISZERO PUSH2 0x1FBF JUMPI PUSH2 0x1FBE PUSH2 0x1AC9 JUMP JUMPDEST JUMPDEST PUSH1 0x0 PUSH2 0x1FCD DUP7 DUP3 DUP8 ADD PUSH2 0x1D16 JUMP JUMPDEST SWAP4 POP POP PUSH1 0x20 DUP5 ADD CALLDATALOAD PUSH8 0xFFFFFFFFFFFFFFFF DUP2 GT ISZERO PUSH2 0x1FEE JUMPI PUSH2 0x1FED PUSH2 0x1ACE JUMP JUMPDEST JUMPDEST PUSH2 0x1FFA DUP7 DUP3 DUP8 ADD PUSH2 0x1EC5 JUMP JUMPDEST SWAP3 POP POP PUSH1 0x40 DUP5 ADD CALLDATALOAD PUSH8 0xFFFFFFFFFFFFFFFF DUP2 GT ISZERO PUSH2 0x201B JUMPI PUSH2 0x201A PUSH2 0x1ACE JUMP JUMPDEST JUMPDEST PUSH2 0x2027 DUP7 DUP3 DUP8 ADD PUSH2 0x1EC5 JUMP JUMPDEST SWAP2 POP POP SWAP3 POP SWAP3 POP SWAP3 JUMP JUMPDEST PUSH2 0x203A DUP2 PUSH2 0x1B58 JUMP JUMPDEST DUP2 EQ PUSH2 0x2045 JUMPI PUSH1 0x0 DUP1 REVERT JUMPDEST POP JUMP JUMPDEST PUSH1 0x0 DUP2 CALLDATALOAD SWAP1 POP PUSH2 0x2057 DUP2 PUSH2 0x2031 JUMP JUMPDEST SWAP3 SWAP2 POP POP JUMP JUMPDEST PUSH1 0x0 DUP1 PUSH1 0x40 DUP4 DUP6 SUB SLT ISZERO PUSH2 0x2074 JUMPI PUSH2 0x2073 PUSH2 0x1AC9 JUMP JUMPDEST JUMPDEST PUSH1 0x0 PUSH2 0x2082 DUP6 DUP3 DUP7 ADD PUSH2 0x1D16 JUMP JUMPDEST SWAP3 POP POP PUSH1 0x20 PUSH2 0x2093 DUP6 DUP3 DUP7 ADD PUSH2 0x2048 JUMP JUMPDEST SWAP2 POP POP SWAP3 POP SWAP3 SWAP1 POP JUMP JUMPDEST PUSH1 0x0 PUSH8 0xFFFFFFFFFFFFFFFF DUP3 GT ISZERO PUSH2 0x20B8 JUMPI PUSH2 0x20B7 PUSH2 0x1DC8 JUMP JUMPDEST JUMPDEST PUSH2 0x20C1 DUP3 PUSH2 0x1BD4 JUMP JUMPDEST SWAP1 POP PUSH1 0x20 DUP2 ADD SWAP1 POP SWAP2 SWAP1 POP JUMP JUMPDEST PUSH1 0x0 PUSH2 0x20E1 PUSH2 0x20DC DUP5 PUSH2 0x209D JUMP JUMPDEST PUSH2 0x1E28 JUMP JUMPDEST SWAP1 POP DUP3 DUP2 MSTORE PUSH1 0x20 DUP2 ADD DUP5 DUP5 DUP5 ADD GT ISZERO PUSH2 0x20FD JUMPI PUSH2 0x20FC PUSH2 0x1DC3 JUMP JUMPDEST JUMPDEST PUSH2 0x2108 DUP5 DUP3 DUP6 PUSH2 0x1E74 JUMP JUMPDEST POP SWAP4 SWAP3 POP POP POP JUMP JUMPDEST PUSH1 0x0 DUP3 PUSH1 0x1F DUP4 ADD SLT PUSH2 0x2125 JUMPI PUSH2 0x2124 PUSH2 0x1DBE JUMP JUMPDEST JUMPDEST DUP2 CALLDATALOAD PUSH2 0x2135 DUP5 DUP3 PUSH1 0x20 DUP7 ADD PUSH2 0x20CE JUMP JUMPDEST SWAP2 POP POP SWAP3 SWAP2 POP POP JUMP JUMPDEST PUSH1 0x0 DUP1 PUSH1 0x0 DUP1 PUSH1 0x80 DUP6 DUP8 SUB SLT ISZERO PUSH2 0x2158 JUMPI PUSH2 0x2157 PUSH2 0x1AC9 JUMP JUMPDEST JUMPDEST PUSH1 0x0 PUSH2 0x2166 DUP8 DUP3 DUP9 ADD PUSH2 0x1D16 JUMP JUMPDEST SWAP5 POP POP PUSH1 0x20 PUSH2 0x2177 DUP8 DUP3 DUP9 ADD PUSH2 0x1D16 JUMP JUMPDEST SWAP4 POP POP PUSH1 0x40 PUSH2 0x2188 DUP8 DUP3 DUP9 ADD PUSH2 0x1C61 JUMP JUMPDEST SWAP3 POP POP PUSH1 0x60 DUP6 ADD CALLDATALOAD PUSH8 0xFFFFFFFFFFFFFFFF DUP2 GT ISZERO PUSH2 0x21A9 JUMPI PUSH2 0x21A8 PUSH2 0x1ACE JUMP JUMPDEST JUMPDEST PUSH2 0x21B5 DUP8 DUP3 DUP9 ADD PUSH2 0x2110 JUMP JUMPDEST SWAP2 POP POP SWAP3 SWAP6 SWAP2 SWAP5 POP SWAP3 POP JUMP JUMPDEST PUSH1 0x0 DUP1 PUSH1 0x40 DUP4 DUP6 SUB SLT ISZERO PUSH2 0x21D8 JUMPI PUSH2 0x21D7 PUSH2 0x1AC9 JUMP JUMPDEST JUMPDEST PUSH1 0x0 PUSH2 0x21E6 DUP6 DUP3 DUP7 ADD PUSH2 0x1D16 JUMP JUMPDEST SWAP3 POP POP PUSH1 0x20 PUSH2 0x21F7 DUP6 DUP3 DUP7 ADD PUSH2 0x1D16 JUMP JUMPDEST SWAP2 POP POP SWAP3 POP SWAP3 SWAP1 POP JUMP JUMPDEST PUSH32 0x4E487B7100000000000000000000000000000000000000000000000000000000 PUSH1 0x0 MSTORE PUSH1 0x22 PUSH1 0x4 MSTORE PUSH1 0x24 PUSH1 0x0 REVERT JUMPDEST PUSH1 0x0 PUSH1 0x2 DUP3 DIV SWAP1 POP PUSH1 0x1 DUP3 AND DUP1 PUSH2 0x2248 JUMPI PUSH1 0x7F DUP3 AND SWAP2 POP JUMPDEST PUSH1 0x20 DUP3 LT DUP2 SUB PUSH2 0x225B JUMPI PUSH2 0x225A PUSH2 0x2201 JUMP JUMPDEST JUMPDEST POP SWAP2 SWAP1 POP JUMP JUMPDEST PUSH32 0x4552433732313A20617070726F76616C20746F2063757272656E74206F776E65 PUSH1 0x0 DUP3 ADD MSTORE PUSH32 0x7200000000000000000000000000000000000000000000000000000000000000 PUSH1 0x20 DUP3 ADD MSTORE POP JUMP JUMPDEST PUSH1 0x0 PUSH2 0x22BD PUSH1 0x21 DUP4 PUSH2 0x1B99 JUMP JUMPDEST SWAP2 POP PUSH2 0x22C8 DUP3 PUSH2 0x2261 JUMP JUMPDEST PUSH1 0x40 DUP3 ADD SWAP1 POP SWAP2 SWAP1 POP JUMP JUMPDEST PUSH1 0x0 PUSH1 0x20 DUP3 ADD SWAP1 POP DUP2 DUP2 SUB PUSH1 0x0 DUP4 ADD MSTORE PUSH2 0x22EC DUP2 PUSH2 0x22B0 JUMP JUMPDEST SWAP1 POP SWAP2 SWAP1 POP JUMP JUMPDEST PUSH32 0x4552433732313A20617070726F76652063616C6C6572206973206E6F7420746F PUSH1 0x0 DUP3 ADD MSTORE PUSH32 0x6B656E206F776E6572206E6F7220617070726F76656420666F7220616C6C0000 PUSH1 0x20 DUP3 ADD MSTORE POP JUMP JUMPDEST PUSH1 0x0 PUSH2 0x234F PUSH1 0x3E DUP4 PUSH2 0x1B99 JUMP JUMPDEST SWAP2 POP PUSH2 0x235A DUP3 PUSH2 0x22F3 JUMP JUMPDEST PUSH1 0x40 DUP3 ADD SWAP1 POP SWAP2 SWAP1 POP JUMP JUMPDEST PUSH1 0x0 PUSH1 0x20 DUP3 ADD SWAP1 POP DUP2 DUP2 SUB PUSH1 0x0 DUP4 ADD MSTORE PUSH2 0x237E DUP2 PUSH2 0x2342 JUMP JUMPDEST SWAP1 POP SWAP2 SWAP1 POP JUMP JUMPDEST PUSH32 0x4552433732313A2063616C6C6572206973206E6F7420746F6B656E206F776E65 PUSH1 0x0 DUP3 ADD MSTORE PUSH32 0x72206E6F7220617070726F766564000000000000000000000000000000000000 PUSH1 0x20 DUP3 ADD MSTORE POP JUMP JUMPDEST PUSH1 0x0 PUSH2 0x23E1 PUSH1 0x2E DUP4 PUSH2 0x1B99 JUMP JUMPDEST SWAP2 POP PUSH2 0x23EC DUP3 PUSH2 0x2385 JUMP JUMPDEST PUSH1 0x40 DUP3 ADD SWAP1 POP SWAP2 SWAP1 POP JUMP JUMPDEST PUSH1 0x0 PUSH1 0x20 DUP3 ADD SWAP1 POP DUP2 DUP2 SUB PUSH1 0x0 DUP4 ADD MSTORE PUSH2 0x2410 DUP2 PUSH2 0x23D4 JUMP JUMPDEST SWAP1 POP SWAP2 SWAP1 POP JUMP JUMPDEST PUSH1 0x0 DUP2 SWAP1 POP DUP2 PUSH1 0x0 MSTORE PUSH1 0x20 PUSH1 0x0 KECCAK256 SWAP1 POP SWAP2 SWAP1 POP JUMP JUMPDEST PUSH1 0x0 PUSH1 0x20 PUSH1 0x1F DUP4 ADD DIV SWAP1 POP SWAP2 SWAP1 POP JUMP JUMPDEST PUSH1 0x0 DUP3 DUP3 SHL SWAP1 POP SWAP3 SWAP2 POP POP JUMP JUMPDEST PUSH1 0x0 PUSH1 0x8 DUP4 MUL PUSH2 0x2479 PUSH32 0xFFFFFFFFFFFFFFFFFFFFFFFFFFFFFFFFFFFFFFFFFFFFFFFFFFFFFFFFFFFFFFFF DUP3 PUSH2 0x243C JUMP JUMPDEST PUSH2 0x2483 DUP7 DUP4 PUSH2 0x243C JUMP JUMPDEST SWAP6 POP DUP1 NOT DUP5 AND SWAP4 POP DUP1 DUP7 AND DUP5 OR SWAP3 POP POP POP SWAP4 SWAP3 POP POP POP JUMP JUMPDEST PUSH1 0x0 DUP2 SWAP1 POP SWAP2 SWAP1 POP JUMP JUMPDEST PUSH1 0x0 PUSH2 0x24C0 PUSH2 0x24BB PUSH2 0x24B6 DUP5 PUSH2 0x1C40 JUMP JUMPDEST PUSH2 0x249B JUMP JUMPDEST PUSH2 0x1C40 JUMP JUMPDEST SWAP1 POP SWAP2 SWAP1 POP JUMP JUMPDEST PUSH1 0x0 DUP2 SWAP1 POP SWAP2 SWAP1 POP JUMP JUMPDEST PUSH2 0x24DA DUP4 PUSH2 0x24A5 JUMP JUMPDEST PUSH2 0x24EE PUSH2 0x24E6 DUP3 PUSH2 0x24C7 JUMP JUMPDEST DUP5 DUP5 SLOAD PUSH2 0x2449 JUMP JUMPDEST DUP3 SSTORE POP POP POP POP JUMP JUMPDEST PUSH1 0x0 SWAP1 JUMP JUMPDEST PUSH2 0x2503 PUSH2 0x24F6 JUMP JUMPDEST PUSH2 0x250E DUP2 DUP5 DUP5 PUSH2 0x24D1 JUMP JUMPDEST POP POP POP JUMP JUMPDEST JUMPDEST DUP2 DUP2 LT ISZERO PUSH2 0x2532 JUMPI PUSH2 0x2527 PUSH1 0x0 DUP3 PUSH2 0x24FB JUMP JUMPDEST PUSH1 0x1 DUP2 ADD SWAP1 POP PUSH2 0x2514 JUMP JUMPDEST POP POP JUMP JUMPDEST PUSH1 0x1F DUP3 GT ISZERO PUSH2 0x2577 JUMPI PUSH2 0x2548 DUP2 PUSH2 0x2417 JUMP JUMPDEST PUSH2 0x2551 DUP5 PUSH2 0x242C JUMP JUMPDEST DUP2 ADD PUSH1 0x20 DUP6 LT ISZERO PUSH2 0x2560 JUMPI DUP2 SWAP1 POP JUMPDEST PUSH2 0x2574 PUSH2 0x256C DUP6 PUSH2 0x242C JUMP JUMPDEST DUP4 ADD DUP3 PUSH2 0x2513 JUMP JUMPDEST POP POP JUMPDEST POP POP POP JUMP JUMPDEST PUSH1 0x0 DUP3 DUP3 SHR SWAP1 POP SWAP3 SWAP2 POP POP JUMP JUMPDEST PUSH1 0x0 PUSH2 0x259A PUSH1 0x0 NOT DUP5 PUSH1 0x8 MUL PUSH2 0x257C JUMP JUMPDEST NOT DUP1 DUP4 AND SWAP2 POP POP SWAP3 SWAP2 POP POP JUMP JUMPDEST PUSH1 0x0 PUSH2 0x25B3 DUP4 DUP4 PUSH2 0x2589 JUMP JUMPDEST SWAP2 POP DUP3 PUSH1 0x2 MUL DUP3 OR SWAP1 POP SWAP3 SWAP2 POP POP JUMP JUMPDEST PUSH2 0x25CC DUP3 PUSH2 0x1B8E JUMP JUMPDEST PUSH8 0xFFFFFFFFFFFFFFFF DUP2 GT ISZERO PUSH2 0x25E5 JUMPI PUSH2 0x25E4 PUSH2 0x1DC8 JUMP JUMPDEST JUMPDEST PUSH2 0x25EF DUP3 SLOAD PUSH2 0x2230 JUMP JUMPDEST PUSH2 0x25FA DUP3 DUP3 DUP6 PUSH2 0x2536 JUMP JUMPDEST PUSH1 0x0 PUSH1 0x20 SWAP1 POP PUSH1 0x1F DUP4 GT PUSH1 0x1 DUP2 EQ PUSH2 0x262D JUMPI PUSH1 0x0 DUP5 ISZERO PUSH2 0x261B JUMPI DUP3 DUP8 ADD MLOAD SWAP1 POP JUMPDEST PUSH2 0x2625 DUP6 DUP3 PUSH2 0x25A7 JUMP JUMPDEST DUP7 SSTORE POP PUSH2 0x268D JUMP JUMPDEST PUSH1 0x1F NOT DUP5 AND PUSH2 0x263B DUP7 PUSH2 0x2417 JUMP JUMPDEST PUSH1 0x0 JUMPDEST DUP3 DUP2 LT ISZERO PUSH2 0x2663 JUMPI DUP5 DUP10 ADD MLOAD DUP3 SSTORE PUSH1 0x1 DUP3 ADD SWAP2 POP PUSH1 0x20 DUP6 ADD SWAP5 POP PUSH1 0x20 DUP2 ADD SWAP1 POP PUSH2 0x263E JUMP JUMPDEST DUP7 DUP4 LT ISZERO PUSH2 0x2680 JUMPI DUP5 DUP10 ADD MLOAD PUSH2 0x267C PUSH1 0x1F DUP10 AND DUP3 PUSH2 0x2589 JUMP JUMPDEST DUP4 SSTORE POP JUMPDEST PUSH1 0x1 PUSH1 0x2 DUP9 MUL ADD DUP9 SSTORE POP POP POP JUMPDEST POP POP POP POP POP POP JUMP JUMPDEST PUSH32 0x4552433732313A20696E76616C696420746F6B656E2049440000000000000000 PUSH1 0x0 DUP3 ADD MSTORE POP JUMP JUMPDEST PUSH1 0x0 PUSH2 0x26CB PUSH1 0x18 DUP4 PUSH2 0x1B99 JUMP JUMPDEST SWAP2 POP PUSH2 0x26D6 DUP3 PUSH2 0x2695 JUMP JUMPDEST PUSH1 0x20 DUP3 ADD SWAP1 POP SWAP2 SWAP1 POP JUMP JUMPDEST PUSH1 0x0 PUSH1 0x20 DUP3 ADD SWAP1 POP DUP2 DUP2 SUB PUSH1 0x0 DUP4 ADD MSTORE PUSH2 0x26FA DUP2 PUSH2 0x26BE JUMP JUMPDEST SWAP1 POP SWAP2 SWAP1 POP JUMP JUMPDEST PUSH32 0x4E487B7100000000000000000000000000000000000000000000000000000000 PUSH1 0x0 MSTORE PUSH1 0x11 PUSH1 0x4 MSTORE PUSH1 0x24 PUSH1 0x0 REVERT JUMPDEST PUSH1 0x0 PUSH2 0x273B DUP3 PUSH2 0x1C40 JUMP JUMPDEST SWAP2 POP PUSH2 0x2746 DUP4 PUSH2 0x1C40 JUMP JUMPDEST SWAP3 POP DUP3 DUP3 SUB SWAP1 POP DUP2 DUP2 GT ISZERO PUSH2 0x275E JUMPI PUSH2 0x275D PUSH2 0x2701 JUMP JUMPDEST JUMPDEST SWAP3 SWAP2 POP POP JUMP JUMPDEST PUSH32 0x4552433732313A2061646472657373207A65726F206973206E6F742061207661 PUSH1 0x0 DUP3 ADD MSTORE PUSH32 0x6C6964206F776E65720000000000000000000000000000000000000000000000 PUSH1 0x20 DUP3 ADD MSTORE POP JUMP JUMPDEST PUSH1 0x0 PUSH2 0x27C0 PUSH1 0x29 DUP4 PUSH2 0x1B99 JUMP JUMPDEST SWAP2 POP PUSH2 0x27CB DUP3 PUSH2 0x2764 JUMP JUMPDEST PUSH1 0x40 DUP3 ADD SWAP1 POP SWAP2 SWAP1 POP JUMP JUMPDEST PUSH1 0x0 PUSH1 0x20 DUP3 ADD SWAP1 POP DUP2 DUP2 SUB PUSH1 0x0 DUP4 ADD MSTORE PUSH2 0x27EF DUP2 PUSH2 0x27B3 JUMP JUMPDEST SWAP1 POP SWAP2 SWAP1 POP JUMP JUMPDEST PUSH1 0x0 PUSH2 0x2801 DUP3 PUSH2 0x1C40 JUMP JUMPDEST SWAP2 POP PUSH32 0xFFFFFFFFFFFFFFFFFFFFFFFFFFFFFFFFFFFFFFFFFFFFFFFFFFFFFFFFFFFFFFFF DUP3 SUB PUSH2 0x2833 JUMPI PUSH2 0x2832 PUSH2 0x2701 JUMP JUMPDEST JUMPDEST PUSH1 0x1 DUP3 ADD SWAP1 POP SWAP2 SWAP1 POP JUMP JUMPDEST PUSH1 0x0 DUP2 SWAP1 POP SWAP3 SWAP2 POP POP JUMP JUMPDEST PUSH1 0x0 PUSH2 0x2854 DUP3 PUSH2 0x1B8E JUMP JUMPDEST PUSH2 0x285E DUP2 DUP6 PUSH2 0x283E JUMP JUMPDEST SWAP4 POP PUSH2 0x286E DUP2 DUP6 PUSH1 0x20 DUP7 ADD PUSH2 0x1BAA JUMP JUMPDEST DUP1 DUP5 ADD SWAP2 POP POP SWAP3 SWAP2 POP POP JUMP JUMPDEST PUSH1 0x0 PUSH2 0x2886 DUP3 DUP6 PUSH2 0x2849 JUMP JUMPDEST SWAP2 POP PUSH2 0x2892 DUP3 DUP5 PUSH2 0x2849 JUMP JUMPDEST SWAP2 POP DUP2 SWAP1 POP SWAP4 SWAP3 POP POP POP JUMP JUMPDEST PUSH32 0x4552433732313A207472616E736665722066726F6D20696E636F727265637420 PUSH1 0x0 DUP3 ADD MSTORE PUSH32 0x6F776E6572000000000000000000000000000000000000000000000000000000 PUSH1 0x20 DUP3 ADD MSTORE POP JUMP JUMPDEST PUSH1 0x0 PUSH2 0x28FA PUSH1 0x25 DUP4 PUSH2 0x1B99 JUMP JUMPDEST SWAP2 POP PUSH2 0x2905 DUP3 PUSH2 0x289E JUMP JUMPDEST PUSH1 0x40 DUP3 ADD SWAP1 POP SWAP2 SWAP1 POP JUMP JUMPDEST PUSH1 0x0 PUSH1 0x20 DUP3 ADD SWAP1 POP DUP2 DUP2 SUB PUSH1 0x0 DUP4 ADD MSTORE PUSH2 0x2929 DUP2 PUSH2 0x28ED JUMP JUMPDEST SWAP1 POP SWAP2 SWAP1 POP JUMP JUMPDEST PUSH32 0x4552433732313A207472616E7366657220746F20746865207A65726F20616464 PUSH1 0x0 DUP3 ADD MSTORE PUSH32 0x7265737300000000000000000000000000000000000000000000000000000000 PUSH1 0x20 DUP3 ADD MSTORE POP JUMP JUMPDEST PUSH1 0x0 PUSH2 0x298C PUSH1 0x24 DUP4 PUSH2 0x1B99 JUMP JUMPDEST SWAP2 POP PUSH2 0x2997 DUP3 PUSH2 0x2930 JUMP JUMPDEST PUSH1 0x40 DUP3 ADD SWAP1 POP SWAP2 SWAP1 POP JUMP JUMPDEST PUSH1 0x0 PUSH1 0x20 DUP3 ADD SWAP1 POP DUP2 DUP2 SUB PUSH1 0x0 DUP4 ADD MSTORE PUSH2 0x29BB DUP2 PUSH2 0x297F JUMP JUMPDEST SWAP1 POP SWAP2 SWAP1 POP JUMP JUMPDEST PUSH1 0x0 PUSH2 0x29CD DUP3 PUSH2 0x1C40 JUMP JUMPDEST SWAP2 POP PUSH2 0x29D8 DUP4 PUSH2 0x1C40 JUMP JUMPDEST SWAP3 POP DUP3 DUP3 ADD SWAP1 POP DUP1 DUP3 GT ISZERO PUSH2 0x29F0 JUMPI PUSH2 0x29EF PUSH2 0x2701 JUMP JUMPDEST JUMPDEST SWAP3 SWAP2 POP POP JUMP JUMPDEST PUSH32 0x4552433732313A20617070726F766520746F2063616C6C657200000000000000 PUSH1 0x0 DUP3 ADD MSTORE POP JUMP JUMPDEST PUSH1 0x0 PUSH2 0x2A2C PUSH1 0x19 DUP4 PUSH2 0x1B99 JUMP JUMPDEST SWAP2 POP PUSH2 0x2A37 DUP3 PUSH2 0x29F6 JUMP JUMPDEST PUSH1 0x20 DUP3 ADD SWAP1 POP SWAP2 SWAP1 POP JUMP JUMPDEST PUSH1 0x0 PUSH1 0x20 DUP3 ADD SWAP1 POP DUP2 DUP2 SUB PUSH1 0x0 DUP4 ADD MSTORE PUSH2 0x2A5B DUP2 PUSH2 0x2A1F JUMP JUMPDEST SWAP1 POP SWAP2 SWAP1 POP JUMP JUMPDEST PUSH32 0x4552433732313A207472616E7366657220746F206E6F6E204552433732315265 PUSH1 0x0 DUP3 ADD MSTORE PUSH32 0x63656976657220696D706C656D656E7465720000000000000000000000000000 PUSH1 0x20 DUP3 ADD MSTORE POP JUMP JUMPDEST PUSH1 0x0 PUSH2 0x2ABE PUSH1 0x32 DUP4 PUSH2 0x1B99 JUMP JUMPDEST SWAP2 POP PUSH2 0x2AC9 DUP3 PUSH2 0x2A62 JUMP JUMPDEST PUSH1 0x40 DUP3 ADD SWAP1 POP SWAP2 SWAP1 POP JUMP JUMPDEST PUSH1 0x0 PUSH1 0x20 DUP3 ADD SWAP1 POP DUP2 DUP2 SUB PUSH1 0x0 DUP4 ADD MSTORE PUSH2 0x2AED DUP2 PUSH2 0x2AB1 JUMP JUMPDEST SWAP1 POP SWAP2 SWAP1 POP JUMP JUMPDEST PUSH32 0x4E487B7100000000000000000000000000000000000000000000000000000000 PUSH1 0x0 MSTORE PUSH1 0x12 PUSH1 0x4 MSTORE PUSH1 0x24 PUSH1 0x0 REVERT JUMPDEST PUSH1 0x0 PUSH2 0x2B2E DUP3 PUSH2 0x1C40 JUMP JUMPDEST SWAP2 POP PUSH2 0x2B39 DUP4 PUSH2 0x1C40 JUMP JUMPDEST SWAP3 POP DUP3 PUSH2 0x2B49 JUMPI PUSH2 0x2B48 PUSH2 0x2AF4 JUMP JUMPDEST JUMPDEST DUP3 DUP3 DIV SWAP1 POP SWAP3 SWAP2 POP POP JUMP JUMPDEST PUSH1 0x0 PUSH2 0x2B5F DUP3 PUSH2 0x1C40 JUMP JUMPDEST SWAP2 POP PUSH2 0x2B6A DUP4 PUSH2 0x1C40 JUMP JUMPDEST SWAP3 POP DUP3 PUSH2 0x2B7A JUMPI PUSH2 0x2B79 PUSH2 0x2AF4 JUMP JUMPDEST JUMPDEST DUP3 DUP3 MOD SWAP1 POP SWAP3 SWAP2 POP POP JUMP JUMPDEST PUSH32 0x4E487B7100000000000000000000000000000000000000000000000000000000 PUSH1 0x0 MSTORE PUSH1 0x32 PUSH1 0x4 MSTORE PUSH1 0x24 PUSH1 0x0 REVERT JUMPDEST PUSH1 0x0 DUP2 MLOAD SWAP1 POP SWAP2 SWAP1 POP JUMP JUMPDEST PUSH1 0x0 DUP3 DUP3 MSTORE PUSH1 0x20 DUP3 ADD SWAP1 POP SWAP3 SWAP2 POP POP JUMP JUMPDEST PUSH1 0x0 PUSH2 0x2BDB DUP3 PUSH2 0x2BB4 JUMP JUMPDEST PUSH2 0x2BE5 DUP2 DUP6 PUSH2 0x2BBF JUMP JUMPDEST SWAP4 POP PUSH2 0x2BF5 DUP2 DUP6 PUSH1 0x20 DUP7 ADD PUSH2 0x1BAA JUMP JUMPDEST PUSH2 0x2BFE DUP2 PUSH2 0x1BD4 JUMP JUMPDEST DUP5 ADD SWAP2 POP POP SWAP3 SWAP2 POP POP JUMP JUMPDEST PUSH1 0x0 PUSH1 0x80 DUP3 ADD SWAP1 POP PUSH2 0x2C1E PUSH1 0x0 DUP4 ADD DUP8 PUSH2 0x1CD5 JUMP JUMPDEST PUSH2 0x2C2B PUSH1 0x20 DUP4 ADD DUP7 PUSH2 0x1CD5 JUMP JUMPDEST PUSH2 0x2C38 PUSH1 0x40 DUP4 ADD DUP6 PUSH2 0x1F4F JUMP JUMPDEST DUP2 DUP2 SUB PUSH1 0x60 DUP4 ADD MSTORE PUSH2 0x2C4A DUP2 DUP5 PUSH2 0x2BD0 JUMP JUMPDEST SWAP1 POP SWAP6 SWAP5 POP POP POP POP POP JUMP JUMPDEST PUSH1 0x0 DUP2 MLOAD SWAP1 POP PUSH2 0x2C64 DUP2 PUSH2 0x1AFF JUMP JUMPDEST SWAP3 SWAP2 POP POP JUMP JUMPDEST PUSH1 0x0 PUSH1 0x20 DUP3 DUP5 SUB SLT ISZERO PUSH2 0x2C80 JUMPI PUSH2 0x2C7F PUSH2 0x1AC9 JUMP JUMPDEST JUMPDEST PUSH1 0x0 PUSH2 0x2C8E DUP5 DUP3 DUP6 ADD PUSH2 0x2C55 JUMP JUMPDEST SWAP2 POP POP SWAP3 SWAP2 POP POP JUMP JUMPDEST PUSH32 0x4552433732313A206D696E7420746F20746865207A65726F2061646472657373 PUSH1 0x0 DUP3 ADD MSTORE POP JUMP JUMPDEST PUSH1 0x0 PUSH2 0x2CCD PUSH1 0x20 DUP4 PUSH2 0x1B99 JUMP JUMPDEST SWAP2 POP PUSH2 0x2CD8 DUP3 PUSH2 0x2C97 JUMP JUMPDEST PUSH1 0x20 DUP3 ADD SWAP1 POP SWAP2 SWAP1 POP JUMP JUMPDEST PUSH1 0x0 PUSH1 0x20 DUP3 ADD SWAP1 POP DUP2 DUP2 SUB PUSH1 0x0 DUP4 ADD MSTORE PUSH2 0x2CFC DUP2 PUSH2 0x2CC0 JUMP JUMPDEST SWAP1 POP SWAP2 SWAP1 POP JUMP JUMPDEST PUSH32 0x4552433732313A20746F6B656E20616C7265616479206D696E74656400000000 PUSH1 0x0 DUP3 ADD MSTORE POP JUMP JUMPDEST PUSH1 0x0 PUSH2 0x2D39 PUSH1 0x1C DUP4 PUSH2 0x1B99 JUMP JUMPDEST SWAP2 POP PUSH2 0x2D44 DUP3 PUSH2 0x2D03 JUMP JUMPDEST PUSH1 0x20 DUP3 ADD SWAP1 POP SWAP2 SWAP1 POP JUMP JUMPDEST PUSH1 0x0 PUSH1 0x20 DUP3 ADD SWAP1 POP DUP2 DUP2 SUB PUSH1 0x0 DUP4 ADD MSTORE PUSH2 0x2D68 DUP2 PUSH2 0x2D2C JUMP JUMPDEST SWAP1 POP SWAP2 SWAP1 POP JUMP INVALID LOG2 PUSH5 0x6970667358 0x22 SLT KECCAK256 CREATE2 MSTORE8 MUL LOG0 LT PUSH22 0xEB970A97B47417F951856D456E53ACF2778B9AA9827 PUSH2 0x4853 SHR PUSH5 0x736F6C6343 STOP ADDMOD GT STOP CALLER "
		},
		"gasEstimates": {
			"creation": {
				"codeDepositCost": "2337000",
				"executionCost": "infinite",
				"totalCost": "infinite"
			},
			"external": {
				"approve(address,uint256)": "infinite",
				"balanceOf(address)": "2899",
				"getApproved(uint256)": "5257",
				"getTokenCounter()": "infinite",
				"getTokenDescription(uint256)": "infinite",
				"getTokenImage(uint256)": "infinite",
				"isApprovedForAll(address,address)": "infinite",
				"mint(address,string,string)": "infinite",
				"name()": "infinite",
				"ownerOf(uint256)": "3045",
				"safeTransferFrom(address,address,uint256)": "infinite",
				"safeTransferFrom(address,address,uint256,bytes)": "infinite",
				"setApprovalForAll(address,bool)": "infinite",
				"setTokenDescription(uint256,string)": "infinite",
				"setTokenImage(uint256,string)": "infinite",
				"supportsInterface(bytes4)": "797",
				"symbol()": "infinite",
				"tokenCounter()": "2539",
				"tokenIdToDescription(uint256)": "infinite",
				"tokenIdToImage(uint256)": "infinite",
				"tokenURI(uint256)": "3416",
				"transferFrom(address,address,uint256)": "infinite"
			}
		},
		"methodIdentifiers": {
			"approve(address,uint256)": "095ea7b3",
			"balanceOf(address)": "70a08231",
			"getApproved(uint256)": "081812fc",
			"getTokenCounter()": "6e02007d",
			"getTokenDescription(uint256)": "b3154c08",
			"getTokenImage(uint256)": "71f0442e",
			"isApprovedForAll(address,address)": "e985e9c5",
			"mint(address,string,string)": "99071190",
			"name()": "06fdde03",
			"ownerOf(uint256)": "6352211e",
			"safeTransferFrom(address,address,uint256)": "42842e0e",
			"safeTransferFrom(address,address,uint256,bytes)": "b88d4fde",
			"setApprovalForAll(address,bool)": "a22cb465",
			"setTokenDescription(uint256,string)": "246a908b",
			"setTokenImage(uint256,string)": "64140ec0",
			"supportsInterface(bytes4)": "01ffc9a7",
			"symbol()": "95d89b41",
			"tokenCounter()": "d082e381",
			"tokenIdToDescription(uint256)": "c8df1166",
			"tokenIdToImage(uint256)": "10795dcc",
			"tokenURI(uint256)": "c87b56dd",
			"transferFrom(address,address,uint256)": "23b872dd"
		}
	},
	"abi": [
		{
			"inputs": [],
			"stateMutability": "nonpayable",
			"type": "constructor"
		},
		{
			"anonymous": false,
			"inputs": [
				{
					"indexed": true,
					"internalType": "address",
					"name": "owner",
					"type": "address"
				},
				{
					"indexed": true,
					"internalType": "address",
					"name": "approved",
					"type": "address"
				},
				{
					"indexed": true,
					"internalType": "uint256",
					"name": "tokenId",
					"type": "uint256"
				}
			],
			"name": "Approval",
			"type": "event"
		},
		{
			"anonymous": false,
			"inputs": [
				{
					"indexed": true,
					"internalType": "address",
					"name": "owner",
					"type": "address"
				},
				{
					"indexed": true,
					"internalType": "address",
					"name": "operator",
					"type": "address"
				},
				{
					"indexed": false,
					"internalType": "bool",
					"name": "approved",
					"type": "bool"
				}
			],
			"name": "ApprovalForAll",
			"type": "event"
		},
		{
			"anonymous": false,
			"inputs": [
				{
					"indexed": true,
					"internalType": "address",
					"name": "from",
					"type": "address"
				},
				{
					"indexed": true,
					"internalType": "address",
					"name": "to",
					"type": "address"
				},
				{
					"indexed": true,
					"internalType": "uint256",
					"name": "tokenId",
					"type": "uint256"
				}
			],
			"name": "Transfer",
			"type": "event"
		},
		{
			"inputs": [
				{
					"internalType": "address",
					"name": "to",
					"type": "address"
				},
				{
					"internalType": "uint256",
					"name": "tokenId",
					"type": "uint256"
				}
			],
			"name": "approve",
			"outputs": [],
			"stateMutability": "nonpayable",
			"type": "function"
		},
		{
			"inputs": [
				{
					"internalType": "address",
					"name": "owner",
					"type": "address"
				}
			],
			"name": "balanceOf",
			"outputs": [
				{
					"internalType": "uint256",
					"name": "",
					"type": "uint256"
				}
			],
			"stateMutability": "view",
			"type": "function"
		},
		{
			"inputs": [
				{
					"internalType": "uint256",
					"name": "tokenId",
					"type": "uint256"
				}
			],
			"name": "getApproved",
			"outputs": [
				{
					"internalType": "address",
					"name": "",
					"type": "address"
				}
			],
			"stateMutability": "view",
			"type": "function"
		},
		{
			"inputs": [],
			"name": "getTokenCounter",
			"outputs": [
				{
					"internalType": "uint256",
					"name": "ben",
					"type": "uint256"
				}
			],
			"stateMutability": "view",
			"type": "function"
		},
		{
			"inputs": [
				{
					"internalType": "uint256",
					"name": "tokenId",
					"type": "uint256"
				}
			],
			"name": "getTokenDescription",
			"outputs": [
				{
					"internalType": "string",
					"name": "",
					"type": "string"
				}
			],
			"stateMutability": "view",
			"type": "function"
		},
		{
			"inputs": [
				{
					"internalType": "uint256",
					"name": "tokenId",
					"type": "uint256"
				}
			],
			"name": "getTokenImage",
			"outputs": [
				{
					"internalType": "string",
					"name": "",
					"type": "string"
				}
			],
			"stateMutability": "view",
			"type": "function"
		},
		{
			"inputs": [
				{
					"internalType": "address",
					"name": "owner",
					"type": "address"
				},
				{
					"internalType": "address",
					"name": "operator",
					"type": "address"
				}
			],
			"name": "isApprovedForAll",
			"outputs": [
				{
					"internalType": "bool",
					"name": "",
					"type": "bool"
				}
			],
			"stateMutability": "view",
			"type": "function"
		},
		{
			"inputs": [
				{
					"internalType": "address",
					"name": "to",
					"type": "address"
				},
				{
					"internalType": "string",
					"name": "description",
					"type": "string"
				},
				{
					"internalType": "string",
					"name": "image",
					"type": "string"
				}
			],
			"name": "mint",
			"outputs": [],
			"stateMutability": "nonpayable",
			"type": "function"
		},
		{
			"inputs": [],
			"name": "name",
			"outputs": [
				{
					"internalType": "string",
					"name": "",
					"type": "string"
				}
			],
			"stateMutability": "view",
			"type": "function"
		},
		{
			"inputs": [
				{
					"internalType": "uint256",
					"name": "tokenId",
					"type": "uint256"
				}
			],
			"name": "ownerOf",
			"outputs": [
				{
					"internalType": "address",
					"name": "",
					"type": "address"
				}
			],
			"stateMutability": "view",
			"type": "function"
		},
		{
			"inputs": [
				{
					"internalType": "address",
					"name": "from",
					"type": "address"
				},
				{
					"internalType": "address",
					"name": "to",
					"type": "address"
				},
				{
					"internalType": "uint256",
					"name": "tokenId",
					"type": "uint256"
				}
			],
			"name": "safeTransferFrom",
			"outputs": [],
			"stateMutability": "nonpayable",
			"type": "function"
		},
		{
			"inputs": [
				{
					"internalType": "address",
					"name": "from",
					"type": "address"
				},
				{
					"internalType": "address",
					"name": "to",
					"type": "address"
				},
				{
					"internalType": "uint256",
					"name": "tokenId",
					"type": "uint256"
				},
				{
					"internalType": "bytes",
					"name": "data",
					"type": "bytes"
				}
			],
			"name": "safeTransferFrom",
			"outputs": [],
			"stateMutability": "nonpayable",
			"type": "function"
		},
		{
			"inputs": [
				{
					"internalType": "address",
					"name": "operator",
					"type": "address"
				},
				{
					"internalType": "bool",
					"name": "approved",
					"type": "bool"
				}
			],
			"name": "setApprovalForAll",
			"outputs": [],
			"stateMutability": "nonpayable",
			"type": "function"
		},
		{
			"inputs": [
				{
					"internalType": "uint256",
					"name": "tokenId",
					"type": "uint256"
				},
				{
					"internalType": "string",
					"name": "description",
					"type": "string"
				}
			],
			"name": "setTokenDescription",
			"outputs": [],
			"stateMutability": "nonpayable",
			"type": "function"
		},
		{
			"inputs": [
				{
					"internalType": "uint256",
					"name": "tokenId",
					"type": "uint256"
				},
				{
					"internalType": "string",
					"name": "image",
					"type": "string"
				}
			],
			"name": "setTokenImage",
			"outputs": [],
			"stateMutability": "nonpayable",
			"type": "function"
		},
		{
			"inputs": [
				{
					"internalType": "bytes4",
					"name": "interfaceId",
					"type": "bytes4"
				}
			],
			"name": "supportsInterface",
			"outputs": [
				{
					"internalType": "bool",
					"name": "",
					"type": "bool"
				}
			],
			"stateMutability": "view",
			"type": "function"
		},
		{
			"inputs": [],
			"name": "symbol",
			"outputs": [
				{
					"internalType": "string",
					"name": "",
					"type": "string"
				}
			],
			"stateMutability": "view",
			"type": "function"
		},
		{
			"inputs": [],
			"name": "tokenCounter",
			"outputs": [
				{
					"internalType": "uint256",
					"name": "",
					"type": "uint256"
				}
			],
			"stateMutability": "view",
			"type": "function"
		},
		{
			"inputs": [
				{
					"internalType": "uint256",
					"name": "",
					"type": "uint256"
				}
			],
			"name": "tokenIdToDescription",
			"outputs": [
				{
					"internalType": "string",
					"name": "",
					"type": "string"
				}
			],
			"stateMutability": "view",
			"type": "function"
		},
		{
			"inputs": [
				{
					"internalType": "uint256",
					"name": "",
					"type": "uint256"
				}
			],
			"name": "tokenIdToImage",
			"outputs": [
				{
					"internalType": "string",
					"name": "",
					"type": "string"
				}
			],
			"stateMutability": "view",
			"type": "function"
		},
		{
			"inputs": [
				{
					"internalType": "uint256",
					"name": "tokenId",
					"type": "uint256"
				}
			],
			"name": "tokenURI",
			"outputs": [
				{
					"internalType": "string",
					"name": "",
					"type": "string"
				}
			],
			"stateMutability": "view",
			"type": "function"
		},
		{
			"inputs": [
				{
					"internalType": "address",
					"name": "from",
					"type": "address"
				},
				{
					"internalType": "address",
					"name": "to",
					"type": "address"
				},
				{
					"internalType": "uint256",
					"name": "tokenId",
					"type": "uint256"
				}
			],
			"name": "transferFrom",
			"outputs": [],
			"stateMutability": "nonpayable",
			"type": "function"
		}
	]
}