{
	"data": {
		"bytecode": {
			"linkReferences": {},
			"object": "6080604052600060035534801561001557600080fd5b5061107b806100256000396000f3fe60806040526004361061008a5760003560e01c80636bf80b5e116100595780636bf80b5e146101765780636c6071aa1461018d578063e1fa8b02146101b8578063f340fa01146101e1578063f8b2cb4f146101fd57610091565b806327e235e3146100965780632a8ec9b8146100d35780632ebc0504146101105780636632efbb1461013957610091565b3661009157005b600080fd5b3480156100a257600080fd5b506100bd60048036038101906100b89190610785565b61023a565b6040516100ca91906107cb565b60405180910390f35b3480156100df57600080fd5b506100fa60048036038101906100f59190610812565b610252565b60405161010791906108e2565b60405180910390f35b34801561011c57600080fd5b5061013760048036038101906101329190610a39565b61030b565b005b34801561014557600080fd5b50610160600480360381019061015b9190610785565b610380565b60405161016d9190610b8e565b60405180910390f35b34801561018257600080fd5b5061018b610498565b005b34801561019957600080fd5b506101a2610542565b6040516101af9190610c6e565b60405180910390f35b3480156101c457600080fd5b506101df60048036038101906101da9190610c90565b6105d0565b005b6101fb60048036038101906101f69190610785565b610671565b005b34801561020957600080fd5b50610224600480360381019061021f9190610785565b6106ca565b60405161023191906107cb565b60405180910390f35b60026020528060005260406000206000915090505481565b6001602052816000526040600020818154811061026e57600080fd5b9060005260206000200160009150915050805461028a90610cff565b80601f01602080910402602001604051908101604052809291908181526020018280546102b690610cff565b80156103035780601f106102d857610100808354040283529160200191610303565b820191906000526020600020905b8154815290600101906020018083116102e657829003601f168201915b505050505081565b600160003373ffffffffffffffffffffffffffffffffffffffff1673ffffffffffffffffffffffffffffffffffffffff1681526020019081526020016000208190806001815401808255809150506001900390600052602060002001600090919091909150908161037c9190610edc565b5050565b6060600160008373ffffffffffffffffffffffffffffffffffffffff1673ffffffffffffffffffffffffffffffffffffffff168152602001908152602001600020805480602002602001604051908101604052809291908181526020016000905b8282101561048d57838290600052602060002001805461040090610cff565b80601f016020809104026020016040519081016040528092919081815260200182805461042c90610cff565b80156104795780601f1061044e57610100808354040283529160200191610479565b820191906000526020600020905b81548152906001019060200180831161045c57829003601f168201915b5050505050815260200190600101906103e1565b505050509050919050565b6000339080600181540180825580915050600190039060005260206000200160009091909190916101000a81548173ffffffffffffffffffffffffffffffffffffffff021916908373ffffffffffffffffffffffffffffffffffffffff1602179055506000600260003373ffffffffffffffffffffffffffffffffffffffff1673ffffffffffffffffffffffffffffffffffffffff16815260200190815260200160002081905550565b606060008054806020026020016040519081016040528092919081815260200182805480156105c657602002820191906000526020600020905b8160009054906101000a900473ffffffffffffffffffffffffffffffffffffffff1673ffffffffffffffffffffffffffffffffffffffff168152602001906001019080831161057c575b5050505050905090565b81600260008373ffffffffffffffffffffffffffffffffffffffff1673ffffffffffffffffffffffffffffffffffffffff168152602001908152602001600020600082825461061f9190610fdd565b925050819055508073ffffffffffffffffffffffffffffffffffffffff166108fc839081150290604051600060405180830381858888f1935050505015801561066c573d6000803e3d6000fd5b505050565b34600260008373ffffffffffffffffffffffffffffffffffffffff1673ffffffffffffffffffffffffffffffffffffffff16815260200190815260200160002060008282546106c09190611011565b9250508190555050565b6000600260008373ffffffffffffffffffffffffffffffffffffffff1673ffffffffffffffffffffffffffffffffffffffff168152602001908152602001600020549050919050565b6000604051905090565b600080fd5b600080fd5b600073ffffffffffffffffffffffffffffffffffffffff82169050919050565b600061075282610727565b9050919050565b61076281610747565b811461076d57600080fd5b50565b60008135905061077f81610759565b92915050565b60006020828403121561079b5761079a61071d565b5b60006107a984828501610770565b91505092915050565b6000819050919050565b6107c5816107b2565b82525050565b60006020820190506107e060008301846107bc565b92915050565b6107ef816107b2565b81146107fa57600080fd5b50565b60008135905061080c816107e6565b92915050565b600080604083850312156108295761082861071d565b5b600061083785828601610770565b9250506020610848858286016107fd565b9150509250929050565b600081519050919050565b600082825260208201905092915050565b60005b8381101561088c578082015181840152602081019050610871565b60008484015250505050565b6000601f19601f8301169050919050565b60006108b482610852565b6108be818561085d565b93506108ce81856020860161086e565b6108d781610898565b840191505092915050565b600060208201905081810360008301526108fc81846108a9565b905092915050565b600080fd5b600080fd5b7f4e487b7100000000000000000000000000000000000000000000000000000000600052604160045260246000fd5b61094682610898565b810181811067ffffffffffffffff821117156109655761096461090e565b5b80604052505050565b6000610978610713565b9050610984828261093d565b919050565b600067ffffffffffffffff8211156109a4576109a361090e565b5b6109ad82610898565b9050602081019050919050565b82818337600083830152505050565b60006109dc6109d784610989565b61096e565b9050828152602081018484840111156109f8576109f7610909565b5b610a038482856109ba565b509392505050565b600082601f830112610a2057610a1f610904565b5b8135610a308482602086016109c9565b91505092915050565b600060208284031215610a4f57610a4e61071d565b5b600082013567ffffffffffffffff811115610a6d57610a6c610722565b5b610a7984828501610a0b565b91505092915050565b600081519050919050565b600082825260208201905092915050565b6000819050602082019050919050565b600082825260208201905092915050565b6000610aca82610852565b610ad48185610aae565b9350610ae481856020860161086e565b610aed81610898565b840191505092915050565b6000610b048383610abf565b905092915050565b6000602082019050919050565b6000610b2482610a82565b610b2e8185610a8d565b935083602082028501610b4085610a9e565b8060005b85811015610b7c5784840389528151610b5d8582610af8565b9450610b6883610b0c565b925060208a01995050600181019050610b44565b50829750879550505050505092915050565b60006020820190508181036000830152610ba88184610b19565b905092915050565b600081519050919050565b600082825260208201905092915050565b6000819050602082019050919050565b610be581610747565b82525050565b6000610bf78383610bdc565b60208301905092915050565b6000602082019050919050565b6000610c1b82610bb0565b610c258185610bbb565b9350610c3083610bcc565b8060005b83811015610c61578151610c488882610beb565b9750610c5383610c03565b925050600181019050610c34565b5085935050505092915050565b60006020820190508181036000830152610c888184610c10565b905092915050565b60008060408385031215610ca757610ca661071d565b5b6000610cb5858286016107fd565b9250506020610cc685828601610770565b9150509250929050565b7f4e487b7100000000000000000000000000000000000000000000000000000000600052602260045260246000fd5b60006002820490506001821680610d1757607f821691505b602082108103610d2a57610d29610cd0565b5b50919050565b60008190508160005260206000209050919050565b60006020601f8301049050919050565b600082821b905092915050565b600060088302610d927fffffffffffffffffffffffffffffffffffffffffffffffffffffffffffffffff82610d55565b610d9c8683610d55565b95508019841693508086168417925050509392505050565b6000819050919050565b6000610dd9610dd4610dcf846107b2565b610db4565b6107b2565b9050919050565b6000819050919050565b610df383610dbe565b610e07610dff82610de0565b848454610d62565b825550505050565b600090565b610e1c610e0f565b610e27818484610dea565b505050565b5b81811015610e4b57610e40600082610e14565b600181019050610e2d565b5050565b601f821115610e9057610e6181610d30565b610e6a84610d45565b81016020851015610e79578190505b610e8d610e8585610d45565b830182610e2c565b50505b505050565b600082821c905092915050565b6000610eb360001984600802610e95565b1980831691505092915050565b6000610ecc8383610ea2565b9150826002028217905092915050565b610ee582610852565b67ffffffffffffffff811115610efe57610efd61090e565b5b610f088254610cff565b610f13828285610e4f565b600060209050601f831160018114610f465760008415610f34578287015190505b610f3e8582610ec0565b865550610fa6565b601f198416610f5486610d30565b60005b82811015610f7c57848901518255600182019150602085019450602081019050610f57565b86831015610f995784890151610f95601f891682610ea2565b8355505b6001600288020188555050505b505050505050565b7f4e487b7100000000000000000000000000000000000000000000000000000000600052601160045260246000fd5b6000610fe8826107b2565b9150610ff3836107b2565b925082820390508181111561100b5761100a610fae565b5b92915050565b600061101c826107b2565b9150611027836107b2565b925082820190508082111561103f5761103e610fae565b5b9291505056fea264697066735822122058060871b28ed81f9a3415e7929b39d07cc39f516e5348ee5b7ee69dbee3d85964736f6c63430008110033",
			"opcodes": "PUSH1 0x80 PUSH1 0x40 MSTORE PUSH1 0x0 PUSH1 0x3 SSTORE CALLVALUE DUP1 ISZERO PUSH2 0x15 JUMPI PUSH1 0x0 DUP1 REVERT JUMPDEST POP PUSH2 0x107B DUP1 PUSH2 0x25 PUSH1 0x0 CODECOPY PUSH1 0x0 RETURN INVALID PUSH1 0x80 PUSH1 0x40 MSTORE PUSH1 0x4 CALLDATASIZE LT PUSH2 0x8A JUMPI PUSH1 0x0 CALLDATALOAD PUSH1 0xE0 SHR DUP1 PUSH4 0x6BF80B5E GT PUSH2 0x59 JUMPI DUP1 PUSH4 0x6BF80B5E EQ PUSH2 0x176 JUMPI DUP1 PUSH4 0x6C6071AA EQ PUSH2 0x18D JUMPI DUP1 PUSH4 0xE1FA8B02 EQ PUSH2 0x1B8 JUMPI DUP1 PUSH4 0xF340FA01 EQ PUSH2 0x1E1 JUMPI DUP1 PUSH4 0xF8B2CB4F EQ PUSH2 0x1FD JUMPI PUSH2 0x91 JUMP JUMPDEST DUP1 PUSH4 0x27E235E3 EQ PUSH2 0x96 JUMPI DUP1 PUSH4 0x2A8EC9B8 EQ PUSH2 0xD3 JUMPI DUP1 PUSH4 0x2EBC0504 EQ PUSH2 0x110 JUMPI DUP1 PUSH4 0x6632EFBB EQ PUSH2 0x139 JUMPI PUSH2 0x91 JUMP JUMPDEST CALLDATASIZE PUSH2 0x91 JUMPI STOP JUMPDEST PUSH1 0x0 DUP1 REVERT JUMPDEST CALLVALUE DUP1 ISZERO PUSH2 0xA2 JUMPI PUSH1 0x0 DUP1 REVERT JUMPDEST POP PUSH2 0xBD PUSH1 0x4 DUP1 CALLDATASIZE SUB DUP2 ADD SWAP1 PUSH2 0xB8 SWAP2 SWAP1 PUSH2 0x785 JUMP JUMPDEST PUSH2 0x23A JUMP JUMPDEST PUSH1 0x40 MLOAD PUSH2 0xCA SWAP2 SWAP1 PUSH2 0x7CB JUMP JUMPDEST PUSH1 0x40 MLOAD DUP1 SWAP2 SUB SWAP1 RETURN JUMPDEST CALLVALUE DUP1 ISZERO PUSH2 0xDF JUMPI PUSH1 0x0 DUP1 REVERT JUMPDEST POP PUSH2 0xFA PUSH1 0x4 DUP1 CALLDATASIZE SUB DUP2 ADD SWAP1 PUSH2 0xF5 SWAP2 SWAP1 PUSH2 0x812 JUMP JUMPDEST PUSH2 0x252 JUMP JUMPDEST PUSH1 0x40 MLOAD PUSH2 0x107 SWAP2 SWAP1 PUSH2 0x8E2 JUMP JUMPDEST PUSH1 0x40 MLOAD DUP1 SWAP2 SUB SWAP1 RETURN JUMPDEST CALLVALUE DUP1 ISZERO PUSH2 0x11C JUMPI PUSH1 0x0 DUP1 REVERT JUMPDEST POP PUSH2 0x137 PUSH1 0x4 DUP1 CALLDATASIZE SUB DUP2 ADD SWAP1 PUSH2 0x132 SWAP2 SWAP1 PUSH2 0xA39 JUMP JUMPDEST PUSH2 0x30B JUMP JUMPDEST STOP JUMPDEST CALLVALUE DUP1 ISZERO PUSH2 0x145 JUMPI PUSH1 0x0 DUP1 REVERT JUMPDEST POP PUSH2 0x160 PUSH1 0x4 DUP1 CALLDATASIZE SUB DUP2 ADD SWAP1 PUSH2 0x15B SWAP2 SWAP1 PUSH2 0x785 JUMP JUMPDEST PUSH2 0x380 JUMP JUMPDEST PUSH1 0x40 MLOAD PUSH2 0x16D SWAP2 SWAP1 PUSH2 0xB8E JUMP JUMPDEST PUSH1 0x40 MLOAD DUP1 SWAP2 SUB SWAP1 RETURN JUMPDEST CALLVALUE DUP1 ISZERO PUSH2 0x182 JUMPI PUSH1 0x0 DUP1 REVERT JUMPDEST POP PUSH2 0x18B PUSH2 0x498 JUMP JUMPDEST STOP JUMPDEST CALLVALUE DUP1 ISZERO PUSH2 0x199 JUMPI PUSH1 0x0 DUP1 REVERT JUMPDEST POP PUSH2 0x1A2 PUSH2 0x542 JUMP JUMPDEST PUSH1 0x40 MLOAD PUSH2 0x1AF SWAP2 SWAP1 PUSH2 0xC6E JUMP JUMPDEST PUSH1 0x40 MLOAD DUP1 SWAP2 SUB SWAP1 RETURN JUMPDEST CALLVALUE DUP1 ISZERO PUSH2 0x1C4 JUMPI PUSH1 0x0 DUP1 REVERT JUMPDEST POP PUSH2 0x1DF PUSH1 0x4 DUP1 CALLDATASIZE SUB DUP2 ADD SWAP1 PUSH2 0x1DA SWAP2 SWAP1 PUSH2 0xC90 JUMP JUMPDEST PUSH2 0x5D0 JUMP JUMPDEST STOP JUMPDEST PUSH2 0x1FB PUSH1 0x4 DUP1 CALLDATASIZE SUB DUP2 ADD SWAP1 PUSH2 0x1F6 SWAP2 SWAP1 PUSH2 0x785 JUMP JUMPDEST PUSH2 0x671 JUMP JUMPDEST STOP JUMPDEST CALLVALUE DUP1 ISZERO PUSH2 0x209 JUMPI PUSH1 0x0 DUP1 REVERT JUMPDEST POP PUSH2 0x224 PUSH1 0x4 DUP1 CALLDATASIZE SUB DUP2 ADD SWAP1 PUSH2 0x21F SWAP2 SWAP1 PUSH2 0x785 JUMP JUMPDEST PUSH2 0x6CA JUMP JUMPDEST PUSH1 0x40 MLOAD PUSH2 0x231 SWAP2 SWAP1 PUSH2 0x7CB JUMP JUMPDEST PUSH1 0x40 MLOAD DUP1 SWAP2 SUB SWAP1 RETURN JUMPDEST PUSH1 0x2 PUSH1 0x20 MSTORE DUP1 PUSH1 0x0 MSTORE PUSH1 0x40 PUSH1 0x0 KECCAK256 PUSH1 0x0 SWAP2 POP SWAP1 POP SLOAD DUP2 JUMP JUMPDEST PUSH1 0x1 PUSH1 0x20 MSTORE DUP2 PUSH1 0x0 MSTORE PUSH1 0x40 PUSH1 0x0 KECCAK256 DUP2 DUP2 SLOAD DUP2 LT PUSH2 0x26E JUMPI PUSH1 0x0 DUP1 REVERT JUMPDEST SWAP1 PUSH1 0x0 MSTORE PUSH1 0x20 PUSH1 0x0 KECCAK256 ADD PUSH1 0x0 SWAP2 POP SWAP2 POP POP DUP1 SLOAD PUSH2 0x28A SWAP1 PUSH2 0xCFF JUMP JUMPDEST DUP1 PUSH1 0x1F ADD PUSH1 0x20 DUP1 SWAP2 DIV MUL PUSH1 0x20 ADD PUSH1 0x40 MLOAD SWAP1 DUP2 ADD PUSH1 0x40 MSTORE DUP1 SWAP3 SWAP2 SWAP1 DUP2 DUP2 MSTORE PUSH1 0x20 ADD DUP3 DUP1 SLOAD PUSH2 0x2B6 SWAP1 PUSH2 0xCFF JUMP JUMPDEST DUP1 ISZERO PUSH2 0x303 JUMPI DUP1 PUSH1 0x1F LT PUSH2 0x2D8 JUMPI PUSH2 0x100 DUP1 DUP4 SLOAD DIV MUL DUP4 MSTORE SWAP2 PUSH1 0x20 ADD SWAP2 PUSH2 0x303 JUMP JUMPDEST DUP3 ADD SWAP2 SWAP1 PUSH1 0x0 MSTORE PUSH1 0x20 PUSH1 0x0 KECCAK256 SWAP1 JUMPDEST DUP2 SLOAD DUP2 MSTORE SWAP1 PUSH1 0x1 ADD SWAP1 PUSH1 0x20 ADD DUP1 DUP4 GT PUSH2 0x2E6 JUMPI DUP3 SWAP1 SUB PUSH1 0x1F AND DUP3 ADD SWAP2 JUMPDEST POP POP POP POP POP DUP2 JUMP JUMPDEST PUSH1 0x1 PUSH1 0x0 CALLER PUSH20 0xFFFFFFFFFFFFFFFFFFFFFFFFFFFFFFFFFFFFFFFF AND PUSH20 0xFFFFFFFFFFFFFFFFFFFFFFFFFFFFFFFFFFFFFFFF AND DUP2 MSTORE PUSH1 0x20 ADD SWAP1 DUP2 MSTORE PUSH1 0x20 ADD PUSH1 0x0 KECCAK256 DUP2 SWAP1 DUP1 PUSH1 0x1 DUP2 SLOAD ADD DUP1 DUP3 SSTORE DUP1 SWAP2 POP POP PUSH1 0x1 SWAP1 SUB SWAP1 PUSH1 0x0 MSTORE PUSH1 0x20 PUSH1 0x0 KECCAK256 ADD PUSH1 0x0 SWAP1 SWAP2 SWAP1 SWAP2 SWAP1 SWAP2 POP SWAP1 DUP2 PUSH2 0x37C SWAP2 SWAP1 PUSH2 0xEDC JUMP JUMPDEST POP POP JUMP JUMPDEST PUSH1 0x60 PUSH1 0x1 PUSH1 0x0 DUP4 PUSH20 0xFFFFFFFFFFFFFFFFFFFFFFFFFFFFFFFFFFFFFFFF AND PUSH20 0xFFFFFFFFFFFFFFFFFFFFFFFFFFFFFFFFFFFFFFFF AND DUP2 MSTORE PUSH1 0x20 ADD SWAP1 DUP2 MSTORE PUSH1 0x20 ADD PUSH1 0x0 KECCAK256 DUP1 SLOAD DUP1 PUSH1 0x20 MUL PUSH1 0x20 ADD PUSH1 0x40 MLOAD SWAP1 DUP2 ADD PUSH1 0x40 MSTORE DUP1 SWAP3 SWAP2 SWAP1 DUP2 DUP2 MSTORE PUSH1 0x20 ADD PUSH1 0x0 SWAP1 JUMPDEST DUP3 DUP3 LT ISZERO PUSH2 0x48D JUMPI DUP4 DUP3 SWAP1 PUSH1 0x0 MSTORE PUSH1 0x20 PUSH1 0x0 KECCAK256 ADD DUP1 SLOAD PUSH2 0x400 SWAP1 PUSH2 0xCFF JUMP JUMPDEST DUP1 PUSH1 0x1F ADD PUSH1 0x20 DUP1 SWAP2 DIV MUL PUSH1 0x20 ADD PUSH1 0x40 MLOAD SWAP1 DUP2 ADD PUSH1 0x40 MSTORE DUP1 SWAP3 SWAP2 SWAP1 DUP2 DUP2 MSTORE PUSH1 0x20 ADD DUP3 DUP1 SLOAD PUSH2 0x42C SWAP1 PUSH2 0xCFF JUMP JUMPDEST DUP1 ISZERO PUSH2 0x479 JUMPI DUP1 PUSH1 0x1F LT PUSH2 0x44E JUMPI PUSH2 0x100 DUP1 DUP4 SLOAD DIV MUL DUP4 MSTORE SWAP2 PUSH1 0x20 ADD SWAP2 PUSH2 0x479 JUMP JUMPDEST DUP3 ADD SWAP2 SWAP1 PUSH1 0x0 MSTORE PUSH1 0x20 PUSH1 0x0 KECCAK256 SWAP1 JUMPDEST DUP2 SLOAD DUP2 MSTORE SWAP1 PUSH1 0x1 ADD SWAP1 PUSH1 0x20 ADD DUP1 DUP4 GT PUSH2 0x45C JUMPI DUP3 SWAP1 SUB PUSH1 0x1F AND DUP3 ADD SWAP2 JUMPDEST POP POP POP POP POP DUP2 MSTORE PUSH1 0x20 ADD SWAP1 PUSH1 0x1 ADD SWAP1 PUSH2 0x3E1 JUMP JUMPDEST POP POP POP POP SWAP1 POP SWAP2 SWAP1 POP JUMP JUMPDEST PUSH1 0x0 CALLER SWAP1 DUP1 PUSH1 0x1 DUP2 SLOAD ADD DUP1 DUP3 SSTORE DUP1 SWAP2 POP POP PUSH1 0x1 SWAP1 SUB SWAP1 PUSH1 0x0 MSTORE PUSH1 0x20 PUSH1 0x0 KECCAK256 ADD PUSH1 0x0 SWAP1 SWAP2 SWAP1 SWAP2 SWAP1 SWAP2 PUSH2 0x100 EXP DUP2 SLOAD DUP2 PUSH20 0xFFFFFFFFFFFFFFFFFFFFFFFFFFFFFFFFFFFFFFFF MUL NOT AND SWAP1 DUP4 PUSH20 0xFFFFFFFFFFFFFFFFFFFFFFFFFFFFFFFFFFFFFFFF AND MUL OR SWAP1 SSTORE POP PUSH1 0x0 PUSH1 0x2 PUSH1 0x0 CALLER PUSH20 0xFFFFFFFFFFFFFFFFFFFFFFFFFFFFFFFFFFFFFFFF AND PUSH20 0xFFFFFFFFFFFFFFFFFFFFFFFFFFFFFFFFFFFFFFFF AND DUP2 MSTORE PUSH1 0x20 ADD SWAP1 DUP2 MSTORE PUSH1 0x20 ADD PUSH1 0x0 KECCAK256 DUP2 SWAP1 SSTORE POP JUMP JUMPDEST PUSH1 0x60 PUSH1 0x0 DUP1 SLOAD DUP1 PUSH1 0x20 MUL PUSH1 0x20 ADD PUSH1 0x40 MLOAD SWAP1 DUP2 ADD PUSH1 0x40 MSTORE DUP1 SWAP3 SWAP2 SWAP1 DUP2 DUP2 MSTORE PUSH1 0x20 ADD DUP3 DUP1 SLOAD DUP1 ISZERO PUSH2 0x5C6 JUMPI PUSH1 0x20 MUL DUP3 ADD SWAP2 SWAP1 PUSH1 0x0 MSTORE PUSH1 0x20 PUSH1 0x0 KECCAK256 SWAP1 JUMPDEST DUP2 PUSH1 0x0 SWAP1 SLOAD SWAP1 PUSH2 0x100 EXP SWAP1 DIV PUSH20 0xFFFFFFFFFFFFFFFFFFFFFFFFFFFFFFFFFFFFFFFF AND PUSH20 0xFFFFFFFFFFFFFFFFFFFFFFFFFFFFFFFFFFFFFFFF AND DUP2 MSTORE PUSH1 0x20 ADD SWAP1 PUSH1 0x1 ADD SWAP1 DUP1 DUP4 GT PUSH2 0x57C JUMPI JUMPDEST POP POP POP POP POP SWAP1 POP SWAP1 JUMP JUMPDEST DUP2 PUSH1 0x2 PUSH1 0x0 DUP4 PUSH20 0xFFFFFFFFFFFFFFFFFFFFFFFFFFFFFFFFFFFFFFFF AND PUSH20 0xFFFFFFFFFFFFFFFFFFFFFFFFFFFFFFFFFFFFFFFF AND DUP2 MSTORE PUSH1 0x20 ADD SWAP1 DUP2 MSTORE PUSH1 0x20 ADD PUSH1 0x0 KECCAK256 PUSH1 0x0 DUP3 DUP3 SLOAD PUSH2 0x61F SWAP2 SWAP1 PUSH2 0xFDD JUMP JUMPDEST SWAP3 POP POP DUP2 SWAP1 SSTORE POP DUP1 PUSH20 0xFFFFFFFFFFFFFFFFFFFFFFFFFFFFFFFFFFFFFFFF AND PUSH2 0x8FC DUP4 SWAP1 DUP2 ISZERO MUL SWAP1 PUSH1 0x40 MLOAD PUSH1 0x0 PUSH1 0x40 MLOAD DUP1 DUP4 SUB DUP2 DUP6 DUP9 DUP9 CALL SWAP4 POP POP POP POP ISZERO DUP1 ISZERO PUSH2 0x66C JUMPI RETURNDATASIZE PUSH1 0x0 DUP1 RETURNDATACOPY RETURNDATASIZE PUSH1 0x0 REVERT JUMPDEST POP POP POP JUMP JUMPDEST CALLVALUE PUSH1 0x2 PUSH1 0x0 DUP4 PUSH20 0xFFFFFFFFFFFFFFFFFFFFFFFFFFFFFFFFFFFFFFFF AND PUSH20 0xFFFFFFFFFFFFFFFFFFFFFFFFFFFFFFFFFFFFFFFF AND DUP2 MSTORE PUSH1 0x20 ADD SWAP1 DUP2 MSTORE PUSH1 0x20 ADD PUSH1 0x0 KECCAK256 PUSH1 0x0 DUP3 DUP3 SLOAD PUSH2 0x6C0 SWAP2 SWAP1 PUSH2 0x1011 JUMP JUMPDEST SWAP3 POP POP DUP2 SWAP1 SSTORE POP POP JUMP JUMPDEST PUSH1 0x0 PUSH1 0x2 PUSH1 0x0 DUP4 PUSH20 0xFFFFFFFFFFFFFFFFFFFFFFFFFFFFFFFFFFFFFFFF AND PUSH20 0xFFFFFFFFFFFFFFFFFFFFFFFFFFFFFFFFFFFFFFFF AND DUP2 MSTORE PUSH1 0x20 ADD SWAP1 DUP2 MSTORE PUSH1 0x20 ADD PUSH1 0x0 KECCAK256 SLOAD SWAP1 POP SWAP2 SWAP1 POP JUMP JUMPDEST PUSH1 0x0 PUSH1 0x40 MLOAD SWAP1 POP SWAP1 JUMP JUMPDEST PUSH1 0x0 DUP1 REVERT JUMPDEST PUSH1 0x0 DUP1 REVERT JUMPDEST PUSH1 0x0 PUSH20 0xFFFFFFFFFFFFFFFFFFFFFFFFFFFFFFFFFFFFFFFF DUP3 AND SWAP1 POP SWAP2 SWAP1 POP JUMP JUMPDEST PUSH1 0x0 PUSH2 0x752 DUP3 PUSH2 0x727 JUMP JUMPDEST SWAP1 POP SWAP2 SWAP1 POP JUMP JUMPDEST PUSH2 0x762 DUP2 PUSH2 0x747 JUMP JUMPDEST DUP2 EQ PUSH2 0x76D JUMPI PUSH1 0x0 DUP1 REVERT JUMPDEST POP JUMP JUMPDEST PUSH1 0x0 DUP2 CALLDATALOAD SWAP1 POP PUSH2 0x77F DUP2 PUSH2 0x759 JUMP JUMPDEST SWAP3 SWAP2 POP POP JUMP JUMPDEST PUSH1 0x0 PUSH1 0x20 DUP3 DUP5 SUB SLT ISZERO PUSH2 0x79B JUMPI PUSH2 0x79A PUSH2 0x71D JUMP JUMPDEST JUMPDEST PUSH1 0x0 PUSH2 0x7A9 DUP5 DUP3 DUP6 ADD PUSH2 0x770 JUMP JUMPDEST SWAP2 POP POP SWAP3 SWAP2 POP POP JUMP JUMPDEST PUSH1 0x0 DUP2 SWAP1 POP SWAP2 SWAP1 POP JUMP JUMPDEST PUSH2 0x7C5 DUP2 PUSH2 0x7B2 JUMP JUMPDEST DUP3 MSTORE POP POP JUMP JUMPDEST PUSH1 0x0 PUSH1 0x20 DUP3 ADD SWAP1 POP PUSH2 0x7E0 PUSH1 0x0 DUP4 ADD DUP5 PUSH2 0x7BC JUMP JUMPDEST SWAP3 SWAP2 POP POP JUMP JUMPDEST PUSH2 0x7EF DUP2 PUSH2 0x7B2 JUMP JUMPDEST DUP2 EQ PUSH2 0x7FA JUMPI PUSH1 0x0 DUP1 REVERT JUMPDEST POP JUMP JUMPDEST PUSH1 0x0 DUP2 CALLDATALOAD SWAP1 POP PUSH2 0x80C DUP2 PUSH2 0x7E6 JUMP JUMPDEST SWAP3 SWAP2 POP POP JUMP JUMPDEST PUSH1 0x0 DUP1 PUSH1 0x40 DUP4 DUP6 SUB SLT ISZERO PUSH2 0x829 JUMPI PUSH2 0x828 PUSH2 0x71D JUMP JUMPDEST JUMPDEST PUSH1 0x0 PUSH2 0x837 DUP6 DUP3 DUP7 ADD PUSH2 0x770 JUMP JUMPDEST SWAP3 POP POP PUSH1 0x20 PUSH2 0x848 DUP6 DUP3 DUP7 ADD PUSH2 0x7FD JUMP JUMPDEST SWAP2 POP POP SWAP3 POP SWAP3 SWAP1 POP JUMP JUMPDEST PUSH1 0x0 DUP2 MLOAD SWAP1 POP SWAP2 SWAP1 POP JUMP JUMPDEST PUSH1 0x0 DUP3 DUP3 MSTORE PUSH1 0x20 DUP3 ADD SWAP1 POP SWAP3 SWAP2 POP POP JUMP JUMPDEST PUSH1 0x0 JUMPDEST DUP4 DUP2 LT ISZERO PUSH2 0x88C JUMPI DUP1 DUP3 ADD MLOAD DUP2 DUP5 ADD MSTORE PUSH1 0x20 DUP2 ADD SWAP1 POP PUSH2 0x871 JUMP JUMPDEST PUSH1 0x0 DUP5 DUP5 ADD MSTORE POP POP POP POP JUMP JUMPDEST PUSH1 0x0 PUSH1 0x1F NOT PUSH1 0x1F DUP4 ADD AND SWAP1 POP SWAP2 SWAP1 POP JUMP JUMPDEST PUSH1 0x0 PUSH2 0x8B4 DUP3 PUSH2 0x852 JUMP JUMPDEST PUSH2 0x8BE DUP2 DUP6 PUSH2 0x85D JUMP JUMPDEST SWAP4 POP PUSH2 0x8CE DUP2 DUP6 PUSH1 0x20 DUP7 ADD PUSH2 0x86E JUMP JUMPDEST PUSH2 0x8D7 DUP2 PUSH2 0x898 JUMP JUMPDEST DUP5 ADD SWAP2 POP POP SWAP3 SWAP2 POP POP JUMP JUMPDEST PUSH1 0x0 PUSH1 0x20 DUP3 ADD SWAP1 POP DUP2 DUP2 SUB PUSH1 0x0 DUP4 ADD MSTORE PUSH2 0x8FC DUP2 DUP5 PUSH2 0x8A9 JUMP JUMPDEST SWAP1 POP SWAP3 SWAP2 POP POP JUMP JUMPDEST PUSH1 0x0 DUP1 REVERT JUMPDEST PUSH1 0x0 DUP1 REVERT JUMPDEST PUSH32 0x4E487B7100000000000000000000000000000000000000000000000000000000 PUSH1 0x0 MSTORE PUSH1 0x41 PUSH1 0x4 MSTORE PUSH1 0x24 PUSH1 0x0 REVERT JUMPDEST PUSH2 0x946 DUP3 PUSH2 0x898 JUMP JUMPDEST DUP2 ADD DUP2 DUP2 LT PUSH8 0xFFFFFFFFFFFFFFFF DUP3 GT OR ISZERO PUSH2 0x965 JUMPI PUSH2 0x964 PUSH2 0x90E JUMP JUMPDEST JUMPDEST DUP1 PUSH1 0x40 MSTORE POP POP POP JUMP JUMPDEST PUSH1 0x0 PUSH2 0x978 PUSH2 0x713 JUMP JUMPDEST SWAP1 POP PUSH2 0x984 DUP3 DUP3 PUSH2 0x93D JUMP JUMPDEST SWAP2 SWAP1 POP JUMP JUMPDEST PUSH1 0x0 PUSH8 0xFFFFFFFFFFFFFFFF DUP3 GT ISZERO PUSH2 0x9A4 JUMPI PUSH2 0x9A3 PUSH2 0x90E JUMP JUMPDEST JUMPDEST PUSH2 0x9AD DUP3 PUSH2 0x898 JUMP JUMPDEST SWAP1 POP PUSH1 0x20 DUP2 ADD SWAP1 POP SWAP2 SWAP1 POP JUMP JUMPDEST DUP3 DUP2 DUP4 CALLDATACOPY PUSH1 0x0 DUP4 DUP4 ADD MSTORE POP POP POP JUMP JUMPDEST PUSH1 0x0 PUSH2 0x9DC PUSH2 0x9D7 DUP5 PUSH2 0x989 JUMP JUMPDEST PUSH2 0x96E JUMP JUMPDEST SWAP1 POP DUP3 DUP2 MSTORE PUSH1 0x20 DUP2 ADD DUP5 DUP5 DUP5 ADD GT ISZERO PUSH2 0x9F8 JUMPI PUSH2 0x9F7 PUSH2 0x909 JUMP JUMPDEST JUMPDEST PUSH2 0xA03 DUP5 DUP3 DUP6 PUSH2 0x9BA JUMP JUMPDEST POP SWAP4 SWAP3 POP POP POP JUMP JUMPDEST PUSH1 0x0 DUP3 PUSH1 0x1F DUP4 ADD SLT PUSH2 0xA20 JUMPI PUSH2 0xA1F PUSH2 0x904 JUMP JUMPDEST JUMPDEST DUP2 CALLDATALOAD PUSH2 0xA30 DUP5 DUP3 PUSH1 0x20 DUP7 ADD PUSH2 0x9C9 JUMP JUMPDEST SWAP2 POP POP SWAP3 SWAP2 POP POP JUMP JUMPDEST PUSH1 0x0 PUSH1 0x20 DUP3 DUP5 SUB SLT ISZERO PUSH2 0xA4F JUMPI PUSH2 0xA4E PUSH2 0x71D JUMP JUMPDEST JUMPDEST PUSH1 0x0 DUP3 ADD CALLDATALOAD PUSH8 0xFFFFFFFFFFFFFFFF DUP2 GT ISZERO PUSH2 0xA6D JUMPI PUSH2 0xA6C PUSH2 0x722 JUMP JUMPDEST JUMPDEST PUSH2 0xA79 DUP5 DUP3 DUP6 ADD PUSH2 0xA0B JUMP JUMPDEST SWAP2 POP POP SWAP3 SWAP2 POP POP JUMP JUMPDEST PUSH1 0x0 DUP2 MLOAD SWAP1 POP SWAP2 SWAP1 POP JUMP JUMPDEST PUSH1 0x0 DUP3 DUP3 MSTORE PUSH1 0x20 DUP3 ADD SWAP1 POP SWAP3 SWAP2 POP POP JUMP JUMPDEST PUSH1 0x0 DUP2 SWAP1 POP PUSH1 0x20 DUP3 ADD SWAP1 POP SWAP2 SWAP1 POP JUMP JUMPDEST PUSH1 0x0 DUP3 DUP3 MSTORE PUSH1 0x20 DUP3 ADD SWAP1 POP SWAP3 SWAP2 POP POP JUMP JUMPDEST PUSH1 0x0 PUSH2 0xACA DUP3 PUSH2 0x852 JUMP JUMPDEST PUSH2 0xAD4 DUP2 DUP6 PUSH2 0xAAE JUMP JUMPDEST SWAP4 POP PUSH2 0xAE4 DUP2 DUP6 PUSH1 0x20 DUP7 ADD PUSH2 0x86E JUMP JUMPDEST PUSH2 0xAED DUP2 PUSH2 0x898 JUMP JUMPDEST DUP5 ADD SWAP2 POP POP SWAP3 SWAP2 POP POP JUMP JUMPDEST PUSH1 0x0 PUSH2 0xB04 DUP4 DUP4 PUSH2 0xABF JUMP JUMPDEST SWAP1 POP SWAP3 SWAP2 POP POP JUMP JUMPDEST PUSH1 0x0 PUSH1 0x20 DUP3 ADD SWAP1 POP SWAP2 SWAP1 POP JUMP JUMPDEST PUSH1 0x0 PUSH2 0xB24 DUP3 PUSH2 0xA82 JUMP JUMPDEST PUSH2 0xB2E DUP2 DUP6 PUSH2 0xA8D JUMP JUMPDEST SWAP4 POP DUP4 PUSH1 0x20 DUP3 MUL DUP6 ADD PUSH2 0xB40 DUP6 PUSH2 0xA9E JUMP JUMPDEST DUP1 PUSH1 0x0 JUMPDEST DUP6 DUP2 LT ISZERO PUSH2 0xB7C JUMPI DUP5 DUP5 SUB DUP10 MSTORE DUP2 MLOAD PUSH2 0xB5D DUP6 DUP3 PUSH2 0xAF8 JUMP JUMPDEST SWAP5 POP PUSH2 0xB68 DUP4 PUSH2 0xB0C JUMP JUMPDEST SWAP3 POP PUSH1 0x20 DUP11 ADD SWAP10 POP POP PUSH1 0x1 DUP2 ADD SWAP1 POP PUSH2 0xB44 JUMP JUMPDEST POP DUP3 SWAP8 POP DUP8 SWAP6 POP POP POP POP POP POP SWAP3 SWAP2 POP POP JUMP JUMPDEST PUSH1 0x0 PUSH1 0x20 DUP3 ADD SWAP1 POP DUP2 DUP2 SUB PUSH1 0x0 DUP4 ADD MSTORE PUSH2 0xBA8 DUP2 DUP5 PUSH2 0xB19 JUMP JUMPDEST SWAP1 POP SWAP3 SWAP2 POP POP JUMP JUMPDEST PUSH1 0x0 DUP2 MLOAD SWAP1 POP SWAP2 SWAP1 POP JUMP JUMPDEST PUSH1 0x0 DUP3 DUP3 MSTORE PUSH1 0x20 DUP3 ADD SWAP1 POP SWAP3 SWAP2 POP POP JUMP JUMPDEST PUSH1 0x0 DUP2 SWAP1 POP PUSH1 0x20 DUP3 ADD SWAP1 POP SWAP2 SWAP1 POP JUMP JUMPDEST PUSH2 0xBE5 DUP2 PUSH2 0x747 JUMP JUMPDEST DUP3 MSTORE POP POP JUMP JUMPDEST PUSH1 0x0 PUSH2 0xBF7 DUP4 DUP4 PUSH2 0xBDC JUMP JUMPDEST PUSH1 0x20 DUP4 ADD SWAP1 POP SWAP3 SWAP2 POP POP JUMP JUMPDEST PUSH1 0x0 PUSH1 0x20 DUP3 ADD SWAP1 POP SWAP2 SWAP1 POP JUMP JUMPDEST PUSH1 0x0 PUSH2 0xC1B DUP3 PUSH2 0xBB0 JUMP JUMPDEST PUSH2 0xC25 DUP2 DUP6 PUSH2 0xBBB JUMP JUMPDEST SWAP4 POP PUSH2 0xC30 DUP4 PUSH2 0xBCC JUMP JUMPDEST DUP1 PUSH1 0x0 JUMPDEST DUP4 DUP2 LT ISZERO PUSH2 0xC61 JUMPI DUP2 MLOAD PUSH2 0xC48 DUP9 DUP3 PUSH2 0xBEB JUMP JUMPDEST SWAP8 POP PUSH2 0xC53 DUP4 PUSH2 0xC03 JUMP JUMPDEST SWAP3 POP POP PUSH1 0x1 DUP2 ADD SWAP1 POP PUSH2 0xC34 JUMP JUMPDEST POP DUP6 SWAP4 POP POP POP POP SWAP3 SWAP2 POP POP JUMP JUMPDEST PUSH1 0x0 PUSH1 0x20 DUP3 ADD SWAP1 POP DUP2 DUP2 SUB PUSH1 0x0 DUP4 ADD MSTORE PUSH2 0xC88 DUP2 DUP5 PUSH2 0xC10 JUMP JUMPDEST SWAP1 POP SWAP3 SWAP2 POP POP JUMP JUMPDEST PUSH1 0x0 DUP1 PUSH1 0x40 DUP4 DUP6 SUB SLT ISZERO PUSH2 0xCA7 JUMPI PUSH2 0xCA6 PUSH2 0x71D JUMP JUMPDEST JUMPDEST PUSH1 0x0 PUSH2 0xCB5 DUP6 DUP3 DUP7 ADD PUSH2 0x7FD JUMP JUMPDEST SWAP3 POP POP PUSH1 0x20 PUSH2 0xCC6 DUP6 DUP3 DUP7 ADD PUSH2 0x770 JUMP JUMPDEST SWAP2 POP POP SWAP3 POP SWAP3 SWAP1 POP JUMP JUMPDEST PUSH32 0x4E487B7100000000000000000000000000000000000000000000000000000000 PUSH1 0x0 MSTORE PUSH1 0x22 PUSH1 0x4 MSTORE PUSH1 0x24 PUSH1 0x0 REVERT JUMPDEST PUSH1 0x0 PUSH1 0x2 DUP3 DIV SWAP1 POP PUSH1 0x1 DUP3 AND DUP1 PUSH2 0xD17 JUMPI PUSH1 0x7F DUP3 AND SWAP2 POP JUMPDEST PUSH1 0x20 DUP3 LT DUP2 SUB PUSH2 0xD2A JUMPI PUSH2 0xD29 PUSH2 0xCD0 JUMP JUMPDEST JUMPDEST POP SWAP2 SWAP1 POP JUMP JUMPDEST PUSH1 0x0 DUP2 SWAP1 POP DUP2 PUSH1 0x0 MSTORE PUSH1 0x20 PUSH1 0x0 KECCAK256 SWAP1 POP SWAP2 SWAP1 POP JUMP JUMPDEST PUSH1 0x0 PUSH1 0x20 PUSH1 0x1F DUP4 ADD DIV SWAP1 POP SWAP2 SWAP1 POP JUMP JUMPDEST PUSH1 0x0 DUP3 DUP3 SHL SWAP1 POP SWAP3 SWAP2 POP POP JUMP JUMPDEST PUSH1 0x0 PUSH1 0x8 DUP4 MUL PUSH2 0xD92 PUSH32 0xFFFFFFFFFFFFFFFFFFFFFFFFFFFFFFFFFFFFFFFFFFFFFFFFFFFFFFFFFFFFFFFF DUP3 PUSH2 0xD55 JUMP JUMPDEST PUSH2 0xD9C DUP7 DUP4 PUSH2 0xD55 JUMP JUMPDEST SWAP6 POP DUP1 NOT DUP5 AND SWAP4 POP DUP1 DUP7 AND DUP5 OR SWAP3 POP POP POP SWAP4 SWAP3 POP POP POP JUMP JUMPDEST PUSH1 0x0 DUP2 SWAP1 POP SWAP2 SWAP1 POP JUMP JUMPDEST PUSH1 0x0 PUSH2 0xDD9 PUSH2 0xDD4 PUSH2 0xDCF DUP5 PUSH2 0x7B2 JUMP JUMPDEST PUSH2 0xDB4 JUMP JUMPDEST PUSH2 0x7B2 JUMP JUMPDEST SWAP1 POP SWAP2 SWAP1 POP JUMP JUMPDEST PUSH1 0x0 DUP2 SWAP1 POP SWAP2 SWAP1 POP JUMP JUMPDEST PUSH2 0xDF3 DUP4 PUSH2 0xDBE JUMP JUMPDEST PUSH2 0xE07 PUSH2 0xDFF DUP3 PUSH2 0xDE0 JUMP JUMPDEST DUP5 DUP5 SLOAD PUSH2 0xD62 JUMP JUMPDEST DUP3 SSTORE POP POP POP POP JUMP JUMPDEST PUSH1 0x0 SWAP1 JUMP JUMPDEST PUSH2 0xE1C PUSH2 0xE0F JUMP JUMPDEST PUSH2 0xE27 DUP2 DUP5 DUP5 PUSH2 0xDEA JUMP JUMPDEST POP POP POP JUMP JUMPDEST JUMPDEST DUP2 DUP2 LT ISZERO PUSH2 0xE4B JUMPI PUSH2 0xE40 PUSH1 0x0 DUP3 PUSH2 0xE14 JUMP JUMPDEST PUSH1 0x1 DUP2 ADD SWAP1 POP PUSH2 0xE2D JUMP JUMPDEST POP POP JUMP JUMPDEST PUSH1 0x1F DUP3 GT ISZERO PUSH2 0xE90 JUMPI PUSH2 0xE61 DUP2 PUSH2 0xD30 JUMP JUMPDEST PUSH2 0xE6A DUP5 PUSH2 0xD45 JUMP JUMPDEST DUP2 ADD PUSH1 0x20 DUP6 LT ISZERO PUSH2 0xE79 JUMPI DUP2 SWAP1 POP JUMPDEST PUSH2 0xE8D PUSH2 0xE85 DUP6 PUSH2 0xD45 JUMP JUMPDEST DUP4 ADD DUP3 PUSH2 0xE2C JUMP JUMPDEST POP POP JUMPDEST POP POP POP JUMP JUMPDEST PUSH1 0x0 DUP3 DUP3 SHR SWAP1 POP SWAP3 SWAP2 POP POP JUMP JUMPDEST PUSH1 0x0 PUSH2 0xEB3 PUSH1 0x0 NOT DUP5 PUSH1 0x8 MUL PUSH2 0xE95 JUMP JUMPDEST NOT DUP1 DUP4 AND SWAP2 POP POP SWAP3 SWAP2 POP POP JUMP JUMPDEST PUSH1 0x0 PUSH2 0xECC DUP4 DUP4 PUSH2 0xEA2 JUMP JUMPDEST SWAP2 POP DUP3 PUSH1 0x2 MUL DUP3 OR SWAP1 POP SWAP3 SWAP2 POP POP JUMP JUMPDEST PUSH2 0xEE5 DUP3 PUSH2 0x852 JUMP JUMPDEST PUSH8 0xFFFFFFFFFFFFFFFF DUP2 GT ISZERO PUSH2 0xEFE JUMPI PUSH2 0xEFD PUSH2 0x90E JUMP JUMPDEST JUMPDEST PUSH2 0xF08 DUP3 SLOAD PUSH2 0xCFF JUMP JUMPDEST PUSH2 0xF13 DUP3 DUP3 DUP6 PUSH2 0xE4F JUMP JUMPDEST PUSH1 0x0 PUSH1 0x20 SWAP1 POP PUSH1 0x1F DUP4 GT PUSH1 0x1 DUP2 EQ PUSH2 0xF46 JUMPI PUSH1 0x0 DUP5 ISZERO PUSH2 0xF34 JUMPI DUP3 DUP8 ADD MLOAD SWAP1 POP JUMPDEST PUSH2 0xF3E DUP6 DUP3 PUSH2 0xEC0 JUMP JUMPDEST DUP7 SSTORE POP PUSH2 0xFA6 JUMP JUMPDEST PUSH1 0x1F NOT DUP5 AND PUSH2 0xF54 DUP7 PUSH2 0xD30 JUMP JUMPDEST PUSH1 0x0 JUMPDEST DUP3 DUP2 LT ISZERO PUSH2 0xF7C JUMPI DUP5 DUP10 ADD MLOAD DUP3 SSTORE PUSH1 0x1 DUP3 ADD SWAP2 POP PUSH1 0x20 DUP6 ADD SWAP5 POP PUSH1 0x20 DUP2 ADD SWAP1 POP PUSH2 0xF57 JUMP JUMPDEST DUP7 DUP4 LT ISZERO PUSH2 0xF99 JUMPI DUP5 DUP10 ADD MLOAD PUSH2 0xF95 PUSH1 0x1F DUP10 AND DUP3 PUSH2 0xEA2 JUMP JUMPDEST DUP4 SSTORE POP JUMPDEST PUSH1 0x1 PUSH1 0x2 DUP9 MUL ADD DUP9 SSTORE POP POP POP JUMPDEST POP POP POP POP POP POP JUMP JUMPDEST PUSH32 0x4E487B7100000000000000000000000000000000000000000000000000000000 PUSH1 0x0 MSTORE PUSH1 0x11 PUSH1 0x4 MSTORE PUSH1 0x24 PUSH1 0x0 REVERT JUMPDEST PUSH1 0x0 PUSH2 0xFE8 DUP3 PUSH2 0x7B2 JUMP JUMPDEST SWAP2 POP PUSH2 0xFF3 DUP4 PUSH2 0x7B2 JUMP JUMPDEST SWAP3 POP DUP3 DUP3 SUB SWAP1 POP DUP2 DUP2 GT ISZERO PUSH2 0x100B JUMPI PUSH2 0x100A PUSH2 0xFAE JUMP JUMPDEST JUMPDEST SWAP3 SWAP2 POP POP JUMP JUMPDEST PUSH1 0x0 PUSH2 0x101C DUP3 PUSH2 0x7B2 JUMP JUMPDEST SWAP2 POP PUSH2 0x1027 DUP4 PUSH2 0x7B2 JUMP JUMPDEST SWAP3 POP DUP3 DUP3 ADD SWAP1 POP DUP1 DUP3 GT ISZERO PUSH2 0x103F JUMPI PUSH2 0x103E PUSH2 0xFAE JUMP JUMPDEST JUMPDEST SWAP3 SWAP2 POP POP JUMP INVALID LOG2 PUSH5 0x6970667358 0x22 SLT KECCAK256 PC MOD ADDMOD PUSH18 0xB28ED81F9A3415E7929B39D07CC39F516E53 BASEFEE 0xEE JUMPDEST PUSH31 0xE69DBEE3D85964736F6C634300081100330000000000000000000000000000 "
		},
		"gasEstimates": {
			"creation": {
				"codeDepositCost": "843800",
				"executionCost": "5883",
				"totalCost": "849683"
			},
			"external": {
				"balances(address)": "2815",
				"createGame(string)": "infinite",
				"createPublisher()": "53825",
				"deposit(address)": "infinite",
				"distribute(uint256,address)": "infinite",
				"games(address,uint256)": "infinite",
				"getBalance(address)": "2929",
				"getGames(address)": "infinite",
				"getPublishers()": "infinite"
			}
		},
		"methodIdentifiers": {
			"balances(address)": "27e235e3",
			"createGame(string)": "2ebc0504",
			"createPublisher()": "6bf80b5e",
			"deposit(address)": "f340fa01",
			"distribute(uint256,address)": "e1fa8b02",
			"games(address,uint256)": "2a8ec9b8",
			"getBalance(address)": "f8b2cb4f",
			"getGames(address)": "6632efbb",
			"getPublishers()": "6c6071aa"
		}
	},
	"abi": [
		{
			"inputs": [],
			"stateMutability": "nonpayable",
			"type": "constructor"
		},
		{
			"inputs": [
				{
					"internalType": "address",
					"name": "",
					"type": "address"
				}
			],
			"name": "balances",
			"outputs": [
				{
					"internalType": "uint256",
					"name": "",
					"type": "uint256"
				}
			],
			"stateMutability": "view",
			"type": "function"
		},
		{
			"inputs": [
				{
					"internalType": "string",
					"name": "gameName",
					"type": "string"
				}
			],
			"name": "createGame",
			"outputs": [],
			"stateMutability": "nonpayable",
			"type": "function"
		},
		{
			"inputs": [],
			"name": "createPublisher",
			"outputs": [],
			"stateMutability": "nonpayable",
			"type": "function"
		},
		{
			"inputs": [
				{
					"internalType": "address",
					"name": "name",
					"type": "address"
				}
			],
			"name": "deposit",
			"outputs": [],
			"stateMutability": "payable",
			"type": "function"
		},
		{
			"inputs": [
				{
					"internalType": "uint256",
					"name": "amount",
					"type": "uint256"
				},
				{
					"internalType": "address",
					"name": "name",
					"type": "address"
				}
			],
			"name": "distribute",
			"outputs": [],
			"stateMutability": "nonpayable",
			"type": "function"
		},
		{
			"inputs": [
				{
					"internalType": "address",
					"name": "",
					"type": "address"
				},
				{
					"internalType": "uint256",
					"name": "",
					"type": "uint256"
				}
			],
			"name": "games",
			"outputs": [
				{
					"internalType": "string",
					"name": "",
					"type": "string"
				}
			],
			"stateMutability": "view",
			"type": "function"
		},
		{
			"inputs": [
				{
					"internalType": "address",
					"name": "name",
					"type": "address"
				}
			],
			"name": "getBalance",
			"outputs": [
				{
					"internalType": "uint256",
					"name": "",
					"type": "uint256"
				}
			],
			"stateMutability": "view",
			"type": "function"
		},
		{
			"inputs": [
				{
					"internalType": "address",
					"name": "publisherName",
					"type": "address"
				}
			],
			"name": "getGames",
			"outputs": [
				{
					"internalType": "string[]",
					"name": "",
					"type": "string[]"
				}
			],
			"stateMutability": "view",
			"type": "function"
		},
		{
			"inputs": [],
			"name": "getPublishers",
			"outputs": [
				{
					"internalType": "address[]",
					"name": "",
					"type": "address[]"
				}
			],
			"stateMutability": "view",
			"type": "function"
		},
		{
			"stateMutability": "payable",
			"type": "receive"
		}
	]
}